{
  "abi": [
    {
      "inputs": [],
      "name": "HasExpired",
      "type": "error"
    },
    {
      "inputs": [],
      "name": "InsufficientTokens",
      "type": "error"
    },
    {
      "inputs": [],
      "name": "NotVaultOwner",
      "type": "error"
    },
    {
      "inputs": [
        {
          "internalType": "address",
          "name": "_token",
          "type": "address"
        },
        {
          "internalType": "address",
          "name": "_to",
          "type": "address"
        },
        {
          "internalType": "bool",
          "name": "_approved",
          "type": "bool"
        }
      ],
      "name": "approveERC1155Token",
      "outputs": [],
      "stateMutability": "nonpayable",
      "type": "function"
    },
    {
      "inputs": [
        {
          "internalType": "address",
          "name": "_token",
          "type": "address"
        },
        {
          "internalType": "uint256[]",
          "name": "_tokenIDs",
          "type": "uint256[]"
        },
        {
          "internalType": "uint256[]",
          "name": "_amounts",
          "type": "uint256[]"
        }
      ],
      "name": "batchDepositERC1155Tokens",
      "outputs": [],
      "stateMutability": "nonpayable",
      "type": "function"
    },
    {
      "inputs": [
        {
          "internalType": "address",
          "name": "_token",
          "type": "address"
        },
        {
          "internalType": "uint256[]",
          "name": "_tokenIDs",
          "type": "uint256[]"
        },
        {
          "internalType": "uint256[]",
          "name": "_amount",
          "type": "uint256[]"
        },
        {
          "internalType": "address",
          "name": "_to",
          "type": "address"
        }
      ],
      "name": "batchWithdrawERC1155Token",
      "outputs": [],
      "stateMutability": "nonpayable",
      "type": "function"
    },
    {
      "inputs": [
        {
          "internalType": "address",
          "name": "_token",
          "type": "address"
        },
        {
          "internalType": "uint256",
          "name": "_tokenID",
          "type": "uint256"
        },
        {
          "internalType": "uint256",
          "name": "_amount",
          "type": "uint256"
        }
      ],
      "name": "depositERC1155Token",
      "outputs": [],
      "stateMutability": "nonpayable",
      "type": "function"
    },
    {
      "inputs": [
        {
          "internalType": "address",
          "name": "_inheritor",
          "type": "address"
        }
      ],
      "name": "getAllAllocatedERC1155Tokens",
      "outputs": [
        {
          "components": [
            {
              "internalType": "address",
              "name": "token",
              "type": "address"
            },
            {
              "internalType": "uint256",
              "name": "tokenID",
              "type": "uint256"
            },
            {
              "internalType": "uint256",
              "name": "amount",
              "type": "uint256"
            }
          ],
          "internalType": "struct ERC1155Facet.AllAllocatedERC1155Tokens[]",
          "name": "alloc_",
          "type": "tuple[]"
        }
      ],
      "stateMutability": "view",
      "type": "function"
    },
    {
      "inputs": [
        {
          "internalType": "address",
          "name": "_token",
          "type": "address"
        },
        {
          "internalType": "address",
          "name": "_inheritor",
          "type": "address"
        }
      ],
      "name": "getAllocatedERC1155Tokens",
      "outputs": [
        {
          "components": [
            {
              "internalType": "uint256",
              "name": "tokenID",
              "type": "uint256"
            },
            {
              "internalType": "uint256",
              "name": "amount",
              "type": "uint256"
            }
          ],
          "internalType": "struct ERC1155Facet.AllocatedERC1155Tokens[]",
          "name": "alloc_",
          "type": "tuple[]"
        }
      ],
      "stateMutability": "view",
      "type": "function"
    },
    {
      "inputs": [
        {
          "internalType": "address",
          "name": "_token",
          "type": "address"
        },
        {
          "internalType": "uint256",
          "name": "_tokenId",
          "type": "uint256"
        }
      ],
      "name": "getUnallocatedERC115Tokens",
      "outputs": [
        {
          "internalType": "uint256",
          "name": "remaining_",
          "type": "uint256"
        }
      ],
      "stateMutability": "view",
      "type": "function"
    },
    {
      "inputs": [
        {
          "internalType": "address",
          "name": "",
          "type": "address"
        },
        {
          "internalType": "address",
          "name": "",
          "type": "address"
        },
        {
          "internalType": "uint256[]",
          "name": "",
          "type": "uint256[]"
        },
        {
          "internalType": "uint256[]",
          "name": "",
          "type": "uint256[]"
        },
        {
          "internalType": "bytes",
          "name": "",
          "type": "bytes"
        }
      ],
      "name": "onERC1155BatchReceived",
      "outputs": [
        {
          "internalType": "bytes4",
          "name": "",
          "type": "bytes4"
        }
      ],
      "stateMutability": "pure",
      "type": "function"
    },
    {
      "inputs": [
        {
          "internalType": "address",
          "name": "",
          "type": "address"
        },
        {
          "internalType": "address",
          "name": "",
          "type": "address"
        },
        {
          "internalType": "uint256",
          "name": "",
          "type": "uint256"
        },
        {
          "internalType": "uint256",
          "name": "",
          "type": "uint256"
        },
        {
          "internalType": "bytes",
          "name": "",
          "type": "bytes"
        }
      ],
      "name": "onERC1155Received",
      "outputs": [
        {
          "internalType": "bytes4",
          "name": "",
          "type": "bytes4"
        }
      ],
      "stateMutability": "pure",
      "type": "function"
    },
    {
      "inputs": [
        {
          "internalType": "address",
          "name": "_token",
          "type": "address"
        },
        {
          "internalType": "uint256",
          "name": "_tokenID",
          "type": "uint256"
        },
        {
          "internalType": "uint256",
          "name": "_amount",
          "type": "uint256"
        },
        {
          "internalType": "address",
          "name": "_to",
          "type": "address"
        }
      ],
      "name": "withdrawERC1155Token",
      "outputs": [],
      "stateMutability": "nonpayable",
      "type": "function"
    }
  ],
  "bytecode": {
    "object": "0x608060405234801561001057600080fd5b5061160e806100206000396000f3fe608060405234801561001057600080fd5b506004361061009e5760003560e01c806372cbcf921161006657806372cbcf92146101275780637d926aaa14610148578063839a3fde1461015b578063bc197c811461016e578063f23a6e61146101a657600080fd5b80630f8e1f32146100a35780631795e5f1146100cc57806336f31eaa146100e157806363dfdbf4146100f457806371cf749814610114575b600080fd5b6100b66100b1366004610d80565b6101c5565b6040516100c39190610db3565b60405180910390f35b6100df6100da366004610e02565b610351565b005b6100df6100ef366004610e94565b61036b565b610107610102366004610f24565b6103dc565b6040516100c39190610f46565b6100df610122366004610f9b565b61061c565b61013a61013536600461101c565b610630565b6040519081526020016100c3565b6100df610156366004611046565b6106cd565b6100df610169366004611079565b6106dd565b61018d61017c3660046111fc565b63bc197c8160e01b95945050505050565b6040516001600160e01b031990911681526020016100c3565b61018d6101b43660046112a6565b63f23a6e6160e01b95945050505050565b60606101d0826106f0565b5060006101db61073b565b6001600160a01b0380851660009081526011830160209081526040808320938916835292905220549091508015610349578067ffffffffffffffff811115610225576102256110c5565b60405190808252806020026020018201604052801561026a57816020015b60408051808201909152600080825260208201528152602001906001900390816102435790505b50925060005b81811015610347576001600160a01b0380861660009081526011850160209081526040808320938a1683529290529081208054839081106102b3576102b361130b565b90600052602060002001549050808583815181106102d3576102d361130b565b602090810291909101810151919091526001600160a01b038088166000908152600f870183526040808220928b16825291835281812084825290925290205485518690849081106103265761032661130b565b6020908102919091018101510152508061033f81611337565b915050610270565b505b505092915050565b610359610837565b61036584848484610841565b50505050565b610373610837565b83156103d45760005b848110156103d2576103c08787878481811061039a5761039a61130b565b905060200201358686858181106103b3576103b361130b565b9050602002013585610351565b806103ca81611337565b91505061037c565b505b505050505050565b60606103e7826106f0565b5060006103f261073b565b6001600160a01b03841660009081526010820160205260408120549192505b81811015610614576001600160a01b038516600090815260108401602052604081208054839081106104455761044561130b565b60009182526020808320909101546001600160a01b0389811684526011880183526040808520919092168085529252909120549091508067ffffffffffffffff811115610494576104946110c5565b6040519080825280602002602001820160405280156104f257816020015b6104df604051806060016040528060006001600160a01b0316815260200160008152602001600081525090565b8152602001906001900390816104b25790505b50955060005b818110156105fe576001600160a01b0380891660009081526011880160209081526040808320938716835292905290812080548390811061053b5761053b61130b565b906000526020600020015490508088838151811061055b5761055b61130b565b6020908102919091018101518101919091526001600160a01b03808b166000908152600f8a0183526040808220928816825291835281812084825290925290205488518990849081106105b0576105b061130b565b60200260200101516040018181525050838883815181106105d3576105d361130b565b60209081029190910101516001600160a01b03909116905250806105f681611337565b9150506104f8565b505050808061060c90611337565b915050610411565b505050919050565b6106298585858585610a0c565b5050505050565b60008061063d8484610ad5565b604051627eeac760e11b8152306004820152602481018590529091506000906001600160a01b0386169062fdd58e90604401602060405180830381865afa15801561068c573d6000803e3d6000fd5b505050506040513d601f19601f820116820180604052508101906106b09190611350565b905080821015610349576106c48282611369565b95945050505050565b6106d8838383610b67565b505050565b6106e5610837565b6106d8838383610c2d565b6000806106fb61073b565b90506001600160a01b0383166107145760019150610735565b6001600160a01b038316600090815260058201602052604090205460ff1691505b50919050565b6000806107fd60405180604001604052600f8152806020016e111a585b5bdb9910dd5d119858d95d608a1b81525060405180604001604052600a81528060200169115490cc8c119858d95d60b21b81525060405180604001604052600b8152806020016a115490cdcc8c519858d95d60aa1b81525060405180604001604052600c8152806020016b115490cc4c4d4d519858d95d60a21b81525060405180604001604052600a8152806020016915985d5b1d119858d95d60b21b815250610c94565b905060006040518060200161081190610d58565b601f1982820381018352601f909101166040528051602091909101209190911892915050565b61083f610cd0565b565b600061084d8585610ad5565b604051627eeac760e11b8152306004820152602481018690529091506000906001600160a01b0387169062fdd58e90604401602060405180830381865afa15801561089c573d6000803e3d6000fd5b505050506040513d601f19601f820116820180604052508101906108c09190611350565b9050838110156108e3576040516378dbf0af60e11b815260040160405180910390fd5b836108ee8383611369565b10156109395760405162461bcd60e51b8152602060048201526016602482015275155b905b1b1bd8d85d1948151bdad95b9cd19a5c9cdd60521b604482015260640160405180910390fd5b604051637921219560e11b81526001600160a01b0387169063f242432a9061096b90309087908a908a90600401611382565b600060405180830381600087803b15801561098557600080fd5b505af1158015610999573d6000803e3d6000fd5b505050507fdb026f81938b7e2df41391a31fd87ec20a7b7e205b6e70a282bc5376b6b1986a868686866109ca610d04565b604080516001600160a01b03968716815260208101959095528401929092529092166060820152608081019190915260a00160405180910390a1505050505050565b610a14610d16565b604051631759616b60e11b81526001600160a01b03861690632eb2c2d690610a4a903390309089908990899089906004016113ec565b600060405180830381600087803b158015610a6457600080fd5b505af1158015610a78573d6000803e3d6000fd5b5033925050506001600160a01b0386167f4987962b933f997c48361cae4a5a38c170bf45af789010f4c1b4857c8296834586868686610ab5610d04565b604051610ac695949392919061144b565b60405180910390a35050505050565b600080610ae061073b565b905060005b60048201548110156103495781600f016000836004018381548110610b0c57610b0c61130b565b60009182526020808320909101546001600160a01b03908116845283820194909452604092830182209389168252928352818120878252909252902054610b539084611485565b925080610b5f81611337565b915050610ae5565b610b6f610d16565b604051637921219560e11b81526001600160a01b0384169063f242432a90610ba1903390309087908790600401611382565b600060405180830381600087803b158015610bbb57600080fd5b505af1158015610bcf573d6000803e3d6000fd5b5033925050506001600160a01b0384167fe42ede88596a1f85cae0e132bfe4450284be3c51b668f4bde779398bc446ad918484610c0a610d04565b6040805193845260208401929092529082015260600160405180910390a3505050565b610c35610d16565b60405163a22cb46560e01b81526001600160a01b038381166004830152821515602483015284169063a22cb46590604401600060405180830381600087803b158015610c8057600080fd5b505af11580156103d2573d6000803e3d6000fd5b60008585858585604051602001610caf9594939291906114de565b60405160208183030381529060405280519060200120905095945050505050565b610cd861073b565b600101546001600160a01b0316331461083f57604051630e7fea9d60e01b815260040160405180910390fd5b600080610d0f61073b565b5492915050565b6000610d2061073b565b905062dd7c00816002015442610d369190611369565b1115610d5557604051633d36c2e560e01b815260040160405180910390fd5b50565b608d8061154c83390190565b80356001600160a01b0381168114610d7b57600080fd5b919050565b60008060408385031215610d9357600080fd5b610d9c83610d64565b9150610daa60208401610d64565b90509250929050565b602080825282518282018190526000919060409081850190868401855b82811015610df557815180518552860151868501529284019290850190600101610dd0565b5091979650505050505050565b60008060008060808587031215610e1857600080fd5b610e2185610d64565b93506020850135925060408501359150610e3d60608601610d64565b905092959194509250565b60008083601f840112610e5a57600080fd5b50813567ffffffffffffffff811115610e7257600080fd5b6020830191508360208260051b8501011115610e8d57600080fd5b9250929050565b60008060008060008060808789031215610ead57600080fd5b610eb687610d64565b9550602087013567ffffffffffffffff80821115610ed357600080fd5b610edf8a838b01610e48565b90975095506040890135915080821115610ef857600080fd5b50610f0589828a01610e48565b9094509250610f18905060608801610d64565b90509295509295509295565b600060208284031215610f3657600080fd5b610f3f82610d64565b9392505050565b602080825282518282018190526000919060409081850190868401855b82811015610df557815180516001600160a01b0316855286810151878601528501518585015260609093019290850190600101610f63565b600080600080600060608688031215610fb357600080fd5b610fbc86610d64565b9450602086013567ffffffffffffffff80821115610fd957600080fd5b610fe589838a01610e48565b90965094506040880135915080821115610ffe57600080fd5b5061100b88828901610e48565b969995985093965092949392505050565b6000806040838503121561102f57600080fd5b61103883610d64565b946020939093013593505050565b60008060006060848603121561105b57600080fd5b61106484610d64565b95602085013595506040909401359392505050565b60008060006060848603121561108e57600080fd5b61109784610d64565b92506110a560208501610d64565b9150604084013580151581146110ba57600080fd5b809150509250925092565b634e487b7160e01b600052604160045260246000fd5b604051601f8201601f1916810167ffffffffffffffff81118282101715611104576111046110c5565b604052919050565b600082601f83011261111d57600080fd5b8135602067ffffffffffffffff821115611139576111396110c5565b8160051b6111488282016110db565b928352848101820192828101908785111561116257600080fd5b83870192505b8483101561118157823582529183019190830190611168565b979650505050505050565b600082601f83011261119d57600080fd5b813567ffffffffffffffff8111156111b7576111b76110c5565b6111ca601f8201601f19166020016110db565b8181528460208386010111156111df57600080fd5b816020850160208301376000918101602001919091529392505050565b600080600080600060a0868803121561121457600080fd5b61121d86610d64565b945061122b60208701610d64565b9350604086013567ffffffffffffffff8082111561124857600080fd5b61125489838a0161110c565b9450606088013591508082111561126a57600080fd5b61127689838a0161110c565b9350608088013591508082111561128c57600080fd5b506112998882890161118c565b9150509295509295909350565b600080600080600060a086880312156112be57600080fd5b6112c786610d64565b94506112d560208701610d64565b93506040860135925060608601359150608086013567ffffffffffffffff8111156112ff57600080fd5b6112998882890161118c565b634e487b7160e01b600052603260045260246000fd5b634e487b7160e01b600052601160045260246000fd5b60006001820161134957611349611321565b5060010190565b60006020828403121561136257600080fd5b5051919050565b8181038181111561137c5761137c611321565b92915050565b6001600160a01b0394851681529290931660208301526040820152606081019190915260a06080820181905260009082015260c00190565b81835260006001600160fb1b038311156113d357600080fd5b8260051b80836020870137939093016020019392505050565b6001600160a01b0387811682528616602082015260a06040820181905260009061141990830186886113ba565b828103606084015261142c8185876113ba565b8381036080909401939093525050600081526020019695505050505050565b60608152600061145f6060830187896113ba565b82810360208401526114728186886113ba565b9150508260408301529695505050505050565b8082018082111561137c5761137c611321565b6000815180845260005b818110156114be576020818501810151868301820152016114a2565b506000602082860101526020601f19601f83011685010191505092915050565b60a0815260006114f160a0830188611498565b82810360208401526115038188611498565b905082810360408401526115178187611498565b9050828103606084015261152b8186611498565b9050828103608084015261153f8185611498565b9897505050505050505056fe60566037600b82828239805160001a607314602a57634e487b7160e01b600052600060045260246000fd5b30600052607381538281f3fe73000000000000000000000000000000000000000030146080604052600080fdfea2646970667358221220d3490995da7c482656cf5299d05897e7ad36d1e947ab8134ff8177e69fb907fa64736f6c63430008120033a2646970667358221220b747862e1fe0a909720e8db41e8c0d2af50345302556e87239c67ea4f247951264736f6c63430008120033",
    "linkReferences": {}
  },
  "methodIdentifiers": {
    "approveERC1155Token(address,address,bool)": "839a3fde",
    "batchDepositERC1155Tokens(address,uint256[],uint256[])": "71cf7498",
    "batchWithdrawERC1155Token(address,uint256[],uint256[],address)": "36f31eaa",
    "depositERC1155Token(address,uint256,uint256)": "7d926aaa",
    "getAllAllocatedERC1155Tokens(address)": "63dfdbf4",
    "getAllocatedERC1155Tokens(address,address)": "0f8e1f32",
    "getUnallocatedERC115Tokens(address,uint256)": "72cbcf92",
    "onERC1155BatchReceived(address,address,uint256[],uint256[],bytes)": "bc197c81",
    "onERC1155Received(address,address,uint256,uint256,bytes)": "f23a6e61",
    "withdrawERC1155Token(address,uint256,uint256,address)": "1795e5f1"
  },
  "id": 3
}