{
  "abi": [
    {
      "inputs": [],
      "name": "InsufficientTokens",
      "type": "error"
    },
    {
      "inputs": [],
      "name": "NotVaultOwner",
      "type": "error"
    },
    {
      "inputs": [
        {
          "internalType": "address",
          "name": "_token",
          "type": "address"
        },
        {
          "internalType": "address",
          "name": "_to",
          "type": "address"
        },
        {
          "internalType": "bool",
          "name": "_approved",
          "type": "bool"
        }
      ],
      "name": "approveERC1155Token",
      "outputs": [],
      "stateMutability": "nonpayable",
      "type": "function"
    },
    {
      "inputs": [
        {
          "internalType": "address",
          "name": "_token",
          "type": "address"
        },
        {
          "internalType": "uint256[]",
          "name": "_tokenIDs",
          "type": "uint256[]"
        },
        {
          "internalType": "uint256[]",
          "name": "_amounts",
          "type": "uint256[]"
        }
      ],
      "name": "batchDepositERC1155Tokens",
      "outputs": [],
      "stateMutability": "nonpayable",
      "type": "function"
    },
    {
      "inputs": [
        {
          "internalType": "address",
          "name": "_token",
          "type": "address"
        },
        {
          "internalType": "uint256[]",
          "name": "_tokenIDs",
          "type": "uint256[]"
        },
        {
          "internalType": "uint256[]",
          "name": "_amount",
          "type": "uint256[]"
        },
        {
          "internalType": "address",
          "name": "_to",
          "type": "address"
        }
      ],
      "name": "batchWithdrawERC1155Token",
      "outputs": [],
      "stateMutability": "nonpayable",
      "type": "function"
    },
    {
      "inputs": [
        {
          "internalType": "address",
          "name": "_token",
          "type": "address"
        },
        {
          "internalType": "uint256",
          "name": "_tokenID",
          "type": "uint256"
        },
        {
          "internalType": "uint256",
          "name": "_amount",
          "type": "uint256"
        }
      ],
      "name": "depositERC1155Token",
      "outputs": [],
      "stateMutability": "nonpayable",
      "type": "function"
    },
    {
      "inputs": [
        {
          "internalType": "address",
          "name": "",
          "type": "address"
        },
        {
          "internalType": "address",
          "name": "",
          "type": "address"
        },
        {
          "internalType": "uint256[]",
          "name": "",
          "type": "uint256[]"
        },
        {
          "internalType": "uint256[]",
          "name": "",
          "type": "uint256[]"
        },
        {
          "internalType": "bytes",
          "name": "",
          "type": "bytes"
        }
      ],
      "name": "onERC1155BatchReceived",
      "outputs": [
        {
          "internalType": "bytes4",
          "name": "",
          "type": "bytes4"
        }
      ],
      "stateMutability": "pure",
      "type": "function"
    },
    {
      "inputs": [
        {
          "internalType": "address",
          "name": "",
          "type": "address"
        },
        {
          "internalType": "address",
          "name": "",
          "type": "address"
        },
        {
          "internalType": "uint256",
          "name": "",
          "type": "uint256"
        },
        {
          "internalType": "uint256",
          "name": "",
          "type": "uint256"
        },
        {
          "internalType": "bytes",
          "name": "",
          "type": "bytes"
        }
      ],
      "name": "onERC1155Received",
      "outputs": [
        {
          "internalType": "bytes4",
          "name": "",
          "type": "bytes4"
        }
      ],
      "stateMutability": "pure",
      "type": "function"
    },
    {
      "inputs": [
        {
          "internalType": "address",
          "name": "_token",
          "type": "address"
        },
        {
          "internalType": "uint256",
          "name": "_tokenID",
          "type": "uint256"
        },
        {
          "internalType": "uint256",
          "name": "_amount",
          "type": "uint256"
        },
        {
          "internalType": "address",
          "name": "_to",
          "type": "address"
        }
      ],
      "name": "withdrawERC1155Token",
      "outputs": [],
      "stateMutability": "nonpayable",
      "type": "function"
    }
  ],
  "bytecode": {
    "object": "0x608060405234801561001057600080fd5b50610f7d806100206000396000f3fe608060405234801561001057600080fd5b506004361061007d5760003560e01c80637d926aaa1161005b5780637d926aaa146100bd578063839a3fde146100d0578063bc197c81146100e3578063f23a6e611461011f57600080fd5b80631795e5f11461008257806336f31eaa1461009757806371cf7498146100aa575b600080fd5b6100956100903660046108b8565b61013e565b005b6100956100a536600461094a565b610158565b6100956100b83660046109da565b6101c9565b6100956100cb366004610a5b565b6101dd565b6100956100de366004610a8e565b6101ed565b6101026100f1366004610c11565b63bc197c8160e01b95945050505050565b6040516001600160e01b0319909116815260200160405180910390f35b61010261012d366004610cbb565b63f23a6e6160e01b95945050505050565b610146610200565b6101528484848461020a565b50505050565b610160610200565b83156101c15760005b848110156101bf576101ad8787878481811061018757610187610d20565b905060200201358686858181106101a0576101a0610d20565b905060200201358561013e565b806101b781610d4c565b915050610169565b505b505050505050565b6101d68585858585610445565b5050505050565b6101e8838383610506565b505050565b6101f5610200565b6101e88383836105c4565b610208610623565b565b604051627eeac760e11b8152306004820152602481018490526000906001600160a01b0386169062fdd58e90604401602060405180830381865afa158015610256573d6000803e3d6000fd5b505050506040513d601f19601f8201168201806040525081019061027a9190610d65565b905060006102a260405180604001604052806003815260200162444d5360e81b815250610657565b1561034e5760006102b38787610690565b9050808311156102d1576102c78184610d7e565b91506102d1610727565b848310156102f2576040516378dbf0af60e11b815260040160405180910390fd5b846102fd8285610d7e565b10156103485760405162461bcd60e51b8152602060048201526016602482015275155b905b1b1bd8d85d1948151bdad95b9cd19a5c9cdd60521b604482015260640160405180910390fd5b50610351565b50805b83811015610372576040516378dbf0af60e11b815260040160405180910390fd5b604051637921219560e11b81526001600160a01b0387169063f242432a906103a490309087908a908a90600401610d97565b600060405180830381600087803b1580156103be57600080fd5b505af11580156103d2573d6000803e3d6000fd5b505050507fdb026f81938b7e2df41391a31fd87ec20a7b7e205b6e70a282bc5376b6b1986a86868686610403610781565b604080516001600160a01b03968716815260208101959095528401929092529092166060820152608081019190915260a00160405180910390a1505050505050565b604051631759616b60e11b81526001600160a01b03861690632eb2c2d69061047b90339030908990899089908990600401610e01565b600060405180830381600087803b15801561049557600080fd5b505af11580156104a9573d6000803e3d6000fd5b5033925050506001600160a01b0386167f4987962b933f997c48361cae4a5a38c170bf45af789010f4c1b4857c82968345868686866104e6610781565b6040516104f7959493929190610e60565b60405180910390a35050505050565b604051637921219560e11b81526001600160a01b0384169063f242432a90610538903390309087908790600401610d97565b600060405180830381600087803b15801561055257600080fd5b505af1158015610566573d6000803e3d6000fd5b5033925050506001600160a01b0384167fe42ede88596a1f85cae0e132bfe4450284be3c51b668f4bde779398bc446ad9184846105a1610781565b6040805193845260208401929092529082015260600160405180910390a3505050565b60405163a22cb46560e01b81526001600160a01b038381166004830152821515602483015284169063a22cb46590604401600060405180830381600087803b15801561060f57600080fd5b505af11580156101bf573d6000803e3d6000fd5b61062b610794565b600501546001600160a01b0316331461020857604051630e7fea9d60e01b815260040160405180910390fd5b600080610662610794565b905080600901836040516106769190610ebe565b9081526040519081900360200190205460ff169392505050565b60008061069b610819565b905060005b815481101561071f5781600b0160008360000183815481106106c4576106c4610d20565b60009182526020808320909101546001600160a01b0390811684528382019490945260409283018220938916825292835281812087825290925290205461070b9084610eda565b92508061071781610d4c565b9150506106a0565b505092915050565b6000610731610794565b90504281600601819055507f4b956f7dd859946b4769262a4e79184ac10e1bb38db7ac1b1b2e108464248d4d42610766610781565b6040805192835260208301919091520160405180910390a150565b600061078b610794565b60040154905090565b6000806107f160405180604001604052600f8152806020016e111a585b5bdb9910dd5d119858d95d608a1b81525060405180604001604052601181528060200170111a585b5bdb99131bdd5c19519858d95d607a1b815250610869565b7f7f9df2342d5c190c7450de83944c941641ce57327a12faebc868644d2853cdbf1892915050565b6000806107f160405180604001604052600f8152806020016e111a585b5bdb9910dd5d119858d95d608a1b81525060405180604001604052600881528060200167111354d19858d95d60c21b8152505b6000828260405160200161087e929190610f19565b60405160208183030381529060405280519060200120905092915050565b80356001600160a01b03811681146108b357600080fd5b919050565b600080600080608085870312156108ce57600080fd5b6108d78561089c565b935060208501359250604085013591506108f36060860161089c565b905092959194509250565b60008083601f84011261091057600080fd5b50813567ffffffffffffffff81111561092857600080fd5b6020830191508360208260051b850101111561094357600080fd5b9250929050565b6000806000806000806080878903121561096357600080fd5b61096c8761089c565b9550602087013567ffffffffffffffff8082111561098957600080fd5b6109958a838b016108fe565b909750955060408901359150808211156109ae57600080fd5b506109bb89828a016108fe565b90945092506109ce90506060880161089c565b90509295509295509295565b6000806000806000606086880312156109f257600080fd5b6109fb8661089c565b9450602086013567ffffffffffffffff80821115610a1857600080fd5b610a2489838a016108fe565b90965094506040880135915080821115610a3d57600080fd5b50610a4a888289016108fe565b969995985093965092949392505050565b600080600060608486031215610a7057600080fd5b610a798461089c565b95602085013595506040909401359392505050565b600080600060608486031215610aa357600080fd5b610aac8461089c565b9250610aba6020850161089c565b915060408401358015158114610acf57600080fd5b809150509250925092565b634e487b7160e01b600052604160045260246000fd5b604051601f8201601f1916810167ffffffffffffffff81118282101715610b1957610b19610ada565b604052919050565b600082601f830112610b3257600080fd5b8135602067ffffffffffffffff821115610b4e57610b4e610ada565b8160051b610b5d828201610af0565b9283528481018201928281019087851115610b7757600080fd5b83870192505b84831015610b9657823582529183019190830190610b7d565b979650505050505050565b600082601f830112610bb257600080fd5b813567ffffffffffffffff811115610bcc57610bcc610ada565b610bdf601f8201601f1916602001610af0565b818152846020838601011115610bf457600080fd5b816020850160208301376000918101602001919091529392505050565b600080600080600060a08688031215610c2957600080fd5b610c328661089c565b9450610c406020870161089c565b9350604086013567ffffffffffffffff80821115610c5d57600080fd5b610c6989838a01610b21565b94506060880135915080821115610c7f57600080fd5b610c8b89838a01610b21565b93506080880135915080821115610ca157600080fd5b50610cae88828901610ba1565b9150509295509295909350565b600080600080600060a08688031215610cd357600080fd5b610cdc8661089c565b9450610cea6020870161089c565b93506040860135925060608601359150608086013567ffffffffffffffff811115610d1457600080fd5b610cae88828901610ba1565b634e487b7160e01b600052603260045260246000fd5b634e487b7160e01b600052601160045260246000fd5b600060018201610d5e57610d5e610d36565b5060010190565b600060208284031215610d7757600080fd5b5051919050565b81810381811115610d9157610d91610d36565b92915050565b6001600160a01b0394851681529290931660208301526040820152606081019190915260a06080820181905260009082015260c00190565b81835260006001600160fb1b03831115610de857600080fd5b8260051b80836020870137939093016020019392505050565b6001600160a01b0387811682528616602082015260a060408201819052600090610e2e9083018688610dcf565b8281036060840152610e41818587610dcf565b8381036080909401939093525050600081526020019695505050505050565b606081526000610e74606083018789610dcf565b8281036020840152610e87818688610dcf565b9150508260408301529695505050505050565b60005b83811015610eb5578181015183820152602001610e9d565b50506000910152565b60008251610ed0818460208701610e9a565b9190910192915050565b80820180821115610d9157610d91610d36565b60008151808452610f05816020860160208601610e9a565b601f01601f19169290920160200192915050565b604081526000610f2c6040830185610eed565b8281036020840152610f3e8185610eed565b9594505050505056fea2646970667358221220005842dc37dbd897845cbcfe9f4e6a3a96c40520696976ea75177eee321b967464736f6c63430008120033",
    "linkReferences": {}
  },
  "methodIdentifiers": {
    "approveERC1155Token(address,address,bool)": "839a3fde",
    "batchDepositERC1155Tokens(address,uint256[],uint256[])": "71cf7498",
    "batchWithdrawERC1155Token(address,uint256[],uint256[],address)": "36f31eaa",
    "depositERC1155Token(address,uint256,uint256)": "7d926aaa",
    "onERC1155BatchReceived(address,address,uint256[],uint256[],bytes)": "bc197c81",
    "onERC1155Received(address,address,uint256,uint256,bytes)": "f23a6e61",
    "withdrawERC1155Token(address,uint256,uint256,address)": "1795e5f1"
  },
  "id": 4
}