{
  "abi": [
    {
      "inputs": [],
      "name": "EmptyCalldata",
      "type": "error"
    },
    {
      "inputs": [
        {
          "internalType": "bytes4",
          "name": "selector",
          "type": "bytes4"
        }
      ],
      "name": "ImmutableFunction",
      "type": "error"
    },
    {
      "inputs": [],
      "name": "InValidFacetCutAction",
      "type": "error"
    },
    {
      "inputs": [],
      "name": "InitCallFailed",
      "type": "error"
    },
    {
      "inputs": [],
      "name": "MustBeZeroAddress",
      "type": "error"
    },
    {
      "inputs": [],
      "name": "NoCode",
      "type": "error"
    },
    {
      "inputs": [],
      "name": "NoPermissions",
      "type": "error"
    },
    {
      "inputs": [],
      "name": "NoSelectorsInFacet",
      "type": "error"
    },
    {
      "inputs": [],
      "name": "NoZeroAddress",
      "type": "error"
    },
    {
      "inputs": [],
      "name": "NonEmptyCalldata",
      "type": "error"
    },
    {
      "inputs": [
        {
          "internalType": "bytes4",
          "name": "selector",
          "type": "bytes4"
        }
      ],
      "name": "NonExistentSelector",
      "type": "error"
    },
    {
      "inputs": [
        {
          "internalType": "bytes4",
          "name": "selector",
          "type": "bytes4"
        }
      ],
      "name": "SameSelectorReplacement",
      "type": "error"
    },
    {
      "inputs": [
        {
          "internalType": "bytes4",
          "name": "selector",
          "type": "bytes4"
        }
      ],
      "name": "SelectorExists",
      "type": "error"
    },
    {
      "anonymous": false,
      "inputs": [
        {
          "components": [
            {
              "internalType": "address",
              "name": "facetAddress",
              "type": "address"
            },
            {
              "internalType": "enum IDiamondCut.FacetCutAction",
              "name": "action",
              "type": "uint8"
            },
            {
              "internalType": "bytes4[]",
              "name": "functionSelectors",
              "type": "bytes4[]"
            }
          ],
          "indexed": false,
          "internalType": "struct IDiamondCut.FacetCut[]",
          "name": "_diamondCut",
          "type": "tuple[]"
        },
        {
          "indexed": false,
          "internalType": "address",
          "name": "_init",
          "type": "address"
        },
        {
          "indexed": false,
          "internalType": "bytes",
          "name": "_calldata",
          "type": "bytes"
        }
      ],
      "name": "DiamondCut",
      "type": "event"
    },
    {
      "anonymous": false,
      "inputs": [
        {
          "indexed": true,
          "internalType": "bytes32",
          "name": "slott",
          "type": "bytes32"
        }
      ],
      "name": "SlotWrittenTo",
      "type": "event"
    },
    {
      "inputs": [
        {
          "components": [
            {
              "internalType": "address",
              "name": "facetAddress",
              "type": "address"
            },
            {
              "internalType": "enum IDiamondCut.FacetCutAction",
              "name": "action",
              "type": "uint8"
            },
            {
              "internalType": "bytes4[]",
              "name": "functionSelectors",
              "type": "bytes4[]"
            }
          ],
          "internalType": "struct IDiamondCut.FacetCut[]",
          "name": "_diamondCut",
          "type": "tuple[]"
        },
        {
          "internalType": "address",
          "name": "_init",
          "type": "address"
        },
        {
          "internalType": "bytes",
          "name": "_calldata",
          "type": "bytes"
        }
      ],
      "name": "diamondCut",
      "outputs": [],
      "stateMutability": "nonpayable",
      "type": "function"
    },
    {
      "inputs": [],
      "name": "tempOwner",
      "outputs": [
        {
          "internalType": "address",
          "name": "owner_",
          "type": "address"
        }
      ],
      "stateMutability": "view",
      "type": "function"
    }
  ],
  "bytecode": {
    "object": "0x608060405234801561001057600080fd5b50611488806100206000396000f3fe608060405234801561001057600080fd5b50600436106100365760003560e01c80631f931c1c1461003b578063a2a12bfb14610050575b600080fd5b61004e610049366004610e6a565b610074565b005b61005861012d565b6040516001600160a01b03909116815260200160405180910390f35b600061007e61014b565b60018101549091506001600160a01b031632146100ad57604051621cf80b60e71b815260040160405180910390fd5b6100f76100ba8688610fb0565b8585858080601f01602080910402602001604051908101604052809392919081815260200183838082843760009201919091525061024792505050565b604051819081907fea758a5dc298aa5c6654519a7bef61995e50b3ba4767069e0238a28b7f407b2790600090a250505050505050565b60008061013861014b565b600101546001600160a01b031692915050565b60008061020d60405180604001604052600f8152806020016e111a585b5bdb9910dd5d119858d95d608a1b81525060405180604001604052600a81528060200169115490cc8c119858d95d60b21b81525060405180604001604052600b8152806020016a115490cdcc8c519858d95d60aa1b81525060405180604001604052600c8152806020016b115490cc4c4d4d519858d95d60a21b81525060405180604001604052600a8152806020016915985d5b1d119858d95d60b21b815250610418565b905060006040518060200161022190610df9565b601f1982820381018352601f909101166040528051602091909101209190911892915050565b60005b83518110156103cd576000848281518110610267576102676110f4565b6020026020010151602001519050600060028111156102885761028861110a565b81600281111561029a5761029a61110a565b036102e8576102e38583815181106102b4576102b46110f4565b6020026020010151600001518684815181106102d2576102d26110f4565b602002602001015160400151610454565b6103ba565b60018160028111156102fc576102fc61110a565b03610345576102e3858381518110610316576103166110f4565b602002602001015160000151868481518110610334576103346110f4565b6020026020010151604001516105c4565b60028160028111156103595761035961110a565b036103a2576102e3858381518110610373576103736110f4565b602002602001015160000151868481518110610391576103916110f4565b60200260200101516040015161070a565b60405162c5e5d760e31b815260040160405180910390fd5b50806103c581611136565b91505061024a565b507f8faa70878671ccd212d20771b795c50af8fd3ff6cf27f4bde57e5d4de0aeb6738383836040516104019392919061119f565b60405180910390a16104138282610806565b505050565b6000858585858560405160200161043395949392919061129f565b60405160208183030381529060405280519060200120905095945050505050565b60008151116104765760405163092d2fe560e41b815260040160405180910390fd5b6000610480610918565b90506001600160a01b0383166104a95760405163ddbadd5f60e01b815260040160405180910390fd5b6001600160a01b0383166000908152600182016020526040812054906001600160601b03821690036104df576104df8285610975565b60005b835181101561058f5760008482815181106104ff576104ff6110f4565b6020908102919091018101516001600160e01b031981166000908152918690526040909120549091506001600160a01b031680156105615760405163501e70c760e01b81526001600160e01b0319831660048201526024015b60405180910390fd5b61056d8583868a6109c6565b836105778161130c565b9450505050808061058790611136565b9150506104e2565b50604051829081907fea758a5dc298aa5c6654519a7bef61995e50b3ba4767069e0238a28b7f407b2790600090a25050505050565b60008151116105e65760405163092d2fe560e41b815260040160405180910390fd5b60006105f0610918565b90506001600160a01b0383166106195760405163ddbadd5f60e01b815260040160405180910390fd5b6001600160a01b0383166000908152600182016020526040812054906001600160601b038216900361064f5761064f8285610975565b60005b835181101561058f57600084828151811061066f5761066f6110f4565b6020908102919091018101516001600160e01b031981166000908152918690526040909120549091506001600160a01b0390811690871681036106d157604051631c04188b60e31b81526001600160e01b031983166004820152602401610558565b6106dc858284610a66565b6106e88583868a6109c6565b836106f28161130c565b9450505050808061070290611136565b915050610652565b600081511161072c5760405163092d2fe560e41b815260040160405180910390fd5b6000610736610918565b90506001600160a01b0383161561076057604051631be65fe560e21b815260040160405180910390fd5b60005b82518110156107d2576000838281518110610780576107806110f4565b6020908102919091018101516001600160e01b031981166000908152918590526040909120549091506001600160a01b03166107bd848284610a66565b505080806107ca90611136565b915050610763565b50604051819081907fea758a5dc298aa5c6654519a7bef61995e50b3ba4767069e0238a28b7f407b2790600090a250505050565b6001600160a01b038216610838578051156108345760405163c21b1ab760e01b815260040160405180910390fd5b5050565b805160000361085a57604051633011e86160e21b815260040160405180910390fd5b6001600160a01b03821630146108735761087382610da6565b600080836001600160a01b03168360405161088e9190611332565b600060405180830381855af49150503d80600081146108c9576040519150601f19603f3d011682016040523d82523d6000602084013e6108ce565b606091505b509150915081610912578051156108f9578060405162461bcd60e51b8152600401610558919061134e565b604051633a18f8dd60e01b815260040160405180910390fd5b50505050565b60008061020d60405180604001604052600f8152806020016e111a585b5bdb9910dd5d119858d95d608a1b81525060405180604001604052601181528060200170111a585b5bdb99131bdd5c19519858d95d607a1b815250610dc6565b61097e81610da6565b6002820180546001600160a01b0390921660008181526001948501602090815260408220860185905594840183559182529290200180546001600160a01b0319169091179055565b6001600160e01b0319831660008181526020868152604080832080546001600160601b03909716600160a01b026001600160a01b0397881617815594909516808352600180890183529583208054968701815583528183206008870401805460e09890981c60046007909816979097026101000a96870263ffffffff9097021990971695909517909555529290915281546001600160a01b031916179055565b6001600160a01b038216610a9857604051622902d360e91b81526001600160e01b031982166004820152602401610558565b306001600160a01b03831603610acd5760405163069731c560e41b81526001600160e01b031982166004820152602401610558565b6001600160e01b03198116600090815260208481526040808320546001600160a01b0386168452600180880190935290832054600160a01b9091046001600160601b03169291610b1c91611368565b9050808214610c0e576001600160a01b03841660009081526001860160205260408120805483908110610b5157610b516110f4565b600091825260208083206008830401546001600160a01b038916845260018a019091526040909220805460079092166004026101000a90920460e01b925082919085908110610ba257610ba26110f4565b600091825260208083206008830401805463ffffffff60079094166004026101000a938402191660e09590951c929092029390931790556001600160e01b03199290921682528690526040902080546001600160a01b0316600160a01b6001600160601b038516021790555b6001600160a01b03841660009081526001860160205260409020805480610c3757610c37611381565b60008281526020808220600860001990940193840401805463ffffffff600460078716026101000a0219169055919092556001600160e01b03198516825286905260408120819055819003610d9f576002850154600090610c9a90600190611368565b6001600160a01b0386166000908152600180890160205260409091200154909150808214610d49576000876002018381548110610cd957610cd96110f4565b6000918252602090912001546002890180546001600160a01b039092169250829184908110610d0a57610d0a6110f4565b600091825260208083209190910180546001600160a01b0319166001600160a01b03948516179055929091168152600189810190925260409020018190555b86600201805480610d5c57610d5c611381565b60008281526020808220830160001990810180546001600160a01b03191690559092019092556001600160a01b0388168252600189810190915260408220015550505b5050505050565b803b8061083457604051633c11a9c560e21b815260040160405180910390fd5b60008282604051602001610ddb929190611397565b60405160208183030381529060405280519060200120905092915050565b608d806113c683390190565b80356001600160a01b0381168114610e1c57600080fd5b919050565b60008083601f840112610e3357600080fd5b50813567ffffffffffffffff811115610e4b57600080fd5b602083019150836020828501011115610e6357600080fd5b9250929050565b600080600080600060608688031215610e8257600080fd5b853567ffffffffffffffff80821115610e9a57600080fd5b818801915088601f830112610eae57600080fd5b813581811115610ebd57600080fd5b8960208260051b8501011115610ed257600080fd5b60208301975080965050610ee860208901610e05565b94506040880135915080821115610efe57600080fd5b50610f0b88828901610e21565b969995985093965092949392505050565b634e487b7160e01b600052604160045260246000fd5b6040516060810167ffffffffffffffff81118282101715610f5557610f55610f1c565b60405290565b604051601f8201601f1916810167ffffffffffffffff81118282101715610f8457610f84610f1c565b604052919050565b600067ffffffffffffffff821115610fa657610fa6610f1c565b5060051b60200190565b6000610fc3610fbe84610f8c565b610f5b565b83815260208082019190600586811b860136811115610fe157600080fd5b865b818110156110e757803567ffffffffffffffff808211156110045760008081fd5b818a0191506060823603121561101a5760008081fd5b611022610f32565b61102b83610e05565b8152868301356003811061103f5760008081fd5b81880152604083810135838111156110575760008081fd5b939093019236601f85011261106e57600092508283fd5b8335925061107e610fbe84610f8c565b83815292871b8401880192888101903685111561109b5760008081fd5b948901945b848610156110d05785356001600160e01b0319811681146110c15760008081fd5b825294890194908901906110a0565b918301919091525088525050948301948301610fe3565b5092979650505050505050565b634e487b7160e01b600052603260045260246000fd5b634e487b7160e01b600052602160045260246000fd5b634e487b7160e01b600052601160045260246000fd5b60006001820161114857611148611120565b5060010190565b60005b8381101561116a578181015183820152602001611152565b50506000910152565b6000815180845261118b81602086016020860161114f565b601f01601f19169290920160200192915050565b60006060808301818452808751808352608092508286019150828160051b8701016020808b0160005b8481101561126f57898403607f19018652815180516001600160a01b0316855283810151898601906003811061120e57634e487b7160e01b600052602160045260246000fd5b868601526040918201519186018a905281519081905290840190600090898701905b8083101561125a5783516001600160e01b0319168252928601926001929092019190860190611230565b509785019795505050908201906001016111c8565b50506001600160a01b038a169088015286810360408801526112918189611173565b9a9950505050505050505050565b60a0815260006112b260a0830188611173565b82810360208401526112c48188611173565b905082810360408401526112d88187611173565b905082810360608401526112ec8186611173565b905082810360808401526113008185611173565b98975050505050505050565b60006001600160601b0380831681810361132857611328611120565b6001019392505050565b6000825161134481846020870161114f565b9190910192915050565b6020815260006113616020830184611173565b9392505050565b8181038181111561137b5761137b611120565b92915050565b634e487b7160e01b600052603160045260246000fd5b6040815260006113aa6040830185611173565b82810360208401526113bc8185611173565b9594505050505056fe60566037600b82828239805160001a607314602a57634e487b7160e01b600052600060045260246000fd5b30600052607381538281f3fe73000000000000000000000000000000000000000030146080604052600080fdfea2646970667358221220d3490995da7c482656cf5299d05897e7ad36d1e947ab8134ff8177e69fb907fa64736f6c63430008120033a264697066735822122037ed7d1c857009b4c82c663116b429fdf3530cac433564124d14002833a96a5264736f6c63430008120033",
    "linkReferences": {}
  },
  "methodIdentifiers": {
    "diamondCut((address,uint8,bytes4[])[],address,bytes)": "1f931c1c",
    "tempOwner()": "a2a12bfb"
  },
  "id": 1
}