{
  "abi": [
    {
      "inputs": [],
      "name": "EmptyCalldata",
      "type": "error"
    },
    {
      "inputs": [
        {
          "internalType": "bytes4",
          "name": "selector",
          "type": "bytes4"
        }
      ],
      "name": "ImmutableFunction",
      "type": "error"
    },
    {
      "inputs": [],
      "name": "InValidFacetCutAction",
      "type": "error"
    },
    {
      "inputs": [],
      "name": "InitCallFailed",
      "type": "error"
    },
    {
      "inputs": [],
      "name": "MustBeZeroAddress",
      "type": "error"
    },
    {
      "inputs": [],
      "name": "NoCode",
      "type": "error"
    },
    {
      "inputs": [],
      "name": "NoSelectorsInFacet",
      "type": "error"
    },
    {
      "inputs": [],
      "name": "NoZeroAddress",
      "type": "error"
    },
    {
      "inputs": [],
      "name": "NonEmptyCalldata",
      "type": "error"
    },
    {
      "inputs": [
        {
          "internalType": "bytes4",
          "name": "selector",
          "type": "bytes4"
        }
      ],
      "name": "NonExistentSelector",
      "type": "error"
    },
    {
      "inputs": [],
      "name": "NotVaultOwner",
      "type": "error"
    },
    {
      "inputs": [
        {
          "internalType": "bytes4",
          "name": "selector",
          "type": "bytes4"
        }
      ],
      "name": "SameSelectorReplacement",
      "type": "error"
    },
    {
      "inputs": [
        {
          "internalType": "bytes4",
          "name": "selector",
          "type": "bytes4"
        }
      ],
      "name": "SelectorExists",
      "type": "error"
    },
    {
      "anonymous": false,
      "inputs": [
        {
          "components": [
            {
              "internalType": "address",
              "name": "facetAddress",
              "type": "address"
            },
            {
              "internalType": "enum IDiamondCut.FacetCutAction",
              "name": "action",
              "type": "uint8"
            },
            {
              "internalType": "bytes4[]",
              "name": "functionSelectors",
              "type": "bytes4[]"
            }
          ],
          "indexed": false,
          "internalType": "struct IDiamondCut.FacetCut[]",
          "name": "_diamondCut",
          "type": "tuple[]"
        },
        {
          "indexed": false,
          "internalType": "address",
          "name": "_init",
          "type": "address"
        },
        {
          "indexed": false,
          "internalType": "bytes",
          "name": "_calldata",
          "type": "bytes"
        }
      ],
      "name": "DiamondCut",
      "type": "event"
    },
    {
      "inputs": [
        {
          "components": [
            {
              "internalType": "address",
              "name": "facetAddress",
              "type": "address"
            },
            {
              "internalType": "enum IDiamondCut.FacetCutAction",
              "name": "action",
              "type": "uint8"
            },
            {
              "internalType": "bytes4[]",
              "name": "functionSelectors",
              "type": "bytes4[]"
            }
          ],
          "internalType": "struct IDiamondCut.FacetCut[]",
          "name": "_diamondCut",
          "type": "tuple[]"
        },
        {
          "internalType": "address",
          "name": "_init",
          "type": "address"
        },
        {
          "internalType": "bytes",
          "name": "_calldata",
          "type": "bytes"
        }
      ],
      "name": "diamondCut",
      "outputs": [],
      "stateMutability": "nonpayable",
      "type": "function"
    }
  ],
  "bytecode": {
    "object": "0x608060405234801561001057600080fd5b50611199806100206000396000f3fe608060405234801561001057600080fd5b506004361061002b5760003560e01c80631f931c1c14610030575b600080fd5b61004361003e366004610c75565b610045565b005b61004d61009e565b61009761005a8587610dbb565b8484848080601f0160208091040260200160405190810160405280939291908181526020018383808284376000920191909152506100a892505050565b5050505050565b6100a6610279565b565b60005b835181101561022e5760008482815181106100c8576100c8610eff565b6020026020010151602001519050600060028111156100e9576100e9610f15565b8160028111156100fb576100fb610f15565b036101495761014485838151811061011557610115610eff565b60200260200101516000015186848151811061013357610133610eff565b6020026020010151604001516102ad565b61021b565b600181600281111561015d5761015d610f15565b036101a65761014485838151811061017757610177610eff565b60200260200101516000015186848151811061019557610195610eff565b6020026020010151604001516103e8565b60028160028111156101ba576101ba610f15565b03610203576101448583815181106101d4576101d4610eff565b6020026020010151600001518684815181106101f2576101f2610eff565b60200260200101516040015161052e565b60405162c5e5d760e31b815260040160405180910390fd5b508061022681610f41565b9150506100ab565b507f8faa70878671ccd212d20771b795c50af8fd3ff6cf27f4bde57e5d4de0aeb67383838360405161026293929190610faa565b60405180910390a161027482826105fc565b505050565b610281610708565b600501546001600160a01b031633146100a657604051630e7fea9d60e01b815260040160405180910390fd5b60008151116102cf5760405163092d2fe560e41b815260040160405180910390fd5b60006102d9610708565b90506001600160a01b0383166103025760405163ddbadd5f60e01b815260040160405180910390fd5b6001600160a01b0383166000908152600182016020526040812054906001600160601b038216900361033857610338828561078d565b60005b835181101561009757600084828151811061035857610358610eff565b6020908102919091018101516001600160e01b031981166000908152918690526040909120549091506001600160a01b031680156103ba5760405163501e70c760e01b81526001600160e01b0319831660048201526024015b60405180910390fd5b6103c68583868a6107de565b836103d0816110aa565b945050505080806103e090610f41565b91505061033b565b600081511161040a5760405163092d2fe560e41b815260040160405180910390fd5b6000610414610708565b90506001600160a01b03831661043d5760405163ddbadd5f60e01b815260040160405180910390fd5b6001600160a01b0383166000908152600182016020526040812054906001600160601b038216900361047357610473828561078d565b60005b835181101561009757600084828151811061049357610493610eff565b6020908102919091018101516001600160e01b031981166000908152918690526040909120549091506001600160a01b0390811690871681036104f557604051631c04188b60e31b81526001600160e01b0319831660048201526024016103b1565b61050085828461087e565b61050c8583868a6107de565b83610516816110aa565b9450505050808061052690610f41565b915050610476565b60008151116105505760405163092d2fe560e41b815260040160405180910390fd5b600061055a610708565b90506001600160a01b0383161561058457604051631be65fe560e21b815260040160405180910390fd5b60005b82518110156105f65760008382815181106105a4576105a4610eff565b6020908102919091018101516001600160e01b031981166000908152918590526040909120549091506001600160a01b03166105e184828461087e565b505080806105ee90610f41565b915050610587565b50505050565b6001600160a01b03821661062e5780511561062a5760405163c21b1ab760e01b815260040160405180910390fd5b5050565b805160000361065057604051633011e86160e21b815260040160405180910390fd5b6001600160a01b03821630146106695761066982610bbd565b600080836001600160a01b03168360405161068491906110d0565b600060405180830381855af49150503d80600081146106bf576040519150601f19603f3d011682016040523d82523d6000602084013e6106c4565b606091505b5091509150816105f6578051156106ef578060405162461bcd60e51b81526004016103b191906110ec565b604051633a18f8dd60e01b815260040160405180910390fd5b60008061076560405180604001604052600f8152806020016e111a585b5bdb9910dd5d119858d95d608a1b81525060405180604001604052601181528060200170111a585b5bdb99131bdd5c19519858d95d607a1b815250610bdd565b7f7f9df2342d5c190c7450de83944c941641ce57327a12faebc868644d2853cdbf1892915050565b61079681610bbd565b6003820180546001600160a01b0390921660008181526001948501602090815260408220860185905594840183559182529290200180546001600160a01b0319169091179055565b6001600160e01b0319831660008181526020868152604080832080546001600160601b03909716600160a01b026001600160a01b0397881617815594909516808352600180890183529583208054968701815583528183206008870401805460e09890981c60046007909816979097026101000a96870263ffffffff9097021990971695909517909555529290915281546001600160a01b031916179055565b6001600160a01b0382166108b057604051622902d360e91b81526001600160e01b0319821660048201526024016103b1565b306001600160a01b038316036108e55760405163069731c560e41b81526001600160e01b0319821660048201526024016103b1565b6001600160e01b03198116600090815260208481526040808320546001600160a01b0386168452600180880190935290832054600160a01b9091046001600160601b0316929161093491611106565b9050808214610a26576001600160a01b0384166000908152600186016020526040812080548390811061096957610969610eff565b600091825260208083206008830401546001600160a01b038916845260018a019091526040909220805460079092166004026101000a90920460e01b9250829190859081106109ba576109ba610eff565b600091825260208083206008830401805463ffffffff60079094166004026101000a938402191660e09590951c929092029390931790556001600160e01b03199290921682528690526040902080546001600160a01b0316600160a01b6001600160601b038516021790555b6001600160a01b03841660009081526001860160205260409020805480610a4f57610a4f61111f565b60008281526020808220600860001990940193840401805463ffffffff600460078716026101000a0219169055919092556001600160e01b03198516825286905260408120819055819003610097576003850154600090610ab290600190611106565b6001600160a01b0386166000908152600180890160205260409091200154909150808214610b61576000876003018381548110610af157610af1610eff565b6000918252602090912001546003890180546001600160a01b039092169250829184908110610b2257610b22610eff565b600091825260208083209190910180546001600160a01b0319166001600160a01b03948516179055929091168152600189810190925260409020018190555b86600301805480610b7457610b7461111f565b60008281526020808220830160001990810180546001600160a01b03191690559092019092556001600160a01b0388168252600189810190915260408220015550505050505050565b803b8061062a57604051633c11a9c560e21b815260040160405180910390fd5b60008282604051602001610bf2929190611135565b60405160208183030381529060405280519060200120905092915050565b80356001600160a01b0381168114610c2757600080fd5b919050565b60008083601f840112610c3e57600080fd5b50813567ffffffffffffffff811115610c5657600080fd5b602083019150836020828501011115610c6e57600080fd5b9250929050565b600080600080600060608688031215610c8d57600080fd5b853567ffffffffffffffff80821115610ca557600080fd5b818801915088601f830112610cb957600080fd5b813581811115610cc857600080fd5b8960208260051b8501011115610cdd57600080fd5b60208301975080965050610cf360208901610c10565b94506040880135915080821115610d0957600080fd5b50610d1688828901610c2c565b969995985093965092949392505050565b634e487b7160e01b600052604160045260246000fd5b6040516060810167ffffffffffffffff81118282101715610d6057610d60610d27565b60405290565b604051601f8201601f1916810167ffffffffffffffff81118282101715610d8f57610d8f610d27565b604052919050565b600067ffffffffffffffff821115610db157610db1610d27565b5060051b60200190565b6000610dce610dc984610d97565b610d66565b83815260208082019190600586811b860136811115610dec57600080fd5b865b81811015610ef257803567ffffffffffffffff80821115610e0f5760008081fd5b818a01915060608236031215610e255760008081fd5b610e2d610d3d565b610e3683610c10565b81528683013560038110610e4a5760008081fd5b8188015260408381013583811115610e625760008081fd5b939093019236601f850112610e7957600092508283fd5b83359250610e89610dc984610d97565b83815292871b84018801928881019036851115610ea65760008081fd5b948901945b84861015610edb5785356001600160e01b031981168114610ecc5760008081fd5b82529489019490890190610eab565b918301919091525088525050948301948301610dee565b5092979650505050505050565b634e487b7160e01b600052603260045260246000fd5b634e487b7160e01b600052602160045260246000fd5b634e487b7160e01b600052601160045260246000fd5b600060018201610f5357610f53610f2b565b5060010190565b60005b83811015610f75578181015183820152602001610f5d565b50506000910152565b60008151808452610f96816020860160208601610f5a565b601f01601f19169290920160200192915050565b60006060808301818452808751808352608092508286019150828160051b8701016020808b0160005b8481101561107a57898403607f19018652815180516001600160a01b0316855283810151898601906003811061101957634e487b7160e01b600052602160045260246000fd5b868601526040918201519186018a905281519081905290840190600090898701905b808310156110655783516001600160e01b031916825292860192600192909201919086019061103b565b50978501979550505090820190600101610fd3565b50506001600160a01b038a1690880152868103604088015261109c8189610f7e565b9a9950505050505050505050565b60006001600160601b038083168181036110c6576110c6610f2b565b6001019392505050565b600082516110e2818460208701610f5a565b9190910192915050565b6020815260006110ff6020830184610f7e565b9392505050565b8181038181111561111957611119610f2b565b92915050565b634e487b7160e01b600052603160045260246000fd5b6040815260006111486040830185610f7e565b828103602084015261115a8185610f7e565b9594505050505056fea2646970667358221220f04d6edb31ee5090d56884efc84a94a6d1153ace8ccb645cee91d19cd7e3342664736f6c63430008120033",
    "linkReferences": {}
  },
  "methodIdentifiers": {
    "diamondCut((address,uint8,bytes4[])[],address,bytes)": "1f931c1c"
  },
  "id": 2
}