{
  "abi": [
    {
      "inputs": [],
      "name": "AmountMismatch",
      "type": "error"
    },
    {
      "inputs": [],
      "name": "EthWithdrawalError",
      "type": "error"
    },
    {
      "inputs": [],
      "name": "InsufficientEth",
      "type": "error"
    },
    {
      "inputs": [],
      "name": "NotVaultOwner",
      "type": "error"
    },
    {
      "inputs": [
        {
          "internalType": "uint256",
          "name": "_amount",
          "type": "uint256"
        }
      ],
      "name": "depositEther",
      "outputs": [],
      "stateMutability": "payable",
      "type": "function"
    },
    {
      "inputs": [
        {
          "internalType": "uint256",
          "name": "_amount",
          "type": "uint256"
        },
        {
          "internalType": "address",
          "name": "_to",
          "type": "address"
        }
      ],
      "name": "withdrawEther",
      "outputs": [],
      "stateMutability": "nonpayable",
      "type": "function"
    }
  ],
  "bytecode": {
    "object": "0x608060405234801561001057600080fd5b506105fa806100206000396000f3fe6080604052600436106100295760003560e01c806326839f171461002e578063ce56c45414610043575b600080fd5b61004161003c36600461044e565b610063565b005b34801561004f57600080fd5b5061004161005e366004610467565b61006f565b61006c81610085565b50565b6100776100f9565b6100818282610103565b5050565b3481146100a5576040516355e97b0d60e01b815260040160405180910390fd5b7f68e6c1885896ef6bee8fc3c844a09f7f4216386f01abba29307b8914c078ad1081336100d0610247565b604080519384526001600160a01b0390921660208401529082015260600160405180910390a150565b61010161025a565b565b604080518082019091526003815262444d5360e81b602082015247906101289061028e565b156101685760006101376102c7565b905061014381836104b9565b9150818411156101665760405163500d4efb60e11b815260040160405180910390fd5b505b8281106101d8576000826001600160a01b03168460405160006040518083038185875af1925050503d80600081146101bc576040519150601f19603f3d011682016040523d82523d6000602084013e6101c1565b606091505b50509050806101d2576101d26104d2565b506101f1565b604051631c79d6cd60e11b815260040160405180910390fd5b7f118315e777ba73caf1c37255d332d12ed062905ad925a41183238e39cdfa0442838361021c610247565b604080519384526001600160a01b0390921660208401529082015260600160405180910390a1505050565b6000610251610346565b60040154905090565b610262610346565b600501546001600160a01b0316331461010157604051630e7fea9d60e01b815260040160405180910390fd5b600080610299610346565b905080600901836040516102ad919061050c565b9081526040519081900360200190205460ff169392505050565b6000806102d26103cb565b90506000805b825481101561033f578260020160008460000183815481106102fc576102fc610528565b60009182526020808320909101546001600160a01b0316835282019290925260400190205461032b908361053e565b91508061033781610551565b9150506102d8565b5092915050565b6000806103a360405180604001604052600f8152806020016e111a585b5bdb9910dd5d119858d95d608a1b81525060405180604001604052601181528060200170111a585b5bdb99131bdd5c19519858d95d607a1b81525061041b565b7f7f9df2342d5c190c7450de83944c941641ce57327a12faebc868644d2853cdbf1892915050565b6000806103a360405180604001604052600f8152806020016e111a585b5bdb9910dd5d119858d95d608a1b81525060405180604001604052600881528060200167111354d19858d95d60c21b8152505b60008282604051602001610430929190610596565b60405160208183030381529060405280519060200120905092915050565b60006020828403121561046057600080fd5b5035919050565b6000806040838503121561047a57600080fd5b8235915060208301356001600160a01b038116811461049857600080fd5b809150509250929050565b634e487b7160e01b600052601160045260246000fd5b818103818111156104cc576104cc6104a3565b92915050565b634e487b7160e01b600052600160045260246000fd5b60005b838110156105035781810151838201526020016104eb565b50506000910152565b6000825161051e8184602087016104e8565b9190910192915050565b634e487b7160e01b600052603260045260246000fd5b808201808211156104cc576104cc6104a3565b600060018201610563576105636104a3565b5060010190565b600081518084526105828160208601602086016104e8565b601f01601f19169290920160200192915050565b6040815260006105a9604083018561056a565b82810360208401526105bb818561056a565b9594505050505056fea26469706673582212204c00ecf283d0cee651ba6b0ba73813a38a6bac7d6d34a719b1305c30e7f5690e64736f6c63430008120033",
    "linkReferences": {}
  },
  "methodIdentifiers": {
    "depositEther(uint256)": "26839f17",
    "withdrawEther(uint256,address)": "ce56c454"
  },
  "id": 7
}