{
  "abi": [
    {
      "inputs": [],
      "name": "HasExpired",
      "type": "error"
    },
    {
      "inputs": [],
      "name": "NotERC721Owner",
      "type": "error"
    },
    {
      "inputs": [],
      "name": "NotVaultOwner",
      "type": "error"
    },
    {
      "inputs": [
        {
          "internalType": "address",
          "name": "_token",
          "type": "address"
        },
        {
          "internalType": "address",
          "name": "_to",
          "type": "address"
        },
        {
          "internalType": "bool",
          "name": "_approved",
          "type": "bool"
        }
      ],
      "name": "approveAllERC721Token",
      "outputs": [],
      "stateMutability": "nonpayable",
      "type": "function"
    },
    {
      "inputs": [
        {
          "internalType": "address",
          "name": "_token",
          "type": "address"
        },
        {
          "internalType": "address",
          "name": "_to",
          "type": "address"
        },
        {
          "internalType": "uint256",
          "name": "_tokenID",
          "type": "uint256"
        }
      ],
      "name": "approveSingleERC721Token",
      "outputs": [],
      "stateMutability": "nonpayable",
      "type": "function"
    },
    {
      "inputs": [
        {
          "internalType": "address",
          "name": "_token",
          "type": "address"
        },
        {
          "internalType": "uint256",
          "name": "_tokenID",
          "type": "uint256"
        }
      ],
      "name": "depositERC721Token",
      "outputs": [],
      "stateMutability": "nonpayable",
      "type": "function"
    },
    {
      "inputs": [
        {
          "internalType": "address",
          "name": "_token",
          "type": "address"
        },
        {
          "internalType": "uint256[]",
          "name": "_tokenIDs",
          "type": "uint256[]"
        }
      ],
      "name": "depositERC721Tokens",
      "outputs": [],
      "stateMutability": "nonpayable",
      "type": "function"
    },
    {
      "inputs": [
        {
          "internalType": "address",
          "name": "_inheritor",
          "type": "address"
        }
      ],
      "name": "getAllocatedERC721TokenAddresses",
      "outputs": [
        {
          "internalType": "address[]",
          "name": "",
          "type": "address[]"
        }
      ],
      "stateMutability": "view",
      "type": "function"
    },
    {
      "inputs": [
        {
          "internalType": "address",
          "name": "_inheritor",
          "type": "address"
        },
        {
          "internalType": "address",
          "name": "_token",
          "type": "address"
        }
      ],
      "name": "getAllocatedERC721TokenIds",
      "outputs": [
        {
          "internalType": "uint256[]",
          "name": "",
          "type": "uint256[]"
        }
      ],
      "stateMutability": "view",
      "type": "function"
    },
    {
      "inputs": [
        {
          "internalType": "address",
          "name": "_inheritor",
          "type": "address"
        }
      ],
      "name": "getAllocatedERC721Tokens",
      "outputs": [
        {
          "components": [
            {
              "internalType": "address",
              "name": "token",
              "type": "address"
            },
            {
              "internalType": "uint256[]",
              "name": "tokenIDs",
              "type": "uint256[]"
            }
          ],
          "internalType": "struct ERC721Facet.AllocatedERC721Tokens[]",
          "name": "allocated",
          "type": "tuple[]"
        }
      ],
      "stateMutability": "view",
      "type": "function"
    },
    {
      "inputs": [
        {
          "internalType": "address",
          "name": "",
          "type": "address"
        },
        {
          "internalType": "address",
          "name": "",
          "type": "address"
        },
        {
          "internalType": "uint256",
          "name": "",
          "type": "uint256"
        },
        {
          "internalType": "bytes",
          "name": "",
          "type": "bytes"
        }
      ],
      "name": "onERC721Received",
      "outputs": [
        {
          "internalType": "bytes4",
          "name": "",
          "type": "bytes4"
        }
      ],
      "stateMutability": "pure",
      "type": "function"
    },
    {
      "inputs": [
        {
          "internalType": "address",
          "name": "_token",
          "type": "address"
        },
        {
          "internalType": "uint256",
          "name": "_tokenID",
          "type": "uint256"
        }
      ],
      "name": "safeDepositERC721Token",
      "outputs": [],
      "stateMutability": "nonpayable",
      "type": "function"
    },
    {
      "inputs": [
        {
          "internalType": "address",
          "name": "_token",
          "type": "address"
        },
        {
          "internalType": "uint256",
          "name": "_tokenID",
          "type": "uint256"
        },
        {
          "internalType": "bytes",
          "name": "data",
          "type": "bytes"
        }
      ],
      "name": "safeDepositERC721TokenAndCall",
      "outputs": [],
      "stateMutability": "nonpayable",
      "type": "function"
    },
    {
      "inputs": [
        {
          "internalType": "address",
          "name": "_token",
          "type": "address"
        },
        {
          "internalType": "uint256",
          "name": "_tokenID",
          "type": "uint256"
        },
        {
          "internalType": "address",
          "name": "_to",
          "type": "address"
        }
      ],
      "name": "withdrawERC721Token",
      "outputs": [],
      "stateMutability": "nonpayable",
      "type": "function"
    }
  ],
  "bytecode": {
    "object": "0x608060405234801561001057600080fd5b506112ad806100206000396000f3fe608060405234801561001057600080fd5b50600436106100a95760003560e01c80637a4f8e2d116100715780637a4f8e2d146101525780638154feb314610165578063902bad541461017857806396a8ef9e1461018b578063b045e60a1461019e578063f2b20dab146101be57600080fd5b8063150b7a02146100ae57806328bedb51146100ea5780632f4eaf4b146100ff57806368716d5c1461011f5780636c975b8f1461013f575b600080fd5b6100cc6100bc366004610bfe565b635c46a7ef60e11b949350505050565b6040516001600160e01b031990911681526020015b60405180910390f35b6100fd6100f8366004610cde565b6101d1565b005b61011261010d366004610d0a565b6101df565b6040516100e19190610d43565b61013261012d366004610d87565b610272565b6040516100e19190610dab565b6100fd61014d366004610cde565b610433565b6100fd610160366004610e54565b61043d565b6100fd610173366004610ea4565b610455565b6100fd610186366004610ee5565b610468565b6100fd610199366004610f6e565b61047a565b6101b16101ac366004610d87565b61048d565b6040516100e19190610fa5565b6100fd6101cc366004610fe6565b61051c565b6101db828261055b565b5050565b606060006101eb61061c565b90506101f684610718565b506001600160a01b03808516600090815260118301602090815260408083209387168352928152908290208054835181840281018401909452808452909183018282801561026357602002820191906000526020600020905b81548152602001906001019080831161024f575b50505050509150505b92915050565b6060600061027e61061c565b905061028983610718565b506001600160a01b0383166000908152600e82016020526040902054801561042c578067ffffffffffffffff8111156102c4576102c4610be8565b60405190808252806020026020018201604052801561030a57816020015b6040805180820190915260008152606060208201528152602001906001900390816102e25790505b50925060005b8181101561042a576001600160a01b0385166000908152600e8401602052604081208054839081106103445761034461106e565b9060005260206000200160009054906101000a90046001600160a01b03169050808583815181106103775761037761106e565b6020908102919091018101516001600160a01b039283169052878216600090815260118701825260408082209385168252928252829020805483518184028101840190945280845290918301828280156103f057602002820191906000526020600020905b8154815260200190600101908083116103dc575b50505050508583815181106104075761040761106e565b6020026020010151602001819052505080806104229061109a565b915050610310565b505b5050919050565b6101db8282610763565b6104456107a4565b6104508383836107ae565b505050565b61045d6107a4565b61045083828461081f565b6104748484848461085c565b50505050565b6104826107a4565b6104508383836108d0565b6060600061049961061c565b90506104a483610718565b506001600160a01b0383166000908152600e820160209081526040918290208054835181840281018401909452808452909183018282801561050f57602002820191906000526020600020905b81546001600160a01b031681526001909101906020018083116104f1575b5050505050915050919050565b60005b81811015610474576105498484848481811061053d5761053d61106e565b9050602002013561055b565b806105538161109a565b91505061051f565b610563610b03565b6040516323b872dd60e01b8152336004820152306024820152604481018290526001600160a01b038316906323b872dd906064015b600060405180830381600087803b1580156105b257600080fd5b505af11580156105c6573d6000803e3d6000fd5b5033925050506001600160a01b0383167f3349b5522bbd89c651e27d290dfa825aae569b7cec38fbbb70eca23412080aff83610600610b45565b6040805192835260208301919091520160405180910390a35050565b6000806106de60405180604001604052600f8152806020016e111a585b5bdb9910dd5d119858d95d608a1b81525060405180604001604052600a81528060200169115490cc8c119858d95d60b21b81525060405180604001604052600b8152806020016a115490cdcc8c519858d95d60aa1b81525060405180604001604052600c8152806020016b115490cc4c4d4d519858d95d60a21b81525060405180604001604052600a8152806020016915985d5b1d119858d95d60b21b815250610b57565b90506000604051806020016106f290610bc7565b601f1982820381018352601f909101166040528051602091909101209190911892915050565b60008061072361061c565b90506001600160a01b03831661073c576001915061075d565b6001600160a01b038316600090815260058201602052604090205460ff1691505b50919050565b61076b610b03565b604051632142170760e11b8152336004820152306024820152604481018290526001600160a01b038316906342842e0e90606401610598565b6107ac610b93565b565b6107b6610b03565b60405163a22cb46560e01b81526001600160a01b038381166004830152821515602483015284169063a22cb465906044015b600060405180830381600087803b15801561080257600080fd5b505af1158015610816573d6000803e3d6000fd5b50505050505050565b610827610b03565b60405163095ea7b360e01b81526001600160a01b0382811660048301526024820184905284169063095ea7b3906044016107e8565b610864610b03565b604051635c46a7ef60e11b81526001600160a01b0385169063b88d4fde9061089890339030908890889088906004016110b3565b600060405180830381600087803b1580156108b257600080fd5b505af11580156108c6573d6000803e3d6000fd5b5050505050505050565b6040516331a9108f60e11b81526004810183905230906001600160a01b03851690636352211e90602401602060405180830381865afa158015610917573d6000803e3d6000fd5b505050506040513d601f19601f8201168201806040525081019061093b9190611107565b6001600160a01b0316146109625760405163fa10c0e760e01b815260040160405180910390fd5b600061096c61061c565b6001600160a01b0385166000908152600d82016020908152604080832087845290915290205490915060ff16156109e25760405162461bcd60e51b8152602060048201526016602482015275155b905b1b1bd8d85d1948151bdad95b88119a5c9cdd60521b604482015260640160405180910390fd5b604051632142170760e11b81523060048201526001600160a01b038381166024830152604482018590528516906342842e0e90606401600060405180830381600087803b158015610a3257600080fd5b505af1925050508015610a43575060015b6104745760608051600003610ac0577f2a5e9fd1df3e89bedde4cc41639c8476fe31415840cbbefcbc154d391f5dbf26858585610a7e610b45565b604051610ab394939291906001600160a01b039485168152602081019390935292166040820152606081019190915260800190565b60405180910390a1610afd565b6040516001600160a01b03861681527f264066262da93aa69602b0a0cb8e34b47cc1664e376885797a71a6e887e786b59060200160405180910390a15b50610474565b6000610b0d61061c565b905062dd7c00816002015442610b239190611124565b1115610b4257604051633d36c2e560e01b815260040160405180910390fd5b50565b600080610b5061061c565b5492915050565b60008585858585604051602001610b7295949392919061117d565b60405160208183030381529060405280519060200120905095945050505050565b610b9b61061c565b600101546001600160a01b031633146107ac57604051630e7fea9d60e01b815260040160405180910390fd5b608d806111eb83390190565b6001600160a01b0381168114610b4257600080fd5b634e487b7160e01b600052604160045260246000fd5b60008060008060808587031215610c1457600080fd5b8435610c1f81610bd3565b93506020850135610c2f81610bd3565b925060408501359150606085013567ffffffffffffffff80821115610c5357600080fd5b818701915087601f830112610c6757600080fd5b813581811115610c7957610c79610be8565b604051601f8201601f19908116603f01168101908382118183101715610ca157610ca1610be8565b816040528281528a6020848701011115610cba57600080fd5b82602086016020830137600060208483010152809550505050505092959194509250565b60008060408385031215610cf157600080fd5b8235610cfc81610bd3565b946020939093013593505050565b60008060408385031215610d1d57600080fd5b8235610d2881610bd3565b91506020830135610d3881610bd3565b809150509250929050565b6020808252825182820181905260009190848201906040850190845b81811015610d7b57835183529284019291840191600101610d5f565b50909695505050505050565b600060208284031215610d9957600080fd5b8135610da481610bd3565b9392505050565b60006020808301818452808551808352604092508286019150828160051b8701018488016000805b84811015610e4557898403603f19018652825180516001600160a01b03168552880151888501889052805188860181905290890190839060608701905b80831015610e305783518252928b019260019290920191908b0190610e10565b50978a01979550505091870191600101610dd3565b50919998505050505050505050565b600080600060608486031215610e6957600080fd5b8335610e7481610bd3565b92506020840135610e8481610bd3565b915060408401358015158114610e9957600080fd5b809150509250925092565b600080600060608486031215610eb957600080fd5b8335610ec481610bd3565b92506020840135610ed481610bd3565b929592945050506040919091013590565b60008060008060608587031215610efb57600080fd5b8435610f0681610bd3565b935060208501359250604085013567ffffffffffffffff80821115610f2a57600080fd5b818701915087601f830112610f3e57600080fd5b813581811115610f4d57600080fd5b886020828501011115610f5f57600080fd5b95989497505060200194505050565b600080600060608486031215610f8357600080fd5b8335610f8e81610bd3565b9250602084013591506040840135610e9981610bd3565b6020808252825182820181905260009190848201906040850190845b81811015610d7b5783516001600160a01b031683529284019291840191600101610fc1565b600080600060408486031215610ffb57600080fd5b833561100681610bd3565b9250602084013567ffffffffffffffff8082111561102357600080fd5b818601915086601f83011261103757600080fd5b81358181111561104657600080fd5b8760208260051b850101111561105b57600080fd5b6020830194508093505050509250925092565b634e487b7160e01b600052603260045260246000fd5b634e487b7160e01b600052601160045260246000fd5b6000600182016110ac576110ac611084565b5060010190565b6001600160a01b038681168252851660208201526040810184905260806060820181905281018290526000828460a0840137600060a0848401015260a0601f19601f85011683010190509695505050505050565b60006020828403121561111957600080fd5b8151610da481610bd3565b8181038181111561026c5761026c611084565b6000815180845260005b8181101561115d57602081850181015186830182015201611141565b506000602082860101526020601f19601f83011685010191505092915050565b60a08152600061119060a0830188611137565b82810360208401526111a28188611137565b905082810360408401526111b68187611137565b905082810360608401526111ca8186611137565b905082810360808401526111de8185611137565b9897505050505050505056fe60566037600b82828239805160001a607314602a57634e487b7160e01b600052600060045260246000fd5b30600052607381538281f3fe73000000000000000000000000000000000000000030146080604052600080fdfea2646970667358221220d3490995da7c482656cf5299d05897e7ad36d1e947ab8134ff8177e69fb907fa64736f6c63430008120033a26469706673582212208595f21c9676dd675cb7bd0c41699147c80b6af1cb592d990ae61f0fa38a125164736f6c63430008120033",
    "linkReferences": {}
  },
  "methodIdentifiers": {
    "approveAllERC721Token(address,address,bool)": "7a4f8e2d",
    "approveSingleERC721Token(address,address,uint256)": "8154feb3",
    "depositERC721Token(address,uint256)": "28bedb51",
    "depositERC721Tokens(address,uint256[])": "f2b20dab",
    "getAllocatedERC721TokenAddresses(address)": "b045e60a",
    "getAllocatedERC721TokenIds(address,address)": "2f4eaf4b",
    "getAllocatedERC721Tokens(address)": "68716d5c",
    "onERC721Received(address,address,uint256,bytes)": "150b7a02",
    "safeDepositERC721Token(address,uint256)": "6c975b8f",
    "safeDepositERC721TokenAndCall(address,uint256,bytes)": "902bad54",
    "withdrawERC721Token(address,uint256,address)": "96a8ef9e"
  },
  "id": 5
}