{
  "abi": [
    {
      "inputs": [],
      "name": "NotERC721Owner",
      "type": "error"
    },
    {
      "inputs": [],
      "name": "NotVaultOwner",
      "type": "error"
    },
    {
      "inputs": [
        {
          "internalType": "address",
          "name": "_token",
          "type": "address"
        },
        {
          "internalType": "address",
          "name": "_to",
          "type": "address"
        },
        {
          "internalType": "bool",
          "name": "_approved",
          "type": "bool"
        }
      ],
      "name": "approveAllERC721Token",
      "outputs": [],
      "stateMutability": "nonpayable",
      "type": "function"
    },
    {
      "inputs": [
        {
          "internalType": "address",
          "name": "_token",
          "type": "address"
        },
        {
          "internalType": "address",
          "name": "_to",
          "type": "address"
        },
        {
          "internalType": "uint256",
          "name": "_tokenID",
          "type": "uint256"
        }
      ],
      "name": "approveSingleERC721Token",
      "outputs": [],
      "stateMutability": "nonpayable",
      "type": "function"
    },
    {
      "inputs": [
        {
          "internalType": "address",
          "name": "_token",
          "type": "address"
        },
        {
          "internalType": "uint256",
          "name": "_tokenID",
          "type": "uint256"
        }
      ],
      "name": "depositERC721Token",
      "outputs": [],
      "stateMutability": "nonpayable",
      "type": "function"
    },
    {
      "inputs": [
        {
          "internalType": "address",
          "name": "_token",
          "type": "address"
        },
        {
          "internalType": "uint256[]",
          "name": "_tokenIDs",
          "type": "uint256[]"
        }
      ],
      "name": "depositERC721Tokens",
      "outputs": [],
      "stateMutability": "nonpayable",
      "type": "function"
    },
    {
      "inputs": [
        {
          "internalType": "address",
          "name": "",
          "type": "address"
        },
        {
          "internalType": "address",
          "name": "",
          "type": "address"
        },
        {
          "internalType": "uint256",
          "name": "",
          "type": "uint256"
        },
        {
          "internalType": "bytes",
          "name": "",
          "type": "bytes"
        }
      ],
      "name": "onERC721Received",
      "outputs": [
        {
          "internalType": "bytes4",
          "name": "",
          "type": "bytes4"
        }
      ],
      "stateMutability": "pure",
      "type": "function"
    },
    {
      "inputs": [
        {
          "internalType": "address",
          "name": "_token",
          "type": "address"
        },
        {
          "internalType": "uint256",
          "name": "_tokenID",
          "type": "uint256"
        }
      ],
      "name": "safeDepositERC721Token",
      "outputs": [],
      "stateMutability": "nonpayable",
      "type": "function"
    },
    {
      "inputs": [
        {
          "internalType": "address",
          "name": "_token",
          "type": "address"
        },
        {
          "internalType": "uint256",
          "name": "_tokenID",
          "type": "uint256"
        },
        {
          "internalType": "bytes",
          "name": "data",
          "type": "bytes"
        }
      ],
      "name": "safeDepositERC721TokenAndCall",
      "outputs": [],
      "stateMutability": "nonpayable",
      "type": "function"
    },
    {
      "inputs": [
        {
          "internalType": "address",
          "name": "_token",
          "type": "address"
        },
        {
          "internalType": "uint256",
          "name": "_tokenID",
          "type": "uint256"
        },
        {
          "internalType": "address",
          "name": "_to",
          "type": "address"
        }
      ],
      "name": "withdrawERC721Token",
      "outputs": [],
      "stateMutability": "nonpayable",
      "type": "function"
    }
  ],
  "bytecode": {
    "object": "0x608060405234801561001057600080fd5b50610ce8806100206000396000f3fe608060405234801561001057600080fd5b50600436106100885760003560e01c80638154feb31161005b5780638154feb314610103578063902bad541461011657806396a8ef9e14610129578063f2b20dab1461013c57600080fd5b8063150b7a021461008d57806328bedb51146100c85780636c975b8f146100dd5780637a4f8e2d146100f0575b600080fd5b6100ab61009b36600461087e565b635c46a7ef60e11b949350505050565b6040516001600160e01b0319909116815260200160405180910390f35b6100db6100d636600461095e565b61014f565b005b6100db6100eb36600461095e565b61015d565b6100db6100fe36600461098a565b610167565b6100db6101113660046109da565b61017f565b6100db610124366004610a1b565b610192565b6100db610137366004610aa4565b6101a4565b6100db61014a366004610adb565b6101b7565b61015982826101f6565b5050565b61015982826102af565b61016f6102e8565b61017a8383836102f2565b505050565b6101876102e8565b61017a83828461035b565b61019e84848484610390565b50505050565b6101ac6102e8565b61017a8383836103fc565b60005b8181101561019e576101e4848484848181106101d8576101d8610b63565b905060200201356101f6565b806101ee81610b79565b9150506101ba565b6040516323b872dd60e01b8152336004820152306024820152604481018290526001600160a01b038316906323b872dd906064015b600060405180830381600087803b15801561024557600080fd5b505af1158015610259573d6000803e3d6000fd5b5033925050506001600160a01b0383167f3349b5522bbd89c651e27d290dfa825aae569b7cec38fbbb70eca23412080aff83610293610633565b6040805192835260208301919091520160405180910390a35050565b604051632142170760e11b8152336004820152306024820152604481018290526001600160a01b038316906342842e0e9060640161022b565b6102f0610646565b565b60405163a22cb46560e01b81526001600160a01b038381166004830152821515602483015284169063a22cb465906044015b600060405180830381600087803b15801561033e57600080fd5b505af1158015610352573d6000803e3d6000fd5b50505050505050565b60405163095ea7b360e01b81526001600160a01b0382811660048301526024820184905284169063095ea7b390604401610324565b604051635c46a7ef60e11b81526001600160a01b0385169063b88d4fde906103c49033903090889088908890600401610ba0565b600060405180830381600087803b1580156103de57600080fd5b505af11580156103f2573d6000803e3d6000fd5b5050505050505050565b6040516331a9108f60e11b81526004810183905230906001600160a01b03851690636352211e90602401602060405180830381865afa158015610443573d6000803e3d6000fd5b505050506040513d601f19601f820116820180604052508101906104679190610bf4565b6001600160a01b03161461048e5760405163fa10c0e760e01b815260040160405180910390fd5b6104b260405180604001604052806003815260200162444d5360e81b81525061067a565b15610513576104c183836106b3565b1561050b5760405162461bcd60e51b8152602060048201526016602482015275155b905b1b1bd8d85d1948151bdad95b88119a5c9cdd60521b604482015260640160405180910390fd5b6105136106ee565b604051632142170760e11b81523060048201526001600160a01b038281166024830152604482018490528416906342842e0e90606401600060405180830381600087803b15801561056357600080fd5b505af1925050508015610574575060015b61017a57606080516000036105f1577f2a5e9fd1df3e89bedde4cc41639c8476fe31415840cbbefcbc154d391f5dbf268484846105af610633565b6040516105e494939291906001600160a01b039485168152602081019390935292166040820152606081019190915260800190565b60405180910390a161019e565b6040516001600160a01b03851681527f32e03818635e784323f20f12773b10302cb9da5cefa410045ad2391af90763d79060200160405180910390a150505050565b600061063d610748565b60040154905090565b61064e610748565b600501546001600160a01b031633146102f057604051630e7fea9d60e01b815260040160405180910390fd5b600080610685610748565b905080600901836040516106999190610c3c565b9081526040519081900360200190205460ff169392505050565b6000806106be6107cd565b6001600160a01b039094166000908152600990940160209081526040808620948652939052505090205460ff1690565b60006106f8610748565b90504281600601819055507f4b956f7dd859946b4769262a4e79184ac10e1bb38db7ac1b1b2e108464248d4d4261072d610633565b6040805192835260208301919091520160405180910390a150565b6000806107a560405180604001604052600f8152806020016e111a585b5bdb9910dd5d119858d95d608a1b81525060405180604001604052601181528060200170111a585b5bdb99131bdd5c19519858d95d607a1b81525061081d565b7f7f9df2342d5c190c7450de83944c941641ce57327a12faebc868644d2853cdbf1892915050565b6000806107a560405180604001604052600f8152806020016e111a585b5bdb9910dd5d119858d95d608a1b81525060405180604001604052600881528060200167111354d19858d95d60c21b8152505b60008282604051602001610832929190610c84565b60405160208183030381529060405280519060200120905092915050565b6001600160a01b038116811461086557600080fd5b50565b634e487b7160e01b600052604160045260246000fd5b6000806000806080858703121561089457600080fd5b843561089f81610850565b935060208501356108af81610850565b925060408501359150606085013567ffffffffffffffff808211156108d357600080fd5b818701915087601f8301126108e757600080fd5b8135818111156108f9576108f9610868565b604051601f8201601f19908116603f0116810190838211818310171561092157610921610868565b816040528281528a602084870101111561093a57600080fd5b82602086016020830137600060208483010152809550505050505092959194509250565b6000806040838503121561097157600080fd5b823561097c81610850565b946020939093013593505050565b60008060006060848603121561099f57600080fd5b83356109aa81610850565b925060208401356109ba81610850565b9150604084013580151581146109cf57600080fd5b809150509250925092565b6000806000606084860312156109ef57600080fd5b83356109fa81610850565b92506020840135610a0a81610850565b929592945050506040919091013590565b60008060008060608587031215610a3157600080fd5b8435610a3c81610850565b935060208501359250604085013567ffffffffffffffff80821115610a6057600080fd5b818701915087601f830112610a7457600080fd5b813581811115610a8357600080fd5b886020828501011115610a9557600080fd5b95989497505060200194505050565b600080600060608486031215610ab957600080fd5b8335610ac481610850565b92506020840135915060408401356109cf81610850565b600080600060408486031215610af057600080fd5b8335610afb81610850565b9250602084013567ffffffffffffffff80821115610b1857600080fd5b818601915086601f830112610b2c57600080fd5b813581811115610b3b57600080fd5b8760208260051b8501011115610b5057600080fd5b6020830194508093505050509250925092565b634e487b7160e01b600052603260045260246000fd5b600060018201610b9957634e487b7160e01b600052601160045260246000fd5b5060010190565b6001600160a01b038681168252851660208201526040810184905260806060820181905281018290526000828460a0840137600060a0848401015260a0601f19601f85011683010190509695505050505050565b600060208284031215610c0657600080fd5b8151610c1181610850565b9392505050565b60005b83811015610c33578181015183820152602001610c1b565b50506000910152565b60008251610c4e818460208701610c18565b9190910192915050565b60008151808452610c70816020860160208601610c18565b601f01601f19169290920160200192915050565b604081526000610c976040830185610c58565b8281036020840152610ca98185610c58565b9594505050505056fea2646970667358221220001f3a0597d02ef70528534079cae2865517a57436928c5ecd28ba64bd01865264736f6c63430008120033",
    "linkReferences": {}
  },
  "methodIdentifiers": {
    "approveAllERC721Token(address,address,bool)": "7a4f8e2d",
    "approveSingleERC721Token(address,address,uint256)": "8154feb3",
    "depositERC721Token(address,uint256)": "28bedb51",
    "depositERC721Tokens(address,uint256[])": "f2b20dab",
    "onERC721Received(address,address,uint256,bytes)": "150b7a02",
    "safeDepositERC721Token(address,uint256)": "6c975b8f",
    "safeDepositERC721TokenAndCall(address,uint256,bytes)": "902bad54",
    "withdrawERC721Token(address,uint256,address)": "96a8ef9e"
  },
  "id": 6
}