{
  "abi": [
    {
      "inputs": [
        {
          "internalType": "address",
          "name": "_contractOwner",
          "type": "address"
        },
        {
          "internalType": "address",
          "name": "_diamondCutFacet",
          "type": "address"
        }
      ],
      "stateMutability": "payable",
      "type": "constructor"
    },
    {
      "inputs": [],
      "name": "EmptyCalldata",
      "type": "error"
    },
    {
      "inputs": [
        {
          "internalType": "bytes4",
          "name": "selector",
          "type": "bytes4"
        }
      ],
      "name": "ImmutableFunction",
      "type": "error"
    },
    {
      "inputs": [],
      "name": "InValidFacetCutAction",
      "type": "error"
    },
    {
      "inputs": [],
      "name": "InitCallFailed",
      "type": "error"
    },
    {
      "inputs": [],
      "name": "MustBeZeroAddress",
      "type": "error"
    },
    {
      "inputs": [],
      "name": "NoCode",
      "type": "error"
    },
    {
      "inputs": [],
      "name": "NoSelectorsInFacet",
      "type": "error"
    },
    {
      "inputs": [],
      "name": "NoZeroAddress",
      "type": "error"
    },
    {
      "inputs": [],
      "name": "NonEmptyCalldata",
      "type": "error"
    },
    {
      "inputs": [
        {
          "internalType": "bytes4",
          "name": "selector",
          "type": "bytes4"
        }
      ],
      "name": "NonExistentSelector",
      "type": "error"
    },
    {
      "inputs": [],
      "name": "NotDiamondOwner",
      "type": "error"
    },
    {
      "inputs": [
        {
          "internalType": "bytes4",
          "name": "selector",
          "type": "bytes4"
        }
      ],
      "name": "SameSelectorReplacement",
      "type": "error"
    },
    {
      "inputs": [
        {
          "internalType": "bytes4",
          "name": "selector",
          "type": "bytes4"
        }
      ],
      "name": "SelectorExists",
      "type": "error"
    },
    {
      "stateMutability": "payable",
      "type": "fallback"
    },
    {
      "inputs": [],
      "name": "owner",
      "outputs": [
        {
          "internalType": "address",
          "name": "owner_",
          "type": "address"
        }
      ],
      "stateMutability": "view",
      "type": "function"
    },
    {
      "inputs": [
        {
          "internalType": "address[]",
          "name": "_addresses",
          "type": "address[]"
        }
      ],
      "name": "setAddresses",
      "outputs": [],
      "stateMutability": "nonpayable",
      "type": "function"
    },
    {
      "inputs": [
        {
          "internalType": "bytes4[][]",
          "name": "_selectors",
          "type": "bytes4[][]"
        }
      ],
      "name": "setSelectors",
      "outputs": [],
      "stateMutability": "nonpayable",
      "type": "function"
    },
    {
      "stateMutability": "payable",
      "type": "receive"
    }
  ],
  "bytecode": {
    "object": "0x60806040526040516200248d3803806200248d833981016040819052620000269162000d9d565b6200003c826200015660201b620004831760201c565b604080516001808252818301909252600091816020015b60408051606080820183526000808352602083015291810191909152815260200190600190039081620000535750506040805160018082528183019092529192506000919060208083019080368337019050509050631f931c1c60e01b81600081518110620000c657620000c662000dd5565b6001600160e01b031990921660209283029190910182015260408051606081019091526001600160a01b038516815290810160008152602001828152508260008151811062000119576200011962000dd5565b60200260200101819052506200014c82600060405180602001604052806000815250620001da60201b620005061760201c565b505050506200102b565b7ff0012a687af7752843524cd4908ddea76b8cf30b148d95b1684517391251d01180546001600160a01b031981166001600160a01b038481169182179093556040516000805160206200246d833981519152939092169182907f8be0079c531659141344cd1fd0a4f28419497f9722a3daafe3b4186f6b6457e090600090a3505050565b60005b8351811015620003a1576000848281518110620001fe57620001fe62000dd5565b60200260200101516020015190506000600281111562000222576200022262000deb565b81600281111562000237576200023762000deb565b0362000295576200028f85838151811062000256576200025662000dd5565b60200260200101516000015186848151811062000277576200027762000dd5565b602002602001015160400151620003f060201b60201c565b6200038b565b6001816002811115620002ac57620002ac62000deb565b0362000304576200028f858381518110620002cb57620002cb62000dd5565b602002602001015160000151868481518110620002ec57620002ec62000dd5565b602002602001015160400151620005d160201b60201c565b60028160028111156200031b576200031b62000deb565b0362000373576200028f8583815181106200033a576200033a62000dd5565b6020026020010151600001518684815181106200035b576200035b62000dd5565b602002602001015160400151620007b960201b60201c565b60405162c5e5d760e31b815260040160405180910390fd5b5080620003988162000e17565b915050620001dd565b507f8faa70878671ccd212d20771b795c50af8fd3ff6cf27f4bde57e5d4de0aeb673838383604051620003d79392919062000e87565b60405180910390a1620003eb828262000896565b505050565b6000815111620004135760405163092d2fe560e41b815260040160405180910390fd5b6000805160206200246d8339815191526001600160a01b0383166200044b5760405163ddbadd5f60e01b815260040160405180910390fd5b6001600160a01b0383166000908152600182016020526040812054906001600160601b03821690036200048457620004848285620009b0565b60005b8351811015620005ca576000848281518110620004a857620004a862000dd5565b6020908102919091018101516001600160e01b031981166000908152918690526040909120549091506001600160a01b031680156200050b5760405163501e70c760e01b81526001600160e01b0319831660048201526024015b60405180910390fd5b6001600160e01b0319821660008181526020878152604080832080546001600160a01b03908116600160a01b6001600160601b038c16021782558c168085526001808c0185529285208054938401815585528385206008840401805463ffffffff60079095166004026101000a948502191660e08a901c94909402939093179092559390925287905281546001600160a01b03191617905583620005af8162000f8e565b94505050508080620005c19062000e17565b91505062000487565b5050505050565b6000815111620005f45760405163092d2fe560e41b815260040160405180910390fd5b6000805160206200246d8339815191526001600160a01b0383166200062c5760405163ddbadd5f60e01b815260040160405180910390fd5b6001600160a01b0383166000908152600182016020526040812054906001600160601b03821690036200066557620006658285620009b0565b60005b8351811015620005ca57600084828151811062000689576200068962000dd5565b6020908102919091018101516001600160e01b031981166000908152918690526040909120549091506001600160a01b039081169087168103620006ed57604051631c04188b60e31b81526001600160e01b03198316600482015260240162000502565b620006fa85828462000a03565b6001600160e01b0319821660008181526020878152604080832080546001600160a01b03908116600160a01b6001600160601b038c16021782558c168085526001808c0185529285208054938401815585528385206008840401805463ffffffff60079095166004026101000a948502191660e08a901c94909402939093179092559390925287905281546001600160a01b031916179055836200079e8162000f8e565b94505050508080620007b09062000e17565b91505062000668565b6000815111620007dc5760405163092d2fe560e41b815260040160405180910390fd5b6000805160206200246d8339815191526001600160a01b038316156200081557604051631be65fe560e21b815260040160405180910390fd5b60005b82518110156200089057600083828151811062000839576200083962000dd5565b6020908102919091018101516001600160e01b031981166000908152918590526040909120549091506001600160a01b03166200087884828462000a03565b50508080620008879062000e17565b91505062000818565b50505050565b6001600160a01b038216620008ca57805115620008c65760405163c21b1ab760e01b815260040160405180910390fd5b5050565b8051600003620008ed57604051633011e86160e21b815260040160405180910390fd5b6001600160a01b03821630146200090957620009098262000d5f565b600080836001600160a01b03168360405162000926919062000fbf565b600060405180830381855af49150503d806000811462000963576040519150601f19603f3d011682016040523d82523d6000602084013e62000968565b606091505b509150915081620008905780511562000997578060405162461bcd60e51b815260040162000502919062000fdd565b604051633a18f8dd60e01b815260040160405180910390fd5b620009bb8162000d5f565b6002820180546001600160a01b0390921660008181526001948501602090815260408220860185905594840183559182529290200180546001600160a01b0319169091179055565b6001600160a01b03821662000a3757604051622902d360e91b81526001600160e01b03198216600482015260240162000502565b306001600160a01b0383160362000a6e5760405163069731c560e41b81526001600160e01b03198216600482015260240162000502565b6001600160e01b03198116600090815260208481526040808320546001600160a01b0386168452600180880190935290832054600160a01b9091046001600160601b0316929162000abf9162000ff9565b905080821462000bb8576001600160a01b0384166000908152600186016020526040812080548390811062000af85762000af862000dd5565b600091825260208083206008830401546001600160a01b038916845260018a019091526040909220805460079092166004026101000a90920460e01b92508291908590811062000b4c5762000b4c62000dd5565b600091825260208083206008830401805463ffffffff60079094166004026101000a938402191660e09590951c929092029390931790556001600160e01b03199290921682528690526040902080546001600160a01b0316600160a01b6001600160601b038516021790555b6001600160a01b0384166000908152600186016020526040902080548062000be45762000be462001015565b60008281526020808220600860001990940193840401805463ffffffff600460078716026101000a0219169055919092556001600160e01b03198516825286905260408120819055819003620005ca57600285015460009062000c4a9060019062000ff9565b6001600160a01b038616600090815260018089016020526040909120015490915080821462000d0057600087600201838154811062000c8d5762000c8d62000dd5565b6000918252602090912001546002890180546001600160a01b03909216925082918490811062000cc15762000cc162000dd5565b600091825260208083209190910180546001600160a01b0319166001600160a01b03948516179055929091168152600189810190925260409020018190555b8660020180548062000d165762000d1662001015565b60008281526020808220830160001990810180546001600160a01b03191690559092019092556001600160a01b0388168252600189810190915260408220015550505050505050565b803b80620008c657604051633c11a9c560e21b815260040160405180910390fd5b80516001600160a01b038116811462000d9857600080fd5b919050565b6000806040838503121562000db157600080fd5b62000dbc8362000d80565b915062000dcc6020840162000d80565b90509250929050565b634e487b7160e01b600052603260045260246000fd5b634e487b7160e01b600052602160045260246000fd5b634e487b7160e01b600052601160045260246000fd5b60006001820162000e2c5762000e2c62000e01565b5060010190565b60005b8381101562000e5057818101518382015260200162000e36565b50506000910152565b6000815180845262000e7381602086016020860162000e33565b601f01601f19169290920160200192915050565b60006060808301818452808751808352608092508286019150828160051b8701016020808b0160005b8481101562000f5c57898403607f19018652815180516001600160a01b0316855283810151898601906003811062000ef857634e487b7160e01b600052602160045260246000fd5b868601526040918201519186018a905281519081905290840190600090898701905b8083101562000f465783516001600160e01b031916825292860192600192909201919086019062000f1a565b5097850197955050509082019060010162000eb0565b50506001600160a01b038a1690880152868103604088015262000f80818962000e59565b9a9950505050505050505050565b60006001600160601b038281166002600160601b0319810162000fb55762000fb562000e01565b6001019392505050565b6000825162000fd381846020870162000e33565b9190910192915050565b60208152600062000ff2602083018462000e59565b9392505050565b818103818111156200100f576200100f62000e01565b92915050565b634e487b7160e01b600052603160045260246000fd5b611432806200103b6000396000f3fe6080604052600436106100385760003560e01c806327d34f7b146100ec5780638da5cb5b1461010c578063b9571721146101575761003f565b3661003f57005b600080356001600160e01b03191681526000805160206113dd833981519152602081905260409091205481906001600160a01b0316806100c65760405162461bcd60e51b815260206004820181905260248201527f4469616d6f6e643a2046756e6374696f6e20646f6573206e6f7420657869737460448201526064015b60405180910390fd5b3660008037600080366000845af43d6000803e8080156100e5573d6000f35b3d6000fd5b005b3480156100f857600080fd5b506100ea6101073660046110db565b610177565b34801561011857600080fd5b507ff0012a687af7752843524cd4908ddea76b8cf30b148d95b1684517391251d01154604080516001600160a01b039092168252519081900360200190f35b34801561016357600080fd5b506100ea6101723660046110db565b61029a565b61017f6106d7565b6000600582146101915761019161111d565b828260008181106101a4576101a4611133565b90506020028101906101b69190611149565b6101c4916007840191610fc4565b50828260018181106101d8576101d8611133565b90506020028101906101ea9190611149565b6101f8916008840191610fc4565b508282600281811061020c5761020c611133565b905060200281019061021e9190611149565b61022c916009840191610fc4565b508282600381811061024057610240611133565b90506020028101906102529190611149565b61026091600a840191610fc4565b508282600481811061027457610274611133565b90506020028101906102869190611149565b61029491600b840191610fc4565b50505050565b6102a26106d7565b6000828260008181106102b7576102b7611133565b90506020020160208101906102cc9190611193565b8160010160006101000a8154816001600160a01b0302191690836001600160a01b031602179055508282600181811061030757610307611133565b905060200201602081019061031c9190611193565b8160020160006101000a8154816001600160a01b0302191690836001600160a01b031602179055508282600281811061035757610357611133565b905060200201602081019061036c9190611193565b8160030160006101000a8154816001600160a01b0302191690836001600160a01b03160217905550828260038181106103a7576103a7611133565b90506020020160208101906103bc9190611193565b8160040160006101000a8154816001600160a01b0302191690836001600160a01b03160217905550828260048181106103f7576103f7611133565b905060200201602081019061040c9190611193565b8160050160006101000a8154816001600160a01b0302191690836001600160a01b031602179055508282600581811061044757610447611133565b905060200201602081019061045c9190611193565b60069190910180546001600160a01b0319166001600160a01b039092169190911790555050565b7ff0012a687af7752843524cd4908ddea76b8cf30b148d95b1684517391251d01180546001600160a01b031981166001600160a01b038481169182179093556040516000805160206113dd833981519152939092169182907f8be0079c531659141344cd1fd0a4f28419497f9722a3daafe3b4186f6b6457e090600090a3505050565b60005b835181101561068c57600084828151811061052657610526611133565b602002602001015160200151905060006002811115610547576105476111c3565b816002811115610559576105596111c3565b036105a7576105a285838151811061057357610573611133565b60200260200101516000015186848151811061059157610591611133565b602002602001015160400151610714565b610679565b60018160028111156105bb576105bb6111c3565b03610604576105a28583815181106105d5576105d5611133565b6020026020010151600001518684815181106105f3576105f3611133565b602002602001015160400151610854565b6002816002811115610618576106186111c3565b03610661576105a285838151811061063257610632611133565b60200260200101516000015186848151811061065057610650611133565b60200260200101516040015161099d565b60405162c5e5d760e31b815260040160405180910390fd5b5080610684816111ef565b915050610509565b507f8faa70878671ccd212d20771b795c50af8fd3ff6cf27f4bde57e5d4de0aeb6738383836040516106c093929190611258565b60405180910390a16106d28282610a68565b505050565b6000805160206113dd833981519152600401546001600160a01b0316331461071257604051630305808160e41b815260040160405180910390fd5b565b60008151116107365760405163092d2fe560e41b815260040160405180910390fd5b6000805160206113dd8339815191526001600160a01b03831661076c5760405163ddbadd5f60e01b815260040160405180910390fd5b6001600160a01b0383166000908152600182016020526040812054906001600160601b03821690036107a2576107a28285610b74565b60005b835181101561084d5760008482815181106107c2576107c2611133565b6020908102919091018101516001600160e01b031981166000908152918690526040909120549091506001600160a01b0316801561081f5760405163501e70c760e01b81526001600160e01b0319831660048201526024016100bd565b61082b8583868a610bc5565b8361083581611358565b94505050508080610845906111ef565b9150506107a5565b5050505050565b60008151116108765760405163092d2fe560e41b815260040160405180910390fd5b6000805160206113dd8339815191526001600160a01b0383166108ac5760405163ddbadd5f60e01b815260040160405180910390fd5b6001600160a01b0383166000908152600182016020526040812054906001600160601b03821690036108e2576108e28285610b74565b60005b835181101561084d57600084828151811061090257610902611133565b6020908102919091018101516001600160e01b031981166000908152918690526040909120549091506001600160a01b03908116908716810361096457604051631c04188b60e31b81526001600160e01b0319831660048201526024016100bd565b61096f858284610c65565b61097b8583868a610bc5565b8361098581611358565b94505050508080610995906111ef565b9150506108e5565b60008151116109bf5760405163092d2fe560e41b815260040160405180910390fd5b6000805160206113dd8339815191526001600160a01b038316156109f657604051631be65fe560e21b815260040160405180910390fd5b60005b8251811015610294576000838281518110610a1657610a16611133565b6020908102919091018101516001600160e01b031981166000908152918590526040909120549091506001600160a01b0316610a53848284610c65565b50508080610a60906111ef565b9150506109f9565b6001600160a01b038216610a9a57805115610a965760405163c21b1ab760e01b815260040160405180910390fd5b5050565b8051600003610abc57604051633011e86160e21b815260040160405180910390fd5b6001600160a01b0382163014610ad557610ad582610fa4565b600080836001600160a01b031683604051610af0919061137e565b600060405180830381855af49150503d8060008114610b2b576040519150601f19603f3d011682016040523d82523d6000602084013e610b30565b606091505b50915091508161029457805115610b5b578060405162461bcd60e51b81526004016100bd919061139a565b604051633a18f8dd60e01b815260040160405180910390fd5b610b7d81610fa4565b6002820180546001600160a01b0390921660008181526001948501602090815260408220860185905594840183559182529290200180546001600160a01b0319169091179055565b6001600160e01b0319831660008181526020868152604080832080546001600160601b03909716600160a01b026001600160a01b0397881617815594909516808352600180890183529583208054968701815583528183206008870401805460e09890981c60046007909816979097026101000a96870263ffffffff9097021990971695909517909555529290915281546001600160a01b031916179055565b6001600160a01b038216610c9757604051622902d360e91b81526001600160e01b0319821660048201526024016100bd565b306001600160a01b03831603610ccc5760405163069731c560e41b81526001600160e01b0319821660048201526024016100bd565b6001600160e01b03198116600090815260208481526040808320546001600160a01b0386168452600180880190935290832054600160a01b9091046001600160601b03169291610d1b916113ad565b9050808214610e0d576001600160a01b03841660009081526001860160205260408120805483908110610d5057610d50611133565b600091825260208083206008830401546001600160a01b038916845260018a019091526040909220805460079092166004026101000a90920460e01b925082919085908110610da157610da1611133565b600091825260208083206008830401805463ffffffff60079094166004026101000a938402191660e09590951c929092029390931790556001600160e01b03199290921682528690526040902080546001600160a01b0316600160a01b6001600160601b038516021790555b6001600160a01b03841660009081526001860160205260409020805480610e3657610e366113c6565b60008281526020808220600860001990940193840401805463ffffffff600460078716026101000a0219169055919092556001600160e01b0319851682528690526040812081905581900361084d576002850154600090610e99906001906113ad565b6001600160a01b0386166000908152600180890160205260409091200154909150808214610f48576000876002018381548110610ed857610ed8611133565b6000918252602090912001546002890180546001600160a01b039092169250829184908110610f0957610f09611133565b600091825260208083209190910180546001600160a01b0319166001600160a01b03948516179055929091168152600189810190925260409020018190555b86600201805480610f5b57610f5b6113c6565b60008281526020808220830160001990810180546001600160a01b03191690559092019092556001600160a01b0388168252600189810190915260408220015550505050505050565b803b80610a9657604051633c11a9c560e21b815260040160405180910390fd5b8280548282559060005260206000209060070160089004810192821561106a5791602002820160005b838211156110385783356001600160e01b03191683826101000a81548163ffffffff021916908360e01c02179055509260200192600401602081600301049283019260010302610fed565b80156110685782816101000a81549063ffffffff0219169055600401602081600301049283019260010302611038565b505b5061107692915061107a565b5090565b5b80821115611076576000815560010161107b565b60008083601f8401126110a157600080fd5b50813567ffffffffffffffff8111156110b957600080fd5b6020830191508360208260051b85010111156110d457600080fd5b9250929050565b600080602083850312156110ee57600080fd5b823567ffffffffffffffff81111561110557600080fd5b6111118582860161108f565b90969095509350505050565b634e487b7160e01b600052600160045260246000fd5b634e487b7160e01b600052603260045260246000fd5b6000808335601e1984360301811261116057600080fd5b83018035915067ffffffffffffffff82111561117b57600080fd5b6020019150600581901b36038213156110d457600080fd5b6000602082840312156111a557600080fd5b81356001600160a01b03811681146111bc57600080fd5b9392505050565b634e487b7160e01b600052602160045260246000fd5b634e487b7160e01b600052601160045260246000fd5b600060018201611201576112016111d9565b5060010190565b60005b8381101561122357818101518382015260200161120b565b50506000910152565b60008151808452611244816020860160208601611208565b601f01601f19169290920160200192915050565b60006060808301818452808751808352608092508286019150828160051b8701016020808b0160005b8481101561132857898403607f19018652815180516001600160a01b031685528381015189860190600381106112c757634e487b7160e01b600052602160045260246000fd5b868601526040918201519186018a905281519081905290840190600090898701905b808310156113135783516001600160e01b03191682529286019260019290920191908601906112e9565b50978501979550505090820190600101611281565b50506001600160a01b038a1690880152868103604088015261134a818961122c565b9a9950505050505050505050565b60006001600160601b03808316818103611374576113746111d9565b6001019392505050565b60008251611390818460208701611208565b9190910192915050565b6020815260006111bc602083018461122c565b818103818111156113c0576113c06111d9565b92915050565b634e487b7160e01b600052603160045260246000fdfef0012a687af7752843524cd4908ddea76b8cf30b148d95b1684517391251d00da2646970667358221220bc19f10a210a4854bd76388249dee8f0d948ee0048fb6e4649e27f68913d682964736f6c63430008120033f0012a687af7752843524cd4908ddea76b8cf30b148d95b1684517391251d00d",
    "linkReferences": {}
  },
  "methodIdentifiers": {
    "owner()": "8da5cb5b",
    "setAddresses(address[])": "b9571721",
    "setSelectors(bytes4[][])": "27d34f7b"
  },
  "id": 14
}