{
  "abi": [
    {
      "inputs": [
        {
          "components": [
            {
              "internalType": "address",
              "name": "facetAddress",
              "type": "address"
            },
            {
              "internalType": "enum IDiamondCut.FacetCutAction",
              "name": "action",
              "type": "uint8"
            },
            {
              "internalType": "bytes4[]",
              "name": "functionSelectors",
              "type": "bytes4[]"
            }
          ],
          "internalType": "struct IDiamondCut.FacetCut[]",
          "name": "_selectorModule",
          "type": "tuple[]"
        },
        {
          "components": [
            {
              "internalType": "address",
              "name": "facetAddress",
              "type": "address"
            },
            {
              "internalType": "enum IDiamondCut.FacetCutAction",
              "name": "action",
              "type": "uint8"
            },
            {
              "internalType": "bytes4[]",
              "name": "functionSelectors",
              "type": "bytes4[]"
            }
          ],
          "internalType": "struct IDiamondCut.FacetCut[]",
          "name": "_tokenModule",
          "type": "tuple[]"
        },
        {
          "internalType": "address",
          "name": "_vaultOwner",
          "type": "address"
        },
        {
          "internalType": "address",
          "name": "_backupAddress",
          "type": "address"
        },
        {
          "internalType": "uint256",
          "name": "_pingWindow",
          "type": "uint256"
        },
        {
          "internalType": "uint256",
          "name": "_vaultID",
          "type": "uint256"
        }
      ],
      "stateMutability": "payable",
      "type": "constructor"
    },
    {
      "inputs": [],
      "name": "EmptyCalldata",
      "type": "error"
    },
    {
      "inputs": [
        {
          "internalType": "bytes4",
          "name": "selector",
          "type": "bytes4"
        }
      ],
      "name": "ImmutableFunction",
      "type": "error"
    },
    {
      "inputs": [],
      "name": "InValidFacetCutAction",
      "type": "error"
    },
    {
      "inputs": [],
      "name": "InitCallFailed",
      "type": "error"
    },
    {
      "inputs": [],
      "name": "MustBeZeroAddress",
      "type": "error"
    },
    {
      "inputs": [],
      "name": "NoCode",
      "type": "error"
    },
    {
      "inputs": [],
      "name": "NoSelectorsInFacet",
      "type": "error"
    },
    {
      "inputs": [],
      "name": "NoZeroAddress",
      "type": "error"
    },
    {
      "inputs": [],
      "name": "NoZeroAddress",
      "type": "error"
    },
    {
      "inputs": [],
      "name": "NonEmptyCalldata",
      "type": "error"
    },
    {
      "inputs": [
        {
          "internalType": "bytes4",
          "name": "selector",
          "type": "bytes4"
        }
      ],
      "name": "NonExistentSelector",
      "type": "error"
    },
    {
      "inputs": [
        {
          "internalType": "bytes4",
          "name": "selector",
          "type": "bytes4"
        }
      ],
      "name": "SameSelectorReplacement",
      "type": "error"
    },
    {
      "inputs": [
        {
          "internalType": "bytes4",
          "name": "selector",
          "type": "bytes4"
        }
      ],
      "name": "SelectorExists",
      "type": "error"
    },
    {
      "stateMutability": "payable",
      "type": "fallback"
    },
    {
      "inputs": [],
      "name": "vaultFactoryDiamond",
      "outputs": [
        {
          "internalType": "address",
          "name": "",
          "type": "address"
        }
      ],
      "stateMutability": "view",
      "type": "function"
    },
    {
      "stateMutability": "payable",
      "type": "receive"
    }
  ],
  "bytecode": {
    "object": "0x6080604052604051620024f6380380620024f6833981016040819052620000269162001128565b6200004e866000604051806020016040528060008152506200020960201b620001901760201c565b62000076856000604051806020016040528060008152506200020960201b620001901760201c565b6001600160a01b0383166200009e5760405163ddbadd5f60e01b815260040160405180910390fd5b6000620000b56200041f60201b6200010b1760201c565b9050600181600901604051620000d9906729b2b632b1ba37b960c11b815260080190565b908152604080519182900360209081018320805494151560ff19958616179055642a37b5b2b760d91b8352600985016005840152815192839003602501832080549094166001908117909455600b8501805494850181556000908152819020838301909252600883526729b2b632b1ba37b960c11b908301529091019062000162908262001257565b50600b8101805460018101825560009182526020918290206040805180820190915260058152642a37b5b2b760d91b938101939093520190620001a6908262001257565b506007810180546001600160a01b0319166001600160a01b0386161790556008810183905560048101829055620001e985620004ac602090811b6200036117901c565b5050600080546001600160a01b0319163317905550620015ab9350505050565b60005b8351811015620003d05760008482815181106200022d576200022d62001323565b60200260200101516020015190506000600281111562000251576200025162001339565b81600281111562000266576200026662001339565b03620002c457620002be85838151811062000285576200028562001323565b602002602001015160000151868481518110620002a657620002a662001323565b6020026020010151604001516200051960201b60201c565b620003ba565b6001816002811115620002db57620002db62001339565b036200033357620002be858381518110620002fa57620002fa62001323565b6020026020010151600001518684815181106200031b576200031b62001323565b6020026020010151604001516200070360201b60201c565b60028160028111156200034a576200034a62001339565b03620003a257620002be85838151811062000369576200036962001323565b6020026020010151600001518684815181106200038a576200038a62001323565b602002602001015160400151620008f460201b60201c565b60405162c5e5d760e31b815260040160405180910390fd5b5080620003c78162001365565b9150506200020c565b507f8faa70878671ccd212d20771b795c50af8fd3ff6cf27f4bde57e5d4de0aeb6738383836040516200040693929190620013d5565b60405180910390a16200041a8282620009da565b505050565b6000806200048460405180604001604052600f8152806020016e111a585b5bdb9910dd5d119858d95d608a1b81525060405180604001604052601181528060200170111a585b5bdb99131bdd5c19519858d95d607a1b81525062000af460201b60201c565b7f7f9df2342d5c190c7450de83944c941641ce57327a12faebc868644d2853cdbf1892915050565b6000620004c36200041f60201b6200010b1760201c565b6005810180546001600160a01b038581166001600160a01b031983168117909355604051939450169182907f8be0079c531659141344cd1fd0a4f28419497f9722a3daafe3b4186f6b6457e090600090a3505050565b60008151116200053c5760405163092d2fe560e41b815260040160405180910390fd5b6000620005536200041f60201b6200010b1760201c565b90506001600160a01b0383166200057d5760405163ddbadd5f60e01b815260040160405180910390fd5b6001600160a01b0383166000908152600182016020526040812054906001600160601b0382169003620005b657620005b6828562000b29565b60005b8351811015620006fc576000848281518110620005da57620005da62001323565b6020908102919091018101516001600160e01b031981166000908152918690526040909120549091506001600160a01b031680156200063d5760405163501e70c760e01b81526001600160e01b0319831660048201526024015b60405180910390fd5b6001600160e01b0319821660008181526020878152604080832080546001600160a01b03908116600160a01b6001600160601b038c16021782558c168085526001808c0185529285208054938401815585528385206008840401805463ffffffff60079095166004026101000a948502191660e08a901c94909402939093179092559390925287905281546001600160a01b03191617905583620006e181620014dc565b94505050508080620006f39062001365565b915050620005b9565b5050505050565b6000815111620007265760405163092d2fe560e41b815260040160405180910390fd5b60006200073d6200041f60201b6200010b1760201c565b90506001600160a01b038316620007675760405163ddbadd5f60e01b815260040160405180910390fd5b6001600160a01b0383166000908152600182016020526040812054906001600160601b0382169003620007a057620007a0828562000b29565b60005b8351811015620006fc576000848281518110620007c457620007c462001323565b6020908102919091018101516001600160e01b031981166000908152918690526040909120549091506001600160a01b0390811690871681036200082857604051631c04188b60e31b81526001600160e01b03198316600482015260240162000634565b6200083585828462000b7c565b6001600160e01b0319821660008181526020878152604080832080546001600160a01b03908116600160a01b6001600160601b038c16021782558c168085526001808c0185529285208054938401815585528385206008840401805463ffffffff60079095166004026101000a948502191660e08a901c94909402939093179092559390925287905281546001600160a01b03191617905583620008d981620014dc565b94505050508080620008eb9062001365565b915050620007a3565b6000815111620009175760405163092d2fe560e41b815260040160405180910390fd5b60006200092e6200041f60201b6200010b1760201c565b90506001600160a01b038316156200095957604051631be65fe560e21b815260040160405180910390fd5b60005b8251811015620009d45760008382815181106200097d576200097d62001323565b6020908102919091018101516001600160e01b031981166000908152918590526040909120549091506001600160a01b0316620009bc84828462000b7c565b50508080620009cb9062001365565b9150506200095c565b50505050565b6001600160a01b03821662000a0e5780511562000a0a5760405163c21b1ab760e01b815260040160405180910390fd5b5050565b805160000362000a3157604051633011e86160e21b815260040160405180910390fd5b6001600160a01b038216301462000a4d5762000a4d8262000ed8565b600080836001600160a01b03168360405162000a6a91906200150d565b600060405180830381855af49150503d806000811462000aa7576040519150601f19603f3d011682016040523d82523d6000602084013e62000aac565b606091505b509150915081620009d45780511562000adb578060405162461bcd60e51b81526004016200063491906200152b565b604051633a18f8dd60e01b815260040160405180910390fd5b6000828260405160200162000b0b92919062001547565b60405160208183030381529060405280519060200120905092915050565b62000b348162000ed8565b6003820180546001600160a01b0390921660008181526001948501602090815260408220860185905594840183559182529290200180546001600160a01b0319169091179055565b6001600160a01b03821662000bb057604051622902d360e91b81526001600160e01b03198216600482015260240162000634565b306001600160a01b0383160362000be75760405163069731c560e41b81526001600160e01b03198216600482015260240162000634565b6001600160e01b03198116600090815260208481526040808320546001600160a01b0386168452600180880190935290832054600160a01b9091046001600160601b0316929162000c389162001579565b905080821462000d31576001600160a01b0384166000908152600186016020526040812080548390811062000c715762000c7162001323565b600091825260208083206008830401546001600160a01b038916845260018a019091526040909220805460079092166004026101000a90920460e01b92508291908590811062000cc55762000cc562001323565b600091825260208083206008830401805463ffffffff60079094166004026101000a938402191660e09590951c929092029390931790556001600160e01b03199290921682528690526040902080546001600160a01b0316600160a01b6001600160601b038516021790555b6001600160a01b0384166000908152600186016020526040902080548062000d5d5762000d5d62001595565b60008281526020808220600860001990940193840401805463ffffffff600460078716026101000a0219169055919092556001600160e01b03198516825286905260408120819055819003620006fc57600385015460009062000dc39060019062001579565b6001600160a01b038616600090815260018089016020526040909120015490915080821462000e7957600087600301838154811062000e065762000e0662001323565b6000918252602090912001546003890180546001600160a01b03909216925082918490811062000e3a5762000e3a62001323565b600091825260208083209190910180546001600160a01b0319166001600160a01b03948516179055929091168152600189810190925260409020018190555b8660030180548062000e8f5762000e8f62001595565b60008281526020808220830160001990810180546001600160a01b03191690559092019092556001600160a01b0388168252600189810190915260408220015550505050505050565b803b8062000a0a57604051633c11a9c560e21b815260040160405180910390fd5b634e487b7160e01b600052604160045260246000fd5b604051606081016001600160401b038111828210171562000f345762000f3462000ef9565b60405290565b604051601f8201601f191681016001600160401b038111828210171562000f655762000f6562000ef9565b604052919050565b60006001600160401b0382111562000f895762000f8962000ef9565b5060051b60200190565b80516001600160a01b038116811462000fab57600080fd5b919050565b600082601f83011262000fc257600080fd5b8151602062000fdb62000fd58362000f6d565b62000f3a565b828152600592831b850182019282820191908785111562000ffb57600080fd5b8387015b858110156200111b5780516001600160401b0380821115620010215760008081fd5b908901906060828c03601f19018113156200103c5760008081fd5b6200104662000f0f565b6200105389850162000f93565b8152604080850151600381106200106a5760008081fd5b828b0152918401519183831115620010825760008081fd5b82850194508d603f8601126200109a57600093508384fd5b898501519350620010af62000fd58562000f6d565b84815293871b85018101938a810193508e851115620010ce5760008081fd5b948101945b84861015620011065785516001600160e01b031981168114620010f65760008081fd5b8452948a0194928a0192620010d3565b90820152875250505092840192840162000fff565b5090979650505050505050565b60008060008060008060c087890312156200114257600080fd5b86516001600160401b03808211156200115a57600080fd5b620011688a838b0162000fb0565b975060208901519150808211156200117f57600080fd5b506200118e89828a0162000fb0565b9550506200119f6040880162000f93565b9350620011af6060880162000f93565b92506080870151915060a087015190509295509295509295565b600181811c90821680620011de57607f821691505b602082108103620011ff57634e487b7160e01b600052602260045260246000fd5b50919050565b601f8211156200041a57600081815260208120601f850160051c810160208610156200122e5750805b601f850160051c820191505b818110156200124f578281556001016200123a565b505050505050565b81516001600160401b0381111562001273576200127362000ef9565b6200128b81620012848454620011c9565b8462001205565b602080601f831160018114620012c35760008415620012aa5750858301515b600019600386901b1c1916600185901b1785556200124f565b600085815260208120601f198616915b82811015620012f457888601518255948401946001909101908401620012d3565b5085821015620013135787850151600019600388901b60f8161c191681555b5050505050600190811b01905550565b634e487b7160e01b600052603260045260246000fd5b634e487b7160e01b600052602160045260246000fd5b634e487b7160e01b600052601160045260246000fd5b6000600182016200137a576200137a6200134f565b5060010190565b60005b838110156200139e57818101518382015260200162001384565b50506000910152565b60008151808452620013c181602086016020860162001381565b601f01601f19169290920160200192915050565b60006060808301818452808751808352608092508286019150828160051b8701016020808b0160005b84811015620014aa57898403607f19018652815180516001600160a01b031685528381015189860190600381106200144657634e487b7160e01b600052602160045260246000fd5b868601526040918201519186018a905281519081905290840190600090898701905b80831015620014945783516001600160e01b031916825292860192600192909201919086019062001468565b50978501979550505090820190600101620013fe565b50506001600160a01b038a16908801528681036040880152620014ce8189620013a7565b9a9950505050505050505050565b60006001600160601b038281166002600160601b031981016200150357620015036200134f565b6001019392505050565b600082516200152181846020870162001381565b9190910192915050565b602081526000620015406020830184620013a7565b9392505050565b6040815260006200155c6040830185620013a7565b8281036020840152620015708185620013a7565b95945050505050565b818103818111156200158f576200158f6200134f565b92915050565b634e487b7160e01b600052603160045260246000fd5b610f3b80620015bb6000396000f3fe6080604052600436106100225760003560e01c806366bd442d146100cf57610029565b3661002957005b600061003361010b565b600080356001600160e01b0319168152602082905260409020549091506001600160a01b0316806100ab5760405162461bcd60e51b815260206004820181905260248201527f4469616d6f6e643a2046756e6374696f6e20646f6573206e6f7420657869737460448201526064015b60405180910390fd5b3660008037600080366000845af43d6000803e8080156100ca573d6000f35b3d6000fd5b3480156100db57600080fd5b506000546100ef906001600160a01b031681565b6040516001600160a01b03909116815260200160405180910390f35b60008061016860405180604001604052600f8152806020016e111a585b5bdb9910dd5d119858d95d608a1b81525060405180604001604052601181528060200170111a585b5bdb99131bdd5c19519858d95d607a1b8152506103c1565b7f7f9df2342d5c190c7450de83944c941641ce57327a12faebc868644d2853cdbf1892915050565b60005b83518110156103165760008482815181106101b0576101b0610ca1565b6020026020010151602001519050600060028111156101d1576101d1610cb7565b8160028111156101e3576101e3610cb7565b036102315761022c8583815181106101fd576101fd610ca1565b60200260200101516000015186848151811061021b5761021b610ca1565b6020026020010151604001516103f4565b610303565b600181600281111561024557610245610cb7565b0361028e5761022c85838151811061025f5761025f610ca1565b60200260200101516000015186848151811061027d5761027d610ca1565b602002602001015160400151610531565b60028160028111156102a2576102a2610cb7565b036102eb5761022c8583815181106102bc576102bc610ca1565b6020026020010151600001518684815181106102da576102da610ca1565b602002602001015160400151610677565b60405162c5e5d760e31b815260040160405180910390fd5b508061030e81610ce3565b915050610193565b507f8faa70878671ccd212d20771b795c50af8fd3ff6cf27f4bde57e5d4de0aeb67383838360405161034a93929190610d4c565b60405180910390a161035c8282610745565b505050565b600061036b61010b565b6005810180546001600160a01b038581166001600160a01b031983168117909355604051939450169182907f8be0079c531659141344cd1fd0a4f28419497f9722a3daafe3b4186f6b6457e090600090a3505050565b600082826040516020016103d6929190610e4c565b60405160208183030381529060405280519060200120905092915050565b60008151116104165760405163092d2fe560e41b815260040160405180910390fd5b600061042061010b565b90506001600160a01b0383166104495760405163ddbadd5f60e01b815260040160405180910390fd5b6001600160a01b0383166000908152600182016020526040812054906001600160601b038216900361047f5761047f8285610851565b60005b835181101561052a57600084828151811061049f5761049f610ca1565b6020908102919091018101516001600160e01b031981166000908152918690526040909120549091506001600160a01b031680156104fc5760405163501e70c760e01b81526001600160e01b0319831660048201526024016100a2565b6105088583868a6108a2565b8361051281610e7a565b9450505050808061052290610ce3565b915050610482565b5050505050565b60008151116105535760405163092d2fe560e41b815260040160405180910390fd5b600061055d61010b565b90506001600160a01b0383166105865760405163ddbadd5f60e01b815260040160405180910390fd5b6001600160a01b0383166000908152600182016020526040812054906001600160601b03821690036105bc576105bc8285610851565b60005b835181101561052a5760008482815181106105dc576105dc610ca1565b6020908102919091018101516001600160e01b031981166000908152918690526040909120549091506001600160a01b03908116908716810361063e57604051631c04188b60e31b81526001600160e01b0319831660048201526024016100a2565b610649858284610942565b6106558583868a6108a2565b8361065f81610e7a565b9450505050808061066f90610ce3565b9150506105bf565b60008151116106995760405163092d2fe560e41b815260040160405180910390fd5b60006106a361010b565b90506001600160a01b038316156106cd57604051631be65fe560e21b815260040160405180910390fd5b60005b825181101561073f5760008382815181106106ed576106ed610ca1565b6020908102919091018101516001600160e01b031981166000908152918590526040909120549091506001600160a01b031661072a848284610942565b5050808061073790610ce3565b9150506106d0565b50505050565b6001600160a01b038216610777578051156107735760405163c21b1ab760e01b815260040160405180910390fd5b5050565b805160000361079957604051633011e86160e21b815260040160405180910390fd5b6001600160a01b03821630146107b2576107b282610c81565b600080836001600160a01b0316836040516107cd9190610ea0565b600060405180830381855af49150503d8060008114610808576040519150601f19603f3d011682016040523d82523d6000602084013e61080d565b606091505b50915091508161073f57805115610838578060405162461bcd60e51b81526004016100a29190610ebc565b604051633a18f8dd60e01b815260040160405180910390fd5b61085a81610c81565b6003820180546001600160a01b0390921660008181526001948501602090815260408220860185905594840183559182529290200180546001600160a01b0319169091179055565b6001600160e01b0319831660008181526020868152604080832080546001600160601b03909716600160a01b026001600160a01b0397881617815594909516808352600180890183529583208054968701815583528183206008870401805460e09890981c60046007909816979097026101000a96870263ffffffff9097021990971695909517909555529290915281546001600160a01b031916179055565b6001600160a01b03821661097457604051622902d360e91b81526001600160e01b0319821660048201526024016100a2565b306001600160a01b038316036109a95760405163069731c560e41b81526001600160e01b0319821660048201526024016100a2565b6001600160e01b03198116600090815260208481526040808320546001600160a01b0386168452600180880190935290832054600160a01b9091046001600160601b031692916109f891610ed6565b9050808214610aea576001600160a01b03841660009081526001860160205260408120805483908110610a2d57610a2d610ca1565b600091825260208083206008830401546001600160a01b038916845260018a019091526040909220805460079092166004026101000a90920460e01b925082919085908110610a7e57610a7e610ca1565b600091825260208083206008830401805463ffffffff60079094166004026101000a938402191660e09590951c929092029390931790556001600160e01b03199290921682528690526040902080546001600160a01b0316600160a01b6001600160601b038516021790555b6001600160a01b03841660009081526001860160205260409020805480610b1357610b13610eef565b60008281526020808220600860001990940193840401805463ffffffff600460078716026101000a0219169055919092556001600160e01b0319851682528690526040812081905581900361052a576003850154600090610b7690600190610ed6565b6001600160a01b0386166000908152600180890160205260409091200154909150808214610c25576000876003018381548110610bb557610bb5610ca1565b6000918252602090912001546003890180546001600160a01b039092169250829184908110610be657610be6610ca1565b600091825260208083209190910180546001600160a01b0319166001600160a01b03948516179055929091168152600189810190925260409020018190555b86600301805480610c3857610c38610eef565b60008281526020808220830160001990810180546001600160a01b03191690559092019092556001600160a01b0388168252600189810190915260408220015550505050505050565b803b8061077357604051633c11a9c560e21b815260040160405180910390fd5b634e487b7160e01b600052603260045260246000fd5b634e487b7160e01b600052602160045260246000fd5b634e487b7160e01b600052601160045260246000fd5b600060018201610cf557610cf5610ccd565b5060010190565b60005b83811015610d17578181015183820152602001610cff565b50506000910152565b60008151808452610d38816020860160208601610cfc565b601f01601f19169290920160200192915050565b60006060808301818452808751808352608092508286019150828160051b8701016020808b0160005b84811015610e1c57898403607f19018652815180516001600160a01b03168552838101518986019060038110610dbb57634e487b7160e01b600052602160045260246000fd5b868601526040918201519186018a905281519081905290840190600090898701905b80831015610e075783516001600160e01b0319168252928601926001929092019190860190610ddd565b50978501979550505090820190600101610d75565b50506001600160a01b038a16908801528681036040880152610e3e8189610d20565b9a9950505050505050505050565b604081526000610e5f6040830185610d20565b8281036020840152610e718185610d20565b95945050505050565b60006001600160601b03808316818103610e9657610e96610ccd565b6001019392505050565b60008251610eb2818460208701610cfc565b9190910192915050565b602081526000610ecf6020830184610d20565b9392505050565b81810381811115610ee957610ee9610ccd565b92915050565b634e487b7160e01b600052603160045260246000fdfea264697066735822122071b3a412af1f638bcd495ee380440c1080e5121195b203f77562a1e540e9a7d864736f6c63430008120033",
    "linkReferences": {}
  },
  "methodIdentifiers": {
    "vaultFactoryDiamond()": "66bd442d"
  },
  "id": 0
}