{
  "abi": [
    {
      "inputs": [],
      "stateMutability": "payable",
      "type": "constructor"
    },
    {
      "inputs": [],
      "name": "EmptyCalldata",
      "type": "error"
    },
    {
      "inputs": [
        {
          "internalType": "bytes4",
          "name": "selector",
          "type": "bytes4"
        }
      ],
      "name": "ImmutableFunction",
      "type": "error"
    },
    {
      "inputs": [],
      "name": "InValidFacetCutAction",
      "type": "error"
    },
    {
      "inputs": [],
      "name": "InitCallFailed",
      "type": "error"
    },
    {
      "inputs": [],
      "name": "MustBeZeroAddress",
      "type": "error"
    },
    {
      "inputs": [],
      "name": "NoCode",
      "type": "error"
    },
    {
      "inputs": [],
      "name": "NoSelectorsInFacet",
      "type": "error"
    },
    {
      "inputs": [],
      "name": "NoZeroAddress",
      "type": "error"
    },
    {
      "inputs": [],
      "name": "NonEmptyCalldata",
      "type": "error"
    },
    {
      "inputs": [
        {
          "internalType": "bytes4",
          "name": "selector",
          "type": "bytes4"
        }
      ],
      "name": "NonExistentSelector",
      "type": "error"
    },
    {
      "inputs": [
        {
          "internalType": "bytes4",
          "name": "selector",
          "type": "bytes4"
        }
      ],
      "name": "SameSelectorReplacement",
      "type": "error"
    },
    {
      "inputs": [
        {
          "internalType": "bytes4",
          "name": "selector",
          "type": "bytes4"
        }
      ],
      "name": "SelectorExists",
      "type": "error"
    },
    {
      "anonymous": false,
      "inputs": [
        {
          "indexed": false,
          "internalType": "bytes32",
          "name": "slot",
          "type": "bytes32"
        }
      ],
      "name": "SlotWrittenTo",
      "type": "event"
    },
    {
      "stateMutability": "payable",
      "type": "fallback"
    },
    {
      "inputs": [
        {
          "internalType": "address",
          "name": "_diamondCutFacet",
          "type": "address"
        },
        {
          "internalType": "address",
          "name": "_backup",
          "type": "address"
        }
      ],
      "name": "init",
      "outputs": [],
      "stateMutability": "nonpayable",
      "type": "function"
    },
    {
      "stateMutability": "payable",
      "type": "receive"
    }
  ],
  "bytecode": {
    "object": "0x608060405260003290506200001f816200002660201b6200038d1760201c565b50620002a3565b60006200003d6200009360201b620003ed1760201c565b6001810180546001600160a01b038581166001600160a01b031983168117909355604051939450169182907f8be0079c531659141344cd1fd0a4f28419497f9722a3daafe3b4186f6b6457e090600090a3505050565b6000806200015d60405180604001604052600f8152806020016e111a585b5bdb9910dd5d119858d95d608a1b81525060405180604001604052600a81528060200169115490cc8c119858d95d60b21b81525060405180604001604052600b8152806020016a115490cdcc8c519858d95d60aa1b81525060405180604001604052600c8152806020016b115490cc4c4d4d519858d95d60a21b81525060405180604001604052600a8152806020016915985d5b1d119858d95d60b21b8152506200019960201b60201c565b90506000604051806020016200017390620001d7565b601f1982820381018352601f909101166040528051602091909101209190911892915050565b60008585858585604051602001620001b69594939291906200022c565b60405160208183030381529060405280519060200120905095945050505050565b608d80620016d383390190565b6000815180845260005b818110156200020c57602081850181015186830182015201620001ee565b506000602082860101526020601f19601f83011685010191505092915050565b60a0815260006200024160a0830188620001e4565b8281036020840152620002558188620001e4565b905082810360408401526200026b8187620001e4565b90508281036060840152620002818186620001e4565b90508281036080840152620002978185620001e4565b98975050505050505050565b61142080620002b36000396000f3fe6080604052600436106100225760003560e01c8063f09a4016146100cf57610029565b3661002957005b60006100336100f1565b600080356001600160e01b0319168152602082905260409020549091506001600160a01b0316806100ab5760405162461bcd60e51b815260206004820181905260248201527f4469616d6f6e643a2046756e6374696f6e20646f6573206e6f7420657869737460448201526064015b60405180910390fd5b3660008037600080366000845af43d6000803e8080156100ca573d6000f35b3d6000fd5b3480156100db57600080fd5b506100ef6100ea366004611043565b610188565b005b60008061014e60405180604001604052600f8152806020016e111a585b5bdb9910dd5d119858d95d608a1b81525060405180604001604052601181528060200170111a585b5bdb99131bdd5c19519858d95d607a1b8152506104af565b90506000604051806020016101629061101b565b601f1982820381018352601f909101166040528051602091909101209190911892915050565b60006101926103ed565b60005490915060ff16156101a8576101a8611076565b6101b06104e2565b6001600160a01b0316336001600160a01b031614806101e757506101d26104e2565b6001600160a01b0316326001600160a01b0316145b6101f3576101f3611076565b604080516001808252818301909252600091816020015b6040805160608082018352600080835260208301529181019190915281526020019060019003908161020a5750506040805160028082526060820183529293506000929091602083019080368337019050509050631f931c1c60e01b816000815181106102795761027961108c565b6001600160e01b031990921660209283029190910190910152805163a2a12bfb60e01b90829060019081106102b0576102b061108c565b6001600160e01b031990921660209283029190910182015260408051606081019091526001600160a01b03871681529081016000815260200182815250826000815181106103005761030061108c565b6020026020010181905250610326826000604051806020016040528060008152506104fe565b6003830180546001600160a01b0319166001600160a01b0386161790556000805460ff1916600117905560405183815283907fea758a5dc298aa5c6654519a7bef61995e50b3ba4767069e0238a28b7f407b279060200160405180910390a1505050505050565b60006103976103ed565b6001810180546001600160a01b038581166001600160a01b031983168117909355604051939450169182907f8be0079c531659141344cd1fd0a4f28419497f9722a3daafe3b4186f6b6457e090600090a3505050565b60008061014e60405180604001604052600f8152806020016e111a585b5bdb9910dd5d119858d95d608a1b81525060405180604001604052600a81528060200169115490cc8c119858d95d60b21b81525060405180604001604052600b8152806020016a115490cdcc8c519858d95d60aa1b81525060405180604001604052600c8152806020016b115490cc4c4d4d519858d95d60a21b81525060405180604001604052600a8152806020016915985d5b1d119858d95d60b21b8152506106cf565b600082826040516020016104c4929190611108565b60405160208183030381529060405280519060200120905092915050565b60006104ec6103ed565b600101546001600160a01b0316919050565b60005b835181101561068457600084828151811061051e5761051e61108c565b60200260200101516020015190506000600281111561053f5761053f6110a2565b816002811115610551576105516110a2565b0361059f5761059a85838151811061056b5761056b61108c565b6020026020010151600001518684815181106105895761058961108c565b60200260200101516040015161070b565b610671565b60018160028111156105b3576105b36110a2565b036105fc5761059a8583815181106105cd576105cd61108c565b6020026020010151600001518684815181106105eb576105eb61108c565b602002602001015160400151610876565b6002816002811115610610576106106110a2565b036106595761059a85838151811061062a5761062a61108c565b6020026020010151600001518684815181106106485761064861108c565b6020026020010151604001516109bc565b60405162c5e5d760e31b815260040160405180910390fd5b508061067c8161114c565b915050610501565b507f8faa70878671ccd212d20771b795c50af8fd3ff6cf27f4bde57e5d4de0aeb6738383836040516106b893929190611165565b60405180910390a16106ca8282610ab8565b505050565b600085858585856040516020016106ea959493929190611265565b60405160208183030381529060405280519060200120905095945050505050565b600081511161072d5760405163092d2fe560e41b815260040160405180910390fd5b60006107376100f1565b90506001600160a01b0383166107605760405163ddbadd5f60e01b815260040160405180910390fd5b6001600160a01b0383166000908152600182016020526040812054906001600160601b0382169003610796576107968285610bca565b60005b83518110156108415760008482815181106107b6576107b661108c565b6020908102919091018101516001600160e01b031981166000908152918690526040909120549091506001600160a01b031680156108135760405163501e70c760e01b81526001600160e01b0319831660048201526024016100a2565b61081f8583868a610c1b565b83610829816112d2565b945050505080806108399061114c565b915050610799565b50604051829081907fea758a5dc298aa5c6654519a7bef61995e50b3ba4767069e0238a28b7f407b2790600090a25050505050565b60008151116108985760405163092d2fe560e41b815260040160405180910390fd5b60006108a26100f1565b90506001600160a01b0383166108cb5760405163ddbadd5f60e01b815260040160405180910390fd5b6001600160a01b0383166000908152600182016020526040812054906001600160601b0382169003610901576109018285610bca565b60005b83518110156108415760008482815181106109215761092161108c565b6020908102919091018101516001600160e01b031981166000908152918690526040909120549091506001600160a01b03908116908716810361098357604051631c04188b60e31b81526001600160e01b0319831660048201526024016100a2565b61098e858284610cbb565b61099a8583868a610c1b565b836109a4816112d2565b945050505080806109b49061114c565b915050610904565b60008151116109de5760405163092d2fe560e41b815260040160405180910390fd5b60006109e86100f1565b90506001600160a01b03831615610a1257604051631be65fe560e21b815260040160405180910390fd5b60005b8251811015610a84576000838281518110610a3257610a3261108c565b6020908102919091018101516001600160e01b031981166000908152918590526040909120549091506001600160a01b0316610a6f848284610cbb565b50508080610a7c9061114c565b915050610a15565b50604051819081907fea758a5dc298aa5c6654519a7bef61995e50b3ba4767069e0238a28b7f407b2790600090a250505050565b6001600160a01b038216610aea57805115610ae65760405163c21b1ab760e01b815260040160405180910390fd5b5050565b8051600003610b0c57604051633011e86160e21b815260040160405180910390fd5b6001600160a01b0382163014610b2557610b2582610ffb565b600080836001600160a01b031683604051610b4091906112f8565b600060405180830381855af49150503d8060008114610b7b576040519150601f19603f3d011682016040523d82523d6000602084013e610b80565b606091505b509150915081610bc457805115610bab578060405162461bcd60e51b81526004016100a29190611314565b604051633a18f8dd60e01b815260040160405180910390fd5b50505050565b610bd381610ffb565b6002820180546001600160a01b0390921660008181526001948501602090815260408220860185905594840183559182529290200180546001600160a01b0319169091179055565b6001600160e01b0319831660008181526020868152604080832080546001600160601b03909716600160a01b026001600160a01b0397881617815594909516808352600180890183529583208054968701815583528183206008870401805460e09890981c60046007909816979097026101000a96870263ffffffff9097021990971695909517909555529290915281546001600160a01b031916179055565b6001600160a01b038216610ced57604051622902d360e91b81526001600160e01b0319821660048201526024016100a2565b306001600160a01b03831603610d225760405163069731c560e41b81526001600160e01b0319821660048201526024016100a2565b6001600160e01b03198116600090815260208481526040808320546001600160a01b0386168452600180880190935290832054600160a01b9091046001600160601b03169291610d719161132e565b9050808214610e63576001600160a01b03841660009081526001860160205260408120805483908110610da657610da661108c565b600091825260208083206008830401546001600160a01b038916845260018a019091526040909220805460079092166004026101000a90920460e01b925082919085908110610df757610df761108c565b600091825260208083206008830401805463ffffffff60079094166004026101000a938402191660e09590951c929092029390931790556001600160e01b03199290921682528690526040902080546001600160a01b0316600160a01b6001600160601b038516021790555b6001600160a01b03841660009081526001860160205260409020805480610e8c57610e8c611347565b60008281526020808220600860001990940193840401805463ffffffff600460078716026101000a0219169055919092556001600160e01b03198516825286905260408120819055819003610ff4576002850154600090610eef9060019061132e565b6001600160a01b0386166000908152600180890160205260409091200154909150808214610f9e576000876002018381548110610f2e57610f2e61108c565b6000918252602090912001546002890180546001600160a01b039092169250829184908110610f5f57610f5f61108c565b600091825260208083209190910180546001600160a01b0319166001600160a01b03948516179055929091168152600189810190925260409020018190555b86600201805480610fb157610fb1611347565b60008281526020808220830160001990810180546001600160a01b03191690559092019092556001600160a01b0388168252600189810190915260408220015550505b5050505050565b803b80610ae657604051633c11a9c560e21b815260040160405180910390fd5b608d8061135e83390190565b80356001600160a01b038116811461103e57600080fd5b919050565b6000806040838503121561105657600080fd5b61105f83611027565b915061106d60208401611027565b90509250929050565b634e487b7160e01b600052600160045260246000fd5b634e487b7160e01b600052603260045260246000fd5b634e487b7160e01b600052602160045260246000fd5b60005b838110156110d35781810151838201526020016110bb565b50506000910152565b600081518084526110f48160208601602086016110b8565b601f01601f19169290920160200192915050565b60408152600061111b60408301856110dc565b828103602084015261112d81856110dc565b95945050505050565b634e487b7160e01b600052601160045260246000fd5b60006001820161115e5761115e611136565b5060010190565b60006060808301818452808751808352608092508286019150828160051b8701016020808b0160005b8481101561123557898403607f19018652815180516001600160a01b031685528381015189860190600381106111d457634e487b7160e01b600052602160045260246000fd5b868601526040918201519186018a905281519081905290840190600090898701905b808310156112205783516001600160e01b03191682529286019260019290920191908601906111f6565b5097850197955050509082019060010161118e565b50506001600160a01b038a1690880152868103604088015261125781896110dc565b9a9950505050505050505050565b60a08152600061127860a08301886110dc565b828103602084015261128a81886110dc565b9050828103604084015261129e81876110dc565b905082810360608401526112b281866110dc565b905082810360808401526112c681856110dc565b98975050505050505050565b60006001600160601b038083168181036112ee576112ee611136565b6001019392505050565b6000825161130a8184602087016110b8565b9190910192915050565b60208152600061132760208301846110dc565b9392505050565b8181038181111561134157611341611136565b92915050565b634e487b7160e01b600052603160045260246000fdfe60566037600b82828239805160001a607314602a57634e487b7160e01b600052600060045260246000fd5b30600052607381538281f3fe73000000000000000000000000000000000000000030146080604052600080fdfea2646970667358221220d3490995da7c482656cf5299d05897e7ad36d1e947ab8134ff8177e69fb907fa64736f6c63430008120033a26469706673582212206ecee46f126d3884de25254292e9d459947b4a0bde4a476cd55a9075fa6c685464736f6c6343000812003360566037600b82828239805160001a607314602a57634e487b7160e01b600052600060045260246000fd5b30600052607381538281f3fe73000000000000000000000000000000000000000030146080604052600080fdfea2646970667358221220d3490995da7c482656cf5299d05897e7ad36d1e947ab8134ff8177e69fb907fa64736f6c63430008120033",
    "linkReferences": {}
  },
  "methodIdentifiers": {
    "init(address,address)": "f09a4016"
  },
  "id": 0
}