{
  "abi": [
    {
      "inputs": [],
      "name": "ActiveInheritor",
      "type": "error"
    },
    {
      "inputs": [],
      "name": "Claimed",
      "type": "error"
    },
    {
      "inputs": [],
      "name": "EmptyArray",
      "type": "error"
    },
    {
      "inputs": [
        {
          "internalType": "uint256",
          "name": "overflow",
          "type": "uint256"
        }
      ],
      "name": "EtherAllocationOverflow",
      "type": "error"
    },
    {
      "inputs": [],
      "name": "HasExpired",
      "type": "error"
    },
    {
      "inputs": [],
      "name": "InactiveInheritor",
      "type": "error"
    },
    {
      "inputs": [],
      "name": "LengthMismatch",
      "type": "error"
    },
    {
      "inputs": [],
      "name": "NotExpired",
      "type": "error"
    },
    {
      "inputs": [],
      "name": "NotInheritor",
      "type": "error"
    },
    {
      "inputs": [],
      "name": "NotVaultOwner",
      "type": "error"
    },
    {
      "inputs": [
        {
          "internalType": "address",
          "name": "token",
          "type": "address"
        },
        {
          "internalType": "uint256",
          "name": "overflow",
          "type": "uint256"
        }
      ],
      "name": "TokenAllocationOverflow",
      "type": "error"
    },
    {
      "inputs": [
        {
          "internalType": "address[]",
          "name": "_newInheritors",
          "type": "address[]"
        },
        {
          "internalType": "uint256[]",
          "name": "_weiShare",
          "type": "uint256[]"
        }
      ],
      "name": "addInheritors",
      "outputs": [],
      "stateMutability": "nonpayable",
      "type": "function"
    },
    {
      "inputs": [],
      "name": "allEtherAllocations",
      "outputs": [
        {
          "components": [
            {
              "internalType": "address",
              "name": "inheritor",
              "type": "address"
            },
            {
              "internalType": "uint256",
              "name": "weiAlloc",
              "type": "uint256"
            }
          ],
          "internalType": "struct DMSFacet.AllInheritorEtherAllocs[]",
          "name": "eAllocs",
          "type": "tuple[]"
        }
      ],
      "stateMutability": "view",
      "type": "function"
    },
    {
      "inputs": [
        {
          "internalType": "address",
          "name": "token",
          "type": "address"
        },
        {
          "internalType": "address[]",
          "name": "_inheritors",
          "type": "address[]"
        },
        {
          "internalType": "uint256[]",
          "name": "_tokenIDs",
          "type": "uint256[]"
        },
        {
          "internalType": "uint256[]",
          "name": "_amounts",
          "type": "uint256[]"
        }
      ],
      "name": "allocateERC1155Tokens",
      "outputs": [],
      "stateMutability": "nonpayable",
      "type": "function"
    },
    {
      "inputs": [
        {
          "internalType": "address",
          "name": "token",
          "type": "address"
        },
        {
          "internalType": "address[]",
          "name": "_inheritors",
          "type": "address[]"
        },
        {
          "internalType": "uint256[]",
          "name": "_shares",
          "type": "uint256[]"
        }
      ],
      "name": "allocateERC20Tokens",
      "outputs": [],
      "stateMutability": "nonpayable",
      "type": "function"
    },
    {
      "inputs": [
        {
          "internalType": "address",
          "name": "token",
          "type": "address"
        },
        {
          "internalType": "address[]",
          "name": "_inheritors",
          "type": "address[]"
        },
        {
          "internalType": "uint256[]",
          "name": "_tokenIDs",
          "type": "uint256[]"
        }
      ],
      "name": "allocateERC721Tokens",
      "outputs": [],
      "stateMutability": "nonpayable",
      "type": "function"
    },
    {
      "inputs": [
        {
          "internalType": "address[]",
          "name": "_inheritors",
          "type": "address[]"
        },
        {
          "internalType": "uint256[]",
          "name": "_ethShares",
          "type": "uint256[]"
        }
      ],
      "name": "allocateEther",
      "outputs": [],
      "stateMutability": "nonpayable",
      "type": "function"
    },
    {
      "inputs": [],
      "name": "claimAllAllocations",
      "outputs": [],
      "stateMutability": "nonpayable",
      "type": "function"
    },
    {
      "inputs": [],
      "name": "etherBalance",
      "outputs": [
        {
          "internalType": "uint256",
          "name": "",
          "type": "uint256"
        }
      ],
      "stateMutability": "view",
      "type": "function"
    },
    {
      "inputs": [
        {
          "internalType": "address",
          "name": "_inheritor",
          "type": "address"
        }
      ],
      "name": "getAllAllocatedERC1155Tokens",
      "outputs": [
        {
          "components": [
            {
              "internalType": "address",
              "name": "token",
              "type": "address"
            },
            {
              "internalType": "uint256",
              "name": "tokenID",
              "type": "uint256"
            },
            {
              "internalType": "uint256",
              "name": "amount",
              "type": "uint256"
            }
          ],
          "internalType": "struct DMSFacet.AllAllocatedERC1155Tokens[]",
          "name": "alloc_",
          "type": "tuple[]"
        }
      ],
      "stateMutability": "view",
      "type": "function"
    },
    {
      "inputs": [
        {
          "internalType": "address",
          "name": "_token",
          "type": "address"
        },
        {
          "internalType": "address",
          "name": "_inheritor",
          "type": "address"
        }
      ],
      "name": "getAllocatedERC1155Tokens",
      "outputs": [
        {
          "components": [
            {
              "internalType": "uint256",
              "name": "tokenID",
              "type": "uint256"
            },
            {
              "internalType": "uint256",
              "name": "amount",
              "type": "uint256"
            }
          ],
          "internalType": "struct DMSFacet.AllocatedERC1155Tokens[]",
          "name": "alloc_",
          "type": "tuple[]"
        }
      ],
      "stateMutability": "view",
      "type": "function"
    },
    {
      "inputs": [
        {
          "internalType": "address",
          "name": "_inheritor",
          "type": "address"
        }
      ],
      "name": "getAllocatedERC20Tokens",
      "outputs": [
        {
          "components": [
            {
              "internalType": "address",
              "name": "token",
              "type": "address"
            },
            {
              "internalType": "uint256",
              "name": "amount",
              "type": "uint256"
            }
          ],
          "internalType": "struct DMSFacet.AllocatedERC20Tokens[]",
          "name": "tAllocs",
          "type": "tuple[]"
        }
      ],
      "stateMutability": "view",
      "type": "function"
    },
    {
      "inputs": [
        {
          "internalType": "address",
          "name": "_inheritor",
          "type": "address"
        }
      ],
      "name": "getAllocatedERC721TokenAddresses",
      "outputs": [
        {
          "internalType": "address[]",
          "name": "",
          "type": "address[]"
        }
      ],
      "stateMutability": "view",
      "type": "function"
    },
    {
      "inputs": [
        {
          "internalType": "address",
          "name": "_inheritor",
          "type": "address"
        },
        {
          "internalType": "address",
          "name": "_token",
          "type": "address"
        }
      ],
      "name": "getAllocatedERC721TokenIds",
      "outputs": [
        {
          "internalType": "uint256[]",
          "name": "",
          "type": "uint256[]"
        }
      ],
      "stateMutability": "view",
      "type": "function"
    },
    {
      "inputs": [
        {
          "internalType": "address",
          "name": "_inheritor",
          "type": "address"
        }
      ],
      "name": "getAllocatedERC721Tokens",
      "outputs": [
        {
          "components": [
            {
              "internalType": "address",
              "name": "token",
              "type": "address"
            },
            {
              "internalType": "uint256[]",
              "name": "tokenIDs",
              "type": "uint256[]"
            }
          ],
          "internalType": "struct DMSFacet.AllocatedERC721Tokens[]",
          "name": "allocated",
          "type": "tuple[]"
        }
      ],
      "stateMutability": "view",
      "type": "function"
    },
    {
      "inputs": [],
      "name": "getAllocatedEther",
      "outputs": [
        {
          "internalType": "uint256",
          "name": "",
          "type": "uint256"
        }
      ],
      "stateMutability": "view",
      "type": "function"
    },
    {
      "inputs": [
        {
          "internalType": "address",
          "name": "_token",
          "type": "address"
        },
        {
          "internalType": "uint256",
          "name": "_tokenId",
          "type": "uint256"
        }
      ],
      "name": "getUnallocatedERC115Tokens",
      "outputs": [
        {
          "internalType": "uint256",
          "name": "remaining_",
          "type": "uint256"
        }
      ],
      "stateMutability": "view",
      "type": "function"
    },
    {
      "inputs": [],
      "name": "getUnallocatedEther",
      "outputs": [
        {
          "internalType": "uint256",
          "name": "unallocated_",
          "type": "uint256"
        }
      ],
      "stateMutability": "view",
      "type": "function"
    },
    {
      "inputs": [
        {
          "internalType": "address",
          "name": "_token",
          "type": "address"
        }
      ],
      "name": "getUnallocatedTokens",
      "outputs": [
        {
          "internalType": "uint256",
          "name": "unallocated_",
          "type": "uint256"
        }
      ],
      "stateMutability": "view",
      "type": "function"
    },
    {
      "inputs": [
        {
          "internalType": "address",
          "name": "_inheritor",
          "type": "address"
        },
        {
          "internalType": "address",
          "name": "_token",
          "type": "address"
        }
      ],
      "name": "inheritorERC20TokenAllocation",
      "outputs": [
        {
          "internalType": "uint256",
          "name": "",
          "type": "uint256"
        }
      ],
      "stateMutability": "view",
      "type": "function"
    },
    {
      "inputs": [
        {
          "internalType": "address",
          "name": "_inheritor",
          "type": "address"
        }
      ],
      "name": "inheritorEtherAllocation",
      "outputs": [
        {
          "internalType": "uint256",
          "name": "_allocatedEther",
          "type": "uint256"
        }
      ],
      "stateMutability": "view",
      "type": "function"
    },
    {
      "inputs": [],
      "name": "inspectVault",
      "outputs": [
        {
          "components": [
            {
              "internalType": "address",
              "name": "owner",
              "type": "address"
            },
            {
              "internalType": "uint256",
              "name": "weiBalance",
              "type": "uint256"
            },
            {
              "internalType": "uint256",
              "name": "lastPing",
              "type": "uint256"
            },
            {
              "internalType": "uint256",
              "name": "id",
              "type": "uint256"
            },
            {
              "internalType": "address",
              "name": "backup",
              "type": "address"
            },
            {
              "internalType": "address[]",
              "name": "inheritors",
              "type": "address[]"
            }
          ],
          "internalType": "struct DMSFacet.VaultInfo",
          "name": "info",
          "type": "tuple"
        }
      ],
      "stateMutability": "view",
      "type": "function"
    },
    {
      "inputs": [
        {
          "internalType": "address[]",
          "name": "_inheritors",
          "type": "address[]"
        }
      ],
      "name": "removeInheritors",
      "outputs": [],
      "stateMutability": "nonpayable",
      "type": "function"
    }
  ],
  "bytecode": {
    "object": "0x608060405234801561001057600080fd5b50614c43806100206000396000f3fe608060405234801561001057600080fd5b50600436106101425760003560e01c80639a8322f8116100b8578063a9fc38e51161007c578063a9fc38e5146102b2578063ad66e52a146102c5578063b045e60a146102cb578063ba2fa4a0146102eb578063ef8f26e0146102fe578063fa27625e1461031357600080fd5b80639a8322f81461025c5780639ff439e21461027c578063a1c5ab021461028f578063a3fdeb75146102a2578063a677596e146102aa57600080fd5b80635c69964d1161010a5780635c69964d146101ce5780635d3066bc146101e357806363dfdbf4146101f657806368716d5c1461021657806372cbcf92146102365780639355e1a11461024957600080fd5b80630f8e1f3214610147578063233e3aa1146101705780632f4eaf4b1461018657806330c2ec26146101a65780635ba15d1c146101bb575b600080fd5b61015a610155366004614352565b610326565b604051610167919061438b565b60405180910390f35b6101786104b2565b604051908152602001610167565b610199610194366004614352565b6104c1565b60405161016791906143da565b6101b96101b436600461446a565b610554565b005b6101786101c9366004614352565b610570565b6101d66105ac565b60405161016791906144ed565b6101b96101f136600461446a565b610701565b610209610204366004614540565b610716565b6040516101679190614564565b610229610224366004614540565b610956565b60405161016791906145b9565b610178610244366004614662565b610b15565b6101b961025736600461468e565b610bb2565b61026f61026a366004614540565b610bd2565b604051610167919061473b565b61017861028a366004614540565b610d3d565b61017861029d366004614540565b610d91565b6101b9610e27565b610178610e31565b6101b96102c036600461478e565b610e53565b47610178565b6102de6102d9366004614540565b610e6d565b604051610167919061483e565b6101b96102f9366004614851565b610efc565b610306610f12565b6040516101679190614893565b6101b961032136600461478e565b611017565b60606103318261102b565b50600061033c611076565b6001600160a01b038085166000908152600d8301602090815260408083209389168352929052205490915080156104aa578067ffffffffffffffff811115610386576103866148ec565b6040519080825280602002602001820160405280156103cb57816020015b60408051808201909152600080825260208201528152602001906001900390816103a45790505b50925060005b818110156104a8576001600160a01b038086166000908152600d850160209081526040808320938a16835292905290812080548390811061041457610414614902565b906000526020600020015490508085838151811061043457610434614902565b602090810291909101810151919091526001600160a01b038088166000908152600b870183526040808220928b168252918352818120848252909252902054855186908490811061048757610487614902565b602090810291909101810151015250806104a08161492e565b9150506103d1565b505b505092915050565b60006104bc6110f2565b905090565b606060006104cd611076565b90506104d88461102b565b506001600160a01b038085166000908152600d8301602090815260408083209387168352928152908290208054835181840281018401909452808452909183018282801561054557602002820191906000526020600020905b815481526020019060010190808311610531575b50505050509150505b92915050565b61055c611171565b6105698585858585611179565b5050505050565b60008061057b611076565b6001600160a01b03948516600090815260049190910160209081526040808320959096168252939093525050205490565b606060006105b8611076565b80549091508067ffffffffffffffff8111156105d6576105d66148ec565b60405190808252806020026020018201604052801561061b57816020015b60408051808201909152600080825260208201528152602001906001900390816105f45790505b50925060005b818110156106fb5782600001818154811061063e5761063e614902565b9060005260206000200160009054906101000a90046001600160a01b031684828151811061066e5761066e614902565b60209081029190910101516001600160a01b039091169052825460028401906000908590849081106106a2576106a2614902565b60009182526020808320909101546001600160a01b0316835282019290925260400190205484518590839081106106db576106db614902565b6020908102919091018101510152806106f38161492e565b915050610621565b50505090565b610709611171565b6105698585858585611b58565b60606107218261102b565b50600061072c611076565b6001600160a01b0384166000908152600c820160205260408120549192505b8181101561094e576001600160a01b0385166000908152600c84016020526040812080548390811061077f5761077f614902565b60009182526020808320909101546001600160a01b038981168452600d880183526040808520919092168085529252909120549091508067ffffffffffffffff8111156107ce576107ce6148ec565b60405190808252806020026020018201604052801561082c57816020015b610819604051806060016040528060006001600160a01b0316815260200160008152602001600081525090565b8152602001906001900390816107ec5790505b50955060005b81811015610938576001600160a01b038089166000908152600d880160209081526040808320938716835292905290812080548390811061087557610875614902565b906000526020600020015490508088838151811061089557610895614902565b6020908102919091018101518101919091526001600160a01b03808b166000908152600b8a0183526040808220928816825291835281812084825290925290205488518990849081106108ea576108ea614902565b602002602001015160400181815250508388838151811061090d5761090d614902565b60209081029190910101516001600160a01b03909116905250806109308161492e565b915050610832565b50505080806109469061492e565b91505061074b565b505050919050565b60606000610962611076565b905061096d8361102b565b506001600160a01b0383166000908152600a820160205260409020548015610b0e578067ffffffffffffffff8111156109a8576109a86148ec565b6040519080825280602002602001820160405280156109ee57816020015b6040805180820190915260008152606060208201528152602001906001900390816109c65790505b50925060005b8181101561094e576001600160a01b0385166000908152600a840160205260408120805483908110610a2857610a28614902565b9060005260206000200160009054906101000a90046001600160a01b0316905080858381518110610a5b57610a5b614902565b6020908102919091018101516001600160a01b0392831690528782166000908152600d870182526040808220938516825292825282902080548351818402810184019094528084529091830182828015610ad457602002820191906000526020600020905b815481526020019060010190808311610ac0575b5050505050858381518110610aeb57610aeb614902565b602002602001015160200181905250508080610b069061492e565b9150506109f4565b5050919050565b600080610b22848461201c565b604051627eeac760e11b8152306004820152602481018590529091506000906001600160a01b0386169062fdd58e90604401602060405180830381865afa158015610b71573d6000803e3d6000fd5b505050506040513d601f19601f82011682018060405250810190610b959190614947565b9050808210156104aa57610ba98282614960565b95945050505050565b610bba611171565b610bc9878787878787876120ab565b50505050505050565b6060610bdd8261102b565b506000610be8611076565b6001600160a01b03841660009081526005820160205260409020549091508015610b0e578067ffffffffffffffff811115610c2557610c256148ec565b604051908082528060200260200182016040528015610c6a57816020015b6040805180820190915260008082526020820152815260200190600190039081610c435790505b50925060005b8181101561094e576001600160a01b03851660009081526005840160205260408120805483908110610ca457610ca4614902565b60009182526020808320909101546001600160a01b038981168452600488018352604080852091909216808552925290912054865191925090869084908110610cef57610cef614902565b6020026020010151602001818152505080858381518110610d1257610d12614902565b60209081029190910101516001600160a01b0390911690525080610d358161492e565b915050610c70565b600080610d48611076565b9050610d53836127b9565b610d70576040516303b47de960e31b815260040160405180910390fd5b6001600160a01b039092166000908152600290920160205250604090205490565b6040516370a0823160e01b815230600482015260009081906001600160a01b038416906370a0823190602401602060405180830381865afa158015610dda573d6000803e3d6000fd5b505050506040513d601f19601f82011682018060405250810190610dfe9190614947565b90506000610e0b84612834565b905080821115610b0e57610e1f8183614960565b949350505050565b610e2f6128c4565b565b6000478015610e4f57610e426110f2565b610e4c9082614960565b91505b5090565b610e5b611171565b610e67848484846129e9565b50505050565b60606000610e79611076565b9050610e848361102b565b506001600160a01b0383166000908152600a8201602090815260409182902080548351818402810184019094528084529091830182828015610eef57602002820191906000526020600020905b81546001600160a01b03168152600190910190602001808311610ed1575b5050505050915050919050565b610f04611171565b610f0e8282612b84565b5050565b610f5d6040518060c0016040528060006001600160a01b0316815260200160008152602001600081526020016000815260200160006001600160a01b03168152602001606081525090565b6000610f67611076565b90506000610f73612d44565b60058101546001600160a01b039081168552476020808701919091526006830154604080880191909152600484015460608801526007840154909216608087015284548251818302810183019093528083529293509091849183018282801561100557602002820191906000526020600020905b81546001600160a01b03168152600190910190602001808311610fe7575b50505050508360a00181905250505090565b61101f611171565b610e6784848484612da1565b600080611036611076565b90506001600160a01b03831661104f5760019150611070565b6001600160a01b038316600090815260018201602052604090205460ff1691505b50919050565b6000806110ca60405180604001604052600f8152806020016e111a585b5bdb9910dd5d119858d95d608a1b81525060405180604001604052600881528060200167111354d19858d95d60c21b815250613002565b7f7f9df2342d5c190c7450de83944c941641ce57327a12faebc868644d2853cdbf1892915050565b6000806110fd611076565b90506000805b825481101561116a5782600201600084600001838154811061112757611127614902565b60009182526020808320909101546001600160a01b031683528201929092526040019020546111569083614973565b9150806111628161492e565b915050611103565b5092915050565b610e2f613035565b821580611184575080155b156111a25760405163521299a960e01b815260040160405180910390fd5b8281146111c5576040516001621398b960e31b0319815260040160405180910390fd5b60006111cf611076565b905060005b84811015611b475761120b8686838181106111f1576111f1614902565b90506020020160208101906112069190614540565b613069565b611228576040516303b47de960e31b815260040160405180910390fd5b61125786868381811061123d5761123d614902565b90506020020160208101906112529190614540565b61102b565b6112745760405163154c589b60e21b815260040160405180910390fd5b85858281811061128657611286614902565b905060200201602081019061129b9190614540565b6001600160a01b03888116600090815260088501602052604081209290911691908686858181106112ce576112ce614902565b60209081029290920135835250810191909152604001600020546001600160a01b031614611b3557866001600160a01b0316636352211e85858481811061131757611317614902565b905060200201356040518263ffffffff1660e01b815260040161133c91815260200190565b602060405180830381865afa925050508015611375575060408051601f3d908101601f1916820190925261137291810190614986565b60015b611403576113816149a3565b806308c379a0036113f757506113956149fa565b806113a057506113f9565b7f696400fbb2b541b300645050eed181b28147aecbe0952a1f8434ee5afa3853748585848181106113d3576113d3614902565b90506020020135826040516113e9929190614aca565b60405180910390a150611b35565b505b3d6000803e3d6000fd5b306001600160a01b03821603611ab9576001600160a01b038816600090815260098401602052604081209086868581811061144057611440614902565b602090810292909201358352508101919091526040016000205460ff161561174c576001600160a01b038816600090815260088401602052604081208187878681811061148f5761148f614902565b60209081029290920135835250810191909152604001600020546001600160a01b031690508787848181106114c6576114c6614902565b90506020020160208101906114db9190614540565b6001600160a01b0316816001600160a01b03161415801561150457506001600160a01b03811615155b80156115405750600088888581811061151f5761151f614902565b90506020020160208101906115349190614540565b6001600160a01b031614155b156115fd576001600160a01b03808a16600081815260068701602090815260408083209486168352938152838220805460ff19169055600d8801815283822092825291909152206115a99087878681811061159d5761159d614902565b905060200201356130e4565b6001600160a01b038082166000908152600d860160209081526040808320938d1683529290529081205490036115fd576001600160a01b0381166000908152600a8501602052604090206115fd908a613265565b600088888581811061161157611611614902565b90506020020160208101906116269190614540565b6001600160a01b031603611746576001600160a01b038916600090815260098501602052604081208188888781811061166157611661614902565b602090810292909201358352508181019290925260409081016000908120805460ff1916941515949094179093556001600160a01b038481168452600d88018352818420908d16845290915290206116c59087878681811061159d5761159d614902565b83600d0160008989868181106116dd576116dd614902565b90506020020160208101906116f29190614540565b6001600160a01b03908116825260208083019390935260409182016000908120918d16815292528120549003611746576001600160a01b0381166000908152600a850160205260409020611746908a613265565b506117a8565b6001600160a01b0388166000908152600984016020526040812060019187878681811061177b5761177b614902565b90506020020135815260200190815260200160002060006101000a81548160ff0219169083151502179055505b8686838181106117ba576117ba614902565b90506020020160208101906117cf9190614540565b6001600160a01b03891660009081526008850160205260408120908787868181106117fc576117fc614902565b90506020020135815260200190815260200160002060006101000a8154816001600160a01b0302191690836001600160a01b0316021790555082600d01600088888581811061184d5761184d614902565b90506020020160208101906118629190614540565b6001600160a01b03908116825260208083019390935260409182016000908120918c168152925281205490036119065782600a0160008888858181106118aa576118aa614902565b90506020020160208101906118bf9190614540565b6001600160a01b03908116825260208083019390935260409091016000908120805460018101825590825292902090910180546001600160a01b031916918a169190911790555b82600d01600088888581811061191e5761191e614902565b90506020020160208101906119339190614540565b6001600160a01b03908116825260208083019390935260409182016000908120918c1681529252902085858481811061196e5761196e614902565b835460018101855560009485526020948590209190940292909201359190920155508484838181106119a2576119a2614902565b90506020020135600003611a1d576001600160a01b038816600090815260068401602052604081206001918989868181106119df576119df614902565b90506020020160208101906119f49190614540565b6001600160a01b031681526020810191909152604001600020805460ff19169115159190911790555b876001600160a01b03167fa26c34551fd02a3dfd31be07594c747b7eff1691ef1b56d8550c653b141d96c2888885818110611a5a57611a5a614902565b9050602002016020810190611a6f9190614540565b878786818110611a8157611a81614902565b90506020020135611a90613437565b604080516001600160a01b03909416845260208401929092529082015260600160405180910390a25b6001600160a01b0381163014611b33577f696400fbb2b541b300645050eed181b28147aecbe0952a1f8434ee5afa385374858584818110611afc57611afc614902565b905060200201356040516113e9918152604060208201819052600990820152682737ba2fa7bbb732b960b91b606082015260800190565b505b80611b3f8161492e565b9150506111d4565b50611b5061344a565b505050505050565b821580611b63575080155b15611b815760405163521299a960e01b815260040160405180910390fd5b828114611ba4576040516001621398b960e31b0319815260040160405180910390fd5b6000611bae611076565b905060005b84811015611fbb57611bea868683818110611bd057611bd0614902565b9050602002016020810190611be59190614540565b6127b9565b611c07576040516303b47de960e31b815260040160405180910390fd5b611c1c86868381811061123d5761123d614902565b611c395760405163154c589b60e21b815260040160405180910390fd5b838382818110611c4b57611c4b614902565b90506020020135826004016000888885818110611c6a57611c6a614902565b9050602002016020810190611c7f9190614540565b6001600160a01b03908116825260208083019390935260409182016000908120918c16815292528120919091556003830190878784818110611cc357611cc3614902565b9050602002016020810190611cd89190614540565b6001600160a01b03908116825260208083019390935260409182016000908120918b168152925290205460ff16158015611d2a57506000848483818110611d2157611d21614902565b90506020020135115b15611e0957816005016000878784818110611d4757611d47614902565b9050602002016020810190611d5c9190614540565b6001600160a01b0390811682526020808301939093526040909101600090812080546001808201835591835293822090930180546001600160a01b031916928b16929092179091556003840190888885818110611dbb57611dbb614902565b9050602002016020810190611dd09190614540565b6001600160a01b03908116825260208083019390935260409182016000908120918c16815292529020805460ff19169115159190911790555b838382818110611e1b57611e1b614902565b90506020020135600003611ee757611e7f826005016000888885818110611e4457611e44614902565b9050602002016020810190611e599190614540565b6001600160a01b03166001600160a01b0316815260200190815260200160002088613265565b6000826003016000888885818110611e9957611e99614902565b9050602002016020810190611eae9190614540565b6001600160a01b03908116825260208083019390935260409182016000908120918c16815292529020805460ff19169115159190911790555b6040516370a0823160e01b81523060048201526000906001600160a01b038916906370a0823190602401602060405180830381865afa158015611f2e573d6000803e3d6000fd5b505050506040513d601f19601f82011682018060405250810190611f529190614947565b905080611f5e89612834565b1115611fa8578781611f6f8a612834565b611f799190614960565b6040516303bcbff560e51b81526001600160a01b03909216600483015260248201526044015b60405180910390fd5b5080611fb38161492e565b915050611bb3565b50611fc461344a565b856001600160a01b03167fc4616b82a48f5da1704849f678831e63874532ee6774872a05091338aa94957d86868686611ffb613437565b60405161200c959493929190614b21565b60405180910390a2505050505050565b600080612027611076565b905060005b81548110156104aa5781600b01600083600001838154811061205057612050614902565b60009182526020808320909101546001600160a01b039081168452838201949094526040928301822093891682529283528181208782529092529020546120979084614973565b9250806120a38161492e565b91505061202c565b8415806120b6575082155b156120d45760405163521299a960e01b815260040160405180910390fd5b8483146120f7576040516001621398b960e31b0319815260040160405180910390fd5b84811461211a576040516001621398b960e31b0319815260040160405180910390fd5b6000612124611076565b905060005b868110156127a657612146888883818110611bd057611bd0614902565b612163576040516303b47de960e31b815260040160405180910390fd5b61217888888381811061123d5761123d614902565b6121955760405163154c589b60e21b815260040160405180910390fd5b8383828181106121a7576121a7614902565b9050602002013582600b0160008a8a858181106121c6576121c6614902565b90506020020160208101906121db9190614540565b6001600160a01b03908116825260208083019390935260409182016000908120918e168152925281209088888581811061221757612217614902565b9050602002013581526020019081526020016000208190555061231082600d0160008a8a8581811061224b5761224b614902565b90506020020160208101906122609190614540565b6001600160a01b03166001600160a01b0316815260200190815260200160002060008b6001600160a01b03166001600160a01b031681526020019081526020016000208054806020026020016040519081016040528092919081815260200182805480156122ed57602002820191906000526020600020905b8154815260200190600101908083116122d9575b505050505087878481811061230457612304614902565b905060200201356134a4565b61239f5781600d01600089898481811061232c5761232c614902565b90506020020160208101906123419190614540565b6001600160a01b03908116825260208083019390935260409182016000908120918d1681529252902086868381811061237c5761237c614902565b835460018101855560009485526020948590209190940292909201359190920155505b61244e82600c0160008a8a858181106123ba576123ba614902565b90506020020160208101906123cf9190614540565b6001600160a01b03166001600160a01b0316815260200190815260200160002080548060200260200160405190810160405280929190818152602001828054801561244357602002820191906000526020600020905b81546001600160a01b03168152600190910190602001808311612425575b50505050508a6134f1565b6124c65781600c01600089898481811061246a5761246a614902565b905060200201602081019061247f9190614540565b6001600160a01b03908116825260208083019390935260409091016000908120805460018101825590825292902090910180546001600160a01b031916918b169190911790555b8383828181106124d8576124d8614902565b905060200201356000036125515761255182600d0160008a8a8581811061250157612501614902565b90506020020160208101906125169190614540565b6001600160a01b03908116825260208083019390935260409182016000908120918e1681529252902087878481811061159d5761159d614902565b81600d01600089898481811061256957612569614902565b905060200201602081019061257e9190614540565b6001600160a01b03908116825260208083019390935260409182016000908120918d168152925281205490036126045761260482600c0160008a8a858181106125c9576125c9614902565b90506020020160208101906125de9190614540565b6001600160a01b03166001600160a01b031681526020019081526020016000208a613265565b60006126288a88888581811061261c5761261c614902565b9050602002013561201c565b905060008a6001600160a01b031662fdd58e308a8a8781811061264d5761264d614902565b6040516001600160e01b031960e087901b1681526001600160a01b0390941660048501526020029190910135602483015250604401602060405180830381865afa15801561269f573d6000803e3d6000fd5b505050506040513d601f19601f820116820180604052508101906126c39190614947565b9050808211156126d8578a611f798284614960565b8a6001600160a01b03167fb1348e9e901bf8e9a805f8e40f70d487ec066f5109f08780ca2748047c2d7ab38b8b8681811061271557612715614902565b905060200201602081019061272a9190614540565b8a8a8781811061273c5761273c614902565b9050602002013589898881811061275557612755614902565b90506020020135612764613437565b604080516001600160a01b039095168552602085019390935291830152606082015260800160405180910390a25050808061279e9061492e565b915050612129565b506127af61344a565b5050505050505050565b6000806127c4611076565b90506001600160a01b0383166127dd5760019150611070565b60005b8154811015610b0e578160000181815481106127fe576127fe614902565b6000918252602090912001546001600160a01b039081169085160361282257600192505b8061282c8161492e565b9150506127e0565b60008061283f611076565b90506000805b82548110156128bc5782600401600084600001838154811061286957612869614902565b60009182526020808320909101546001600160a01b03908116845283820194909452604092830182209389168252929092529020546128a89083614973565b9150806128b48161492e565b915050612845565b509392505050565b6128cd336127b9565b506128d73361102b565b506128e0613550565b6128e93361358f565b60006128f3611076565b336000908152600282016020526040902054909150156129bb5733600081815260028301602052604080822054905190929083908381818185875af1925050503d806000811461295f576040519150601f19603f3d011682016040523d82523d6000602084013e612964565b606091505b505090508061297557612975614b76565b337ff4c8e3a141f402733f36011a62cef94385bf3bc2905fca8df9bab1a429e5199e836129a0613437565b6040805192835260208301919091520160405180910390a250505b6129c36135d8565b6129cb61376f565b6129d3613aa6565b6129dd8133613265565b6129e633613cf8565b50565b8215806129f4575080155b15612a125760405163521299a960e01b815260040160405180910390fd5b828114612a35576040516001621398b960e31b0319815260040160405180910390fd5b6000612a3f611076565b905060005b84811015612b2e57612a6186868381811061123d5761123d614902565b612a7e5760405163154c589b60e21b815260040160405180910390fd5b838382818110612a9057612a90614902565b90506020020135826002016000888885818110612aaf57612aaf614902565b9050602002016020810190612ac49190614540565b6001600160a01b0316815260208101919091526040016000205547612ae76110f2565b1115612b1c5747612af66110f2565b612b009190614960565b60405163587c18e360e11b8152600401611f9f91815260200190565b80612b268161492e565b915050612a44565b50612b3761344a565b7fe2e568f020f7d86eb6d745f975cf3202824ddd526e3f6dce63e3759db1dd2bf185858585612b64613437565b604051612b75959493929190614b21565b60405180910390a15050505050565b6000819003612ba65760405163521299a960e01b815260040160405180910390fd5b612bae613ddd565b6000612bb8611076565b905060005b82811015612cf457816001016000858584818110612bdd57612bdd614902565b9050602002016020810190612bf29190614540565b6001600160a01b0316815260208101919091526040016000205460ff16612c2c576040516303b47de960e31b815260040160405180910390fd5b6000826001016000868685818110612c4657612c46614902565b9050602002016020810190612c5b9190614540565b6001600160a01b031681526020810191909152604001600020805460ff1916911515919091179055612cb382858584818110612c9957612c99614902565b9050602002016020810190612cae9190614540565b613265565b612ce2848483818110612cc857612cc8614902565b9050602002016020810190612cdd9190614540565b613e1d565b80612cec8161492e565b915050612bbd565b50612cfd61344a565b7f5fe98e7641eb6a82c692a0effc68b2c23d0e01735264524c82ff0f947ece1a278383612d28613437565b604051612d3793929190614b8c565b60405180910390a1505050565b6000806110ca60405180604001604052600f8152806020016e111a585b5bdb9910dd5d119858d95d608a1b81525060405180604001604052601181528060200170111a585b5bdb99131bdd5c19519858d95d607a1b815250613002565b821580612dac575080155b15612dca5760405163521299a960e01b815260040160405180910390fd5b828114612ded576040516001621398b960e31b0319815260040160405180910390fd5b612df5613ddd565b600080612e00611076565b905060005b85811015612f5d57848482818110612e1f57612e1f614902565b9050602002013583612e319190614973565b9250816001016000888884818110612e4b57612e4b614902565b9050602002016020810190612e609190614540565b6001600160a01b0316815260208101919091526040016000205460ff1615612e9b5760405163277cf97d60e11b815260040160405180910390fd5b81878783818110612eae57612eae614902565b9050602002016020810190612ec39190614540565b81546001808201845560009384526020842090910180546001600160a01b0319166001600160a01b0393909316929092179091559083820190898985818110612f0e57612f0e614902565b9050602002016020810190612f239190614540565b6001600160a01b031681526020810191909152604001600020805460ff191691151591909117905580612f558161492e565b915050612e05565b50612f6a868686866129e9565b612f7261344a565b7f1a532e29ac61e63a23c4e546447741de6d3f064c4063af802f6da8c5be9807618686612f9d613437565b604051612fac93929190614b8c565b60405180910390a17fe2e568f020f7d86eb6d745f975cf3202824ddd526e3f6dce63e3759db1dd2bf186868686612fe1613437565b604051612ff2959493929190614b21565b60405180910390a1505050505050565b60008282604051602001613017929190614bb0565b60405160208183030381529060405280519060200120905092915050565b61303d612d44565b600501546001600160a01b03163314610e2f57604051630e7fea9d60e01b815260040160405180910390fd5b600080613074611076565b90506001600160a01b03831661308d5760019150611070565b60005b8154811015610b0e578160000181815481106130ae576130ae614902565b6000918252602090912001546001600160a01b03908116908516036130d257600192505b806130dc8161492e565b915050613090565b81546131325760405162461bcd60e51b815260206004820152601a60248201527f4e6f6e2d656c656d656e746564206e756d6265722061727261790000000000006044820152606401611f9f565b600061318d828480548060200260200160405190810160405280929190818152602001828054801561318357602002820191906000526020600020905b81548152602001906001019080831161316f575b505050505061427f565b83549091506001036131c057828054806131a9576131a9614bd5565b600190038181906000526020600020016000905590555b82546001101561326057805b83546131da90600190614960565b81101561323857836131ed826001614973565b815481106131fd576131fd614902565b906000526020600020015484828154811061321a5761321a614902565b600091825260209091200155806132308161492e565b9150506131cc565b508280548061324957613249614bd5565b600190038181906000526020600020016000905590555b505050565b81546132b35760405162461bcd60e51b815260206004820152601b60248201527f4e6f6e2d656c656d656e746564206164647265737320617272617900000000006044820152606401611f9f565b6000613318828480548060200260200160405190810160405280929190818152602001828054801561330e57602002820191906000526020600020905b81546001600160a01b031681526001909101906020018083116132f0575b50505050506142be565b8354909150600103613357578280548061333457613334614bd5565b600082815260209020810160001990810180546001600160a01b03191690550190555b82546001101561326057805b835461337190600190614960565b8110156133ff5783613384826001614973565b8154811061339457613394614902565b9060005260206000200160009054906101000a90046001600160a01b03168482815481106133c4576133c4614902565b600091825260209091200180546001600160a01b0319166001600160a01b0392909216919091179055806133f78161492e565b915050613363565b508280548061341057613410614bd5565b600082815260209020810160001990810180546001600160a01b0319169055019055505050565b6000613441612d44565b60040154905090565b6000613454612d44565b90504281600601819055507f4b956f7dd859946b4769262a4e79184ac10e1bb38db7ac1b1b2e108464248d4d42613489613437565b6040805192835260208301919091520160405180910390a150565b81516000901561054e5760005b835181101561116a578381815181106134cc576134cc614902565b602002602001015183036134df57600191505b806134e98161492e565b9150506134b1565b81516000901561054e5760005b835181101561116a5783818151811061351957613519614902565b60200260200101516001600160a01b0316836001600160a01b03160361353e57600191505b806135488161492e565b9150506134fe565b600061355a612d44565b905080600801548160060154426135719190614960565b116129e65760405163d0404f8560e01b815260040160405180910390fd5b6000613599611076565b6001600160a01b0383166000908152600e8201602052604090205490915060ff1615610f0e576040516317968e5360e31b815260040160405180910390fd5b60006135e2611076565b3360009081526005820160205260409020549091508015610f0e5760005b8181101561326057336000908152600584016020526040812080548390811061362b5761362b614902565b6000918252602090912001546001600160a01b031690508061364d575061375d565b33600090815260048501602090815260408083206001600160a01b0385168452909152902054801561375a573360008181526004878101602090815260408084206001600160a01b038816808652925280842093909355915163a9059cbb60e01b815290810192909252602482018390529063a9059cbb906044016020604051808303816000875af11580156136e7573d6000803e3d6000fd5b505050506040513d601f19601f8201168201806040525081019061370b9190614beb565b506001600160a01b038216337f8ac7b854474d50f4f049591edaabca92b756a6eb329b81e1e78c6732074a820783613741613437565b6040805192835260208301919091520160405180910390a35b50505b806137678161492e565b915050613600565b6000613779611076565b336000908152600a820160205260409020549091508015610f0e5760005b8181101561326057336000908152600a8401602052604081208054839081106137c2576137c2614902565b6000918252602090912001546001600160a01b03169050806137e45750613a94565b336000908152600d8501602090815260408083206001600160a01b03851684529091529020548015613a915760005b81811015613a8f57336000908152600d8701602090815260408083206001600160a01b0387168452909152812080548390811061385257613852614902565b906000526020600020015490508060000361397c576001600160a01b0384166000908152600688016020908152604080832033845290915290205460ff1615613977576001600160a01b03841660008181526006890160209081526040808320338085529252808320805460ff19169055516323b872dd60e01b8152306004820152602481019190915260448101919091526323b872dd90606401600060405180830381600087803b15801561390757600080fd5b505af115801561391b573d6000803e3d6000fd5b50505050836001600160a01b0316336001600160a01b03167f6baca9678f668dfa92ae1004d315330589cb4ee920503275c9a2ebe01eca8ac9600061395e613437565b6040805192835260208301919091520160405180910390a35b613a7c565b336000908152600d8801602090815260408083206001600160a01b038816845290915281208054849081106139b3576139b3614902565b6000918252602090912001556040516323b872dd60e01b8152306004820152336024820152604481018290526001600160a01b038516906323b872dd90606401600060405180830381600087803b158015613a0d57600080fd5b505af1158015613a21573d6000803e3d6000fd5b50505050836001600160a01b0316336001600160a01b03167f6baca9678f668dfa92ae1004d315330589cb4ee920503275c9a2ebe01eca8ac983613a63613437565b6040805192835260208301919091520160405180910390a35b5080613a878161492e565b915050613813565b505b50505b80613a9e8161492e565b915050613797565b6000613ab0611076565b336000908152600c820160205260409020549091508015610f0e5760005b8181101561326057336000908152600c840160205260408120805483908110613af957613af9614902565b6000918252602090912001546001600160a01b0316905080613b1b5750613ce6565b336000908152600d8501602090815260408083206001600160a01b03851684529091529020548015613ce35760005b81811015613ce157336000908152600d8701602090815260408083206001600160a01b03871684529091528120805483908110613b8957613b89614902565b6000918252602080832090910154338352600b8a01825260408084206001600160a01b038916855283528084208285529092529120549091508015613ccc57336000818152600b8a01602090815260408083206001600160a01b038a1680855290835281842087855290925280832083905551637921219560e11b81523060048201526024810193909352604483018590526064830184905260a0608484015260a48301919091529063f242432a9060c401600060405180830381600087803b158015613c5557600080fd5b505af1158015613c69573d6000803e3d6000fd5b50505050846001600160a01b0316336001600160a01b03167fa93de68936b40c7ff4c3402888298ee6c2588730d2a4110287ae0bcf6b269ddb600184613cad613437565b6040805193845260208401929092529082015260600160405180910390a35b50508080613cd99061492e565b915050613b4a565b505b50505b80613cf08161492e565b915050613ace565b6000613d02611076565b6001600160a01b038316600090815260028201602090815260408083208390556005840190915290205490915015613d57576001600160a01b03821660009081526005820160205260408120613d579161430f565b6001600160a01b0382166000908152600a8201602052604090205415613d9a576001600160a01b0382166000908152600a820160205260408120613d9a9161430f565b6001600160a01b0382166000908152600c8201602052604090205415610f0e576001600160a01b0382166000908152600c820160205260408120610f0e9161430f565b6000613de7612d44565b90508060080154816006015442613dfe9190614960565b11156129e657604051633d36c2e560e01b815260040160405180910390fd5b6000613e27611076565b6001600160a01b038316600090815260028201602090815260408083208390556005840190915290205490915015613f7f5760005b6001600160a01b0383166000908152600583016020526040902054811015613f5b576001600160a01b03831660009081526004830160209081526040808320600586019092528220805483919085908110613eb957613eb9614902565b60009182526020808320909101546001600160a01b0390811684528382019490945260409283018220949094559186168252600385018352808220600586019093528120805491929183919085908110613f1557613f15614902565b6000918252602080832091909101546001600160a01b031683528201929092526040019020805460ff191691151591909117905580613f538161492e565b915050613e5c565b506001600160a01b03821660009081526005820160205260408120613f7f9161430f565b6001600160a01b0382166000908152600a820160205260409020541561411c5760005b6001600160a01b0383166000908152600a830160205260409020548110156140f8576001600160a01b0383166000908152600a830160205260408120805483908110613ff057613ff0614902565b60009182526020808320909101546001600160a01b03878116845260078701835260408085209190921680855292528220549092509081900361405d576001600160a01b0380831660009081526006860160209081526040808320938916835292905220805460ff191690555b6001600160a01b03808616600081815260078701602090815260408083209487168084529482528083208390556009890182528083208684528252808320805460ff19169055848352600889018252808320868452825280832080546001600160a01b0319169055928252600d880181528282209382529290925281206140e39161430f565b505080806140f09061492e565b915050613fa2565b506001600160a01b0382166000908152600a82016020526040812061411c9161430f565b6001600160a01b0382166000908152600c8201602052604090205415610f0e5760005b6001600160a01b0383166000908152600c8301602052604090205481101561425b576001600160a01b0383166000908152600b830160209081526040808320600c8601909252822080548391908590811061419c5761419c614902565b60009182526020808320909101546001600160a01b03908116845283820194909452604092830182209388168252600d87018152828220600c88019091529181208054919291839190879081106141f5576141f5614902565b60009182526020808320909101546001600160a01b03168352820192909252604001902080548590811061422b5761422b614902565b906000526020600020015481526020019081526020016000208190555080806142539061492e565b91505061413f565b506001600160a01b0382166000908152600c820160205260408120610f0e9161430f565b60005b815181101561054e578282828151811061429e5761429e614902565b6020026020010151031561054e57806142b68161492e565b915050614282565b60005b815181101561054e57826001600160a01b03168282815181106142e6576142e6614902565b60200260200101516001600160a01b0316031561054e57806143078161492e565b9150506142c1565b50805460008255906000526020600020908101906129e691905b80821115610e4f5760008155600101614329565b6001600160a01b03811681146129e657600080fd5b6000806040838503121561436557600080fd5b82356143708161433d565b915060208301356143808161433d565b809150509250929050565b602080825282518282018190526000919060409081850190868401855b828110156143cd578151805185528601518685015292840192908501906001016143a8565b5091979650505050505050565b6020808252825182820181905260009190848201906040850190845b81811015614412578351835292840192918401916001016143f6565b50909695505050505050565b60008083601f84011261443057600080fd5b50813567ffffffffffffffff81111561444857600080fd5b6020830191508360208260051b850101111561446357600080fd5b9250929050565b60008060008060006060868803121561448257600080fd5b853561448d8161433d565b9450602086013567ffffffffffffffff808211156144aa57600080fd5b6144b689838a0161441e565b909650945060408801359150808211156144cf57600080fd5b506144dc8882890161441e565b969995985093965092949392505050565b602080825282518282018190526000919060409081850190868401855b828110156143cd5761453084835180516001600160a01b03168252602090810151910152565b928401929085019060010161450a565b60006020828403121561455257600080fd5b813561455d8161433d565b9392505050565b602080825282518282018190526000919060409081850190868401855b828110156143cd57815180516001600160a01b0316855286810151878601528501518585015260609093019290850190600101614581565b60006020808301818452808551808352604092508286019150828160051b8701018488016000805b8481101561465357898403603f19018652825180516001600160a01b03168552880151888501889052805188860181905290890190839060608701905b8083101561463e5783518252928b019260019290920191908b019061461e565b50978a019795505050918701916001016145e1565b50919998505050505050505050565b6000806040838503121561467557600080fd5b82356146808161433d565b946020939093013593505050565b60008060008060008060006080888a0312156146a957600080fd5b87356146b48161433d565b9650602088013567ffffffffffffffff808211156146d157600080fd5b6146dd8b838c0161441e565b909850965060408a01359150808211156146f657600080fd5b6147028b838c0161441e565b909650945060608a013591508082111561471b57600080fd5b506147288a828b0161441e565b989b979a50959850939692959293505050565b602080825282518282018190526000919060409081850190868401855b828110156143cd5761477e84835180516001600160a01b03168252602090810151910152565b9284019290850190600101614758565b600080600080604085870312156147a457600080fd5b843567ffffffffffffffff808211156147bc57600080fd5b6147c88883890161441e565b909650945060208701359150808211156147e157600080fd5b506147ee8782880161441e565b95989497509550505050565b600081518084526020808501945080840160005b838110156148335781516001600160a01b03168752958201959082019060010161480e565b509495945050505050565b60208152600061455d60208301846147fa565b6000806020838503121561486457600080fd5b823567ffffffffffffffff81111561487b57600080fd5b6148878582860161441e565b90969095509350505050565b60208152600060018060a01b038084511660208401526020840151604084015260408401516060840152606084015160808401528060808501511660a08401525060a083015160c080840152610e1f60e08401826147fa565b634e487b7160e01b600052604160045260246000fd5b634e487b7160e01b600052603260045260246000fd5b634e487b7160e01b600052601160045260246000fd5b60006001820161494057614940614918565b5060010190565b60006020828403121561495957600080fd5b5051919050565b8181038181111561054e5761054e614918565b8082018082111561054e5761054e614918565b60006020828403121561499857600080fd5b815161455d8161433d565b600060033d11156149bc5760046000803e5060005160e01c5b90565b601f8201601f1916810167ffffffffffffffff811182821017156149f357634e487b7160e01b600052604160045260246000fd5b6040525050565b600060443d1015614a085790565b6040516003193d81016004833e81513d67ffffffffffffffff8160248401118184111715614a3857505050505090565b8285019150815181811115614a505750505050505090565b843d8701016020828501011115614a6a5750505050505090565b614a79602082860101876149bf565b509095945050505050565b6000815180845260005b81811015614aaa57602081850181015186830182015201614a8e565b506000602082860101526020601f19601f83011685010191505092915050565b828152604060208201526000610e1f6040830184614a84565b8183526000602080850194508260005b85811015614833578135614b068161433d565b6001600160a01b031687529582019590820190600101614af3565b606081526000614b35606083018789614ae3565b82810360208401528481526001600160fb1b03851115614b5457600080fd5b8460051b80876020840137604093909301939093525001602001949350505050565b634e487b7160e01b600052600160045260246000fd5b604081526000614ba0604083018587614ae3565b9050826020830152949350505050565b604081526000614bc36040830185614a84565b8281036020840152610ba98185614a84565b634e487b7160e01b600052603160045260246000fd5b600060208284031215614bfd57600080fd5b8151801515811461455d57600080fdfea26469706673582212207484ac80acc2ba8971a58f2067e1960dd5377c526b13a71133d292f9c62ce6be64736f6c63430008120033",
    "linkReferences": {}
  },
  "methodIdentifiers": {
    "addInheritors(address[],uint256[])": "fa27625e",
    "allEtherAllocations()": "5c69964d",
    "allocateERC1155Tokens(address,address[],uint256[],uint256[])": "9355e1a1",
    "allocateERC20Tokens(address,address[],uint256[])": "5d3066bc",
    "allocateERC721Tokens(address,address[],uint256[])": "30c2ec26",
    "allocateEther(address[],uint256[])": "a9fc38e5",
    "claimAllAllocations()": "a3fdeb75",
    "etherBalance()": "ad66e52a",
    "getAllAllocatedERC1155Tokens(address)": "63dfdbf4",
    "getAllocatedERC1155Tokens(address,address)": "0f8e1f32",
    "getAllocatedERC20Tokens(address)": "9a8322f8",
    "getAllocatedERC721TokenAddresses(address)": "b045e60a",
    "getAllocatedERC721TokenIds(address,address)": "2f4eaf4b",
    "getAllocatedERC721Tokens(address)": "68716d5c",
    "getAllocatedEther()": "233e3aa1",
    "getUnallocatedERC115Tokens(address,uint256)": "72cbcf92",
    "getUnallocatedEther()": "a677596e",
    "getUnallocatedTokens(address)": "a1c5ab02",
    "inheritorERC20TokenAllocation(address,address)": "5ba15d1c",
    "inheritorEtherAllocation(address)": "9ff439e2",
    "inspectVault()": "ef8f26e0",
    "removeInheritors(address[])": "ba2fa4a0"
  },
  "id": 1
}