{
  "abi": [
    {
      "inputs": [],
      "name": "EmptyArray",
      "type": "error"
    },
    {
      "inputs": [],
      "name": "HasExpired",
      "type": "error"
    },
    {
      "inputs": [],
      "name": "InsufficientTokens",
      "type": "error"
    },
    {
      "inputs": [],
      "name": "LengthMismatch",
      "type": "error"
    },
    {
      "inputs": [],
      "name": "NotVaultOwner",
      "type": "error"
    },
    {
      "inputs": [
        {
          "internalType": "address",
          "name": "_token",
          "type": "address"
        },
        {
          "internalType": "address",
          "name": "_to",
          "type": "address"
        },
        {
          "internalType": "uint256",
          "name": "_amount",
          "type": "uint256"
        }
      ],
      "name": "approveERC20Token",
      "outputs": [],
      "stateMutability": "nonpayable",
      "type": "function"
    },
    {
      "inputs": [
        {
          "internalType": "address[]",
          "name": "_tokens",
          "type": "address[]"
        },
        {
          "internalType": "uint256[]",
          "name": "_amounts",
          "type": "uint256[]"
        },
        {
          "internalType": "address",
          "name": "_to",
          "type": "address"
        }
      ],
      "name": "batchWithdrawERC20Token",
      "outputs": [],
      "stateMutability": "nonpayable",
      "type": "function"
    },
    {
      "inputs": [
        {
          "internalType": "address",
          "name": "_token",
          "type": "address"
        },
        {
          "internalType": "uint256",
          "name": "_amount",
          "type": "uint256"
        }
      ],
      "name": "depositERC20Token",
      "outputs": [],
      "stateMutability": "nonpayable",
      "type": "function"
    },
    {
      "inputs": [
        {
          "internalType": "address[]",
          "name": "_tokens",
          "type": "address[]"
        },
        {
          "internalType": "uint256[]",
          "name": "_amounts",
          "type": "uint256[]"
        }
      ],
      "name": "depositERC20Tokens",
      "outputs": [],
      "stateMutability": "nonpayable",
      "type": "function"
    },
    {
      "inputs": [
        {
          "internalType": "address",
          "name": "_inheritor",
          "type": "address"
        }
      ],
      "name": "getAllocatedERC20Tokens",
      "outputs": [
        {
          "components": [
            {
              "internalType": "address",
              "name": "token",
              "type": "address"
            },
            {
              "internalType": "uint256",
              "name": "amount",
              "type": "uint256"
            }
          ],
          "internalType": "struct ERC20Facet.AllocatedERC20Tokens[]",
          "name": "tAllocs",
          "type": "tuple[]"
        }
      ],
      "stateMutability": "view",
      "type": "function"
    },
    {
      "inputs": [
        {
          "internalType": "address",
          "name": "_token",
          "type": "address"
        }
      ],
      "name": "getUnallocatedTokens",
      "outputs": [
        {
          "internalType": "uint256",
          "name": "unallocated_",
          "type": "uint256"
        }
      ],
      "stateMutability": "view",
      "type": "function"
    },
    {
      "inputs": [
        {
          "internalType": "address",
          "name": "_inheritor",
          "type": "address"
        },
        {
          "internalType": "address",
          "name": "_token",
          "type": "address"
        }
      ],
      "name": "inheritorERC20TokenAllocation",
      "outputs": [
        {
          "internalType": "uint256",
          "name": "",
          "type": "uint256"
        }
      ],
      "stateMutability": "view",
      "type": "function"
    },
    {
      "inputs": [
        {
          "internalType": "address",
          "name": "_token",
          "type": "address"
        },
        {
          "internalType": "uint256",
          "name": "_amount",
          "type": "uint256"
        },
        {
          "internalType": "address",
          "name": "_to",
          "type": "address"
        }
      ],
      "name": "withdrawERC20Token",
      "outputs": [],
      "stateMutability": "nonpayable",
      "type": "function"
    }
  ],
  "bytecode": {
    "object": "0x608060405234801561001057600080fd5b506113c1806100206000396000f3fe608060405234801561001057600080fd5b50600436106100885760003560e01c80639a8322f81161005b5780639a8322f8146100ee578063a1c5ab021461010e578063b87c821d14610121578063ed915ea11461013457600080fd5b80632039d9fd1461008d578063204d899d146100a257806333b354fb146100b55780635ba15d1c146100c8575b600080fd5b6100a061009b366004610ef1565b610147565b005b6100a06100b0366004610f1b565b610155565b6100a06100c3366004610fa3565b61016d565b6100db6100d6366004611024565b610189565b6040519081526020015b60405180910390f35b6101016100fc366004611057565b6101c8565b6040516100e59190611079565b6100db61011c366004611057565b61033c565b6100a061012f3660046110d1565b6103d2565b6100a061014236600461113d565b6103e4565b61015182826103f7565b5050565b61015d6104d7565b6101688383836104e1565b505050565b6101756104d7565b6101828585858585610554565b5050505050565b600080610194610817565b6001600160a01b03808616600090815260089092016020908152604080842092871684529190529020549150505b92915050565b60606101d382610913565b5060006101de610817565b6001600160a01b03841660009081526009820160205260409020549091508015610335578067ffffffffffffffff81111561021b5761021b611179565b60405190808252806020026020018201604052801561026057816020015b60408051808201909152600080825260208201528152602001906001900390816102395790505b50925060005b81811015610333576001600160a01b0385166000908152600984016020526040812080548390811061029a5761029a61118f565b60009182526020808320909101546001600160a01b0389811684526008880183526040808520919092168085529252909120548651919250908690849081106102e5576102e561118f565b60200260200101516020018181525050808583815181106103085761030861118f565b60209081029190910101516001600160a01b039091169052508061032b816111bb565b915050610266565b505b5050919050565b6040516370a0823160e01b815230600482015260009081906001600160a01b038416906370a0823190602401602060405180830381865afa158015610385573d6000803e3d6000fd5b505050506040513d601f19601f820116820180604052508101906103a991906111d4565b905060006103b68461095e565b905080821115610335576103ca81836111ed565b949350505050565b6103de848484846109f1565b50505050565b6103ec6104d7565b610168838383610bcf565b6103ff610dab565b6040516323b872dd60e01b8152336004820152306024820152604481018290526001600160a01b038316906323b872dd906064016020604051808303816000875af1158015610452573d6000803e3d6000fd5b505050506040513d601f19601f820116820180604052508101906104769190611200565b61048257610482611222565b336001600160a01b0383167f4f8918a4b30424956dffcb2425337fb37b1e0d134cb8a7238f85c23c2cdf521d836104b7610ded565b6040805192835260208301919091520160405180910390a3610151610dff565b6104df610e59565b565b60405163095ea7b360e01b81526001600160a01b0384811660048301526024820183905283169063095ea7b3906044016020604051808303816000875af1158015610530573d6000803e3d6000fd5b505050506040513d601f19601f820116820180604052508101906103de9190611200565b83158061055f575081155b1561057d5760405163521299a960e01b815260040160405180910390fd5b8382146105a0576040516001621398b960e31b0319815260040160405180910390fd5b60005b8481101561080e5760008686838181106105bf576105bf61118f565b90506020020160208101906105d49190611057565b905060008585848181106105ea576105ea61118f565b90506020020135905060006105fe8361095e565b6040516370a0823160e01b81523060048201529091506000906001600160a01b038516906370a0823190602401602060405180830381865afa158015610648573d6000803e3d6000fd5b505050506040513d601f19601f8201168201806040525081019061066c91906111d4565b905060008282106107dd578888878181106106895761068961118f565b90506020020135838361069c91906111ed565b10156106bb576040516378dbf0af60e11b815260040160405180910390fd5b60405163a9059cbb60e01b81526001600160a01b0388811660048301526024820186905286169063a9059cbb906044016020604051808303816000875af1925050508015610726575060408051601f3d908101601f1916820190925261072391810190611200565b60015b6107d757801561079e577f3885f60c7d3e321c85da3287e1f46ec1054ee112faea69f31de16d3cc6a2a65d85858961075c610ded565b60405161079194939291906001600160a01b039485168152602081019390935292166040820152606081019190915260800190565b60405180910390a16107f6565b6040516001600160a01b03861681527f264066262da93aa69602b0a0cb8e34b47cc1664e376885797a71a6e887e786b590602001610791565b506107f6565b6040516378dbf0af60e11b815260040160405180910390fd5b50505050508080610806906111bb565b9150506105a3565b50610182610dff565b6000806108d960405180604001604052600f8152806020016e111a585b5bdb9910dd5d119858d95d608a1b81525060405180604001604052600a81528060200169115490cc8c119858d95d60b21b81525060405180604001604052600b8152806020016a115490cdcc8c519858d95d60aa1b81525060405180604001604052600c8152806020016b115490cc4c4d4d519858d95d60a21b81525060405180604001604052600a8152806020016915985d5b1d119858d95d60b21b815250610e8d565b90506000604051806020016108ed90610ec9565b601f1982820381018352601f909101166040528051602091909101209190911892915050565b60008061091e610817565b90506001600160a01b0383166109375760019150610958565b6001600160a01b038316600090815260058201602052604090205460ff1691505b50919050565b600080610969610817565b90506000805b60048301548110156109e9578260080160008460040183815481106109965761099661118f565b60009182526020808320909101546001600160a01b03908116845283820194909452604092830182209389168252929092529020546109d59083611238565b9150806109e1816111bb565b91505061096f565b509392505050565b6109f9610dab565b821580610a04575080155b15610a225760405163521299a960e01b815260040160405180910390fd5b828114610a45576040516001621398b960e31b0319815260040160405180910390fd5b60005b83811015610bc6576000858583818110610a6457610a6461118f565b9050602002016020810190610a799190611057565b90506000848484818110610a8f57610a8f61118f565b6040516323b872dd60e01b8152336004820152306024820152602090910292909201356044830181905292506000916001600160a01b03851691506323b872dd906064016020604051808303816000875af1925050508015610b0e575060408051601f3d908101601f19168201909252610b0b91810190611200565b60015b610bae578015610b6a57336001600160a01b0384167f4f8918a4b30424956dffcb2425337fb37b1e0d134cb8a7238f85c23c2cdf521d84610b4d610ded565b6040805192835260208301919091520160405180910390a3610bb0565b6040516001600160a01b03841681527f8dfa661b7ed33af401354b109fd566ef5c15747b6e0e070765324290cd8be3749060200160405180910390a1505050610bb4565b505b5050505b80610bbe816111bb565b915050610a48565b506103de610dff565b6000610bda8461095e565b6040516370a0823160e01b81523060048201529091506000906001600160a01b038616906370a0823190602401602060405180830381865afa158015610c24573d6000803e3d6000fd5b505050506040513d601f19601f82011682018060405250810190610c4891906111d4565b905060008282106107dd5784610c5e84846111ed565b1015610c7d576040516378dbf0af60e11b815260040160405180910390fd5b60405163a9059cbb60e01b81526001600160a01b0385811660048301526024820187905287169063a9059cbb906044016020604051808303816000875af1925050508015610ce8575060408051601f3d908101601f19168201909252610ce591810190611200565b60015b610d99578015610d60577f3885f60c7d3e321c85da3287e1f46ec1054ee112faea69f31de16d3cc6a2a65d868686610d1e610ded565b604051610d5394939291906001600160a01b039485168152602081019390935292166040820152606081019190915260800190565b60405180910390a1610d9b565b6040516001600160a01b03871681527f264066262da93aa69602b0a0cb8e34b47cc1664e376885797a71a6e887e786b590602001610d53565b505b610da3610dff565b505050505050565b6000610db5610817565b905062dd7c00816002015442610dcb91906111ed565b1115610dea57604051633d36c2e560e01b815260040160405180910390fd5b50565b600080610df8610817565b5492915050565b6000610e09610817565b90504281600201819055507f4b956f7dd859946b4769262a4e79184ac10e1bb38db7ac1b1b2e108464248d4d42610e3e610ded565b6040805192835260208301919091520160405180910390a150565b610e61610817565b600101546001600160a01b031633146104df57604051630e7fea9d60e01b815260040160405180910390fd5b60008585858585604051602001610ea8959493929190611291565b60405160208183030381529060405280519060200120905095945050505050565b608d806112ff83390190565b80356001600160a01b0381168114610eec57600080fd5b919050565b60008060408385031215610f0457600080fd5b610f0d83610ed5565b946020939093013593505050565b600080600060608486031215610f3057600080fd5b610f3984610ed5565b9250610f4760208501610ed5565b9150604084013590509250925092565b60008083601f840112610f6957600080fd5b50813567ffffffffffffffff811115610f8157600080fd5b6020830191508360208260051b8501011115610f9c57600080fd5b9250929050565b600080600080600060608688031215610fbb57600080fd5b853567ffffffffffffffff80821115610fd357600080fd5b610fdf89838a01610f57565b90975095506020880135915080821115610ff857600080fd5b5061100588828901610f57565b9094509250611018905060408701610ed5565b90509295509295909350565b6000806040838503121561103757600080fd5b61104083610ed5565b915061104e60208401610ed5565b90509250929050565b60006020828403121561106957600080fd5b61107282610ed5565b9392505050565b602080825282518282018190526000919060409081850190868401855b828110156110c457815180516001600160a01b03168552860151868501529284019290850190600101611096565b5091979650505050505050565b600080600080604085870312156110e757600080fd5b843567ffffffffffffffff808211156110ff57600080fd5b61110b88838901610f57565b9096509450602087013591508082111561112457600080fd5b5061113187828801610f57565b95989497509550505050565b60008060006060848603121561115257600080fd5b61115b84610ed5565b92506020840135915061117060408501610ed5565b90509250925092565b634e487b7160e01b600052604160045260246000fd5b634e487b7160e01b600052603260045260246000fd5b634e487b7160e01b600052601160045260246000fd5b6000600182016111cd576111cd6111a5565b5060010190565b6000602082840312156111e657600080fd5b5051919050565b818103818111156101c2576101c26111a5565b60006020828403121561121257600080fd5b8151801515811461107257600080fd5b634e487b7160e01b600052600160045260246000fd5b808201808211156101c2576101c26111a5565b6000815180845260005b8181101561127157602081850181015186830182015201611255565b506000602082860101526020601f19601f83011685010191505092915050565b60a0815260006112a460a083018861124b565b82810360208401526112b6818861124b565b905082810360408401526112ca818761124b565b905082810360608401526112de818661124b565b905082810360808401526112f2818561124b565b9897505050505050505056fe60566037600b82828239805160001a607314602a57634e487b7160e01b600052600060045260246000fd5b30600052607381538281f3fe73000000000000000000000000000000000000000030146080604052600080fdfea2646970667358221220d3490995da7c482656cf5299d05897e7ad36d1e947ab8134ff8177e69fb907fa64736f6c63430008120033a2646970667358221220c2abb10f2fcefc39faabd5e2ff0bb58f3519492117a26f544a15413b66c0c39764736f6c63430008120033",
    "linkReferences": {}
  },
  "methodIdentifiers": {
    "approveERC20Token(address,address,uint256)": "204d899d",
    "batchWithdrawERC20Token(address[],uint256[],address)": "33b354fb",
    "depositERC20Token(address,uint256)": "2039d9fd",
    "depositERC20Tokens(address[],uint256[])": "b87c821d",
    "getAllocatedERC20Tokens(address)": "9a8322f8",
    "getUnallocatedTokens(address)": "a1c5ab02",
    "inheritorERC20TokenAllocation(address,address)": "5ba15d1c",
    "withdrawERC20Token(address,uint256,address)": "ed915ea1"
  },
  "id": 4
}