{
  "abi": [
    {
      "inputs": [],
      "name": "EmptyArray",
      "type": "error"
    },
    {
      "inputs": [],
      "name": "InsufficientTokens",
      "type": "error"
    },
    {
      "inputs": [],
      "name": "LengthMismatch",
      "type": "error"
    },
    {
      "inputs": [],
      "name": "NotVaultOwner",
      "type": "error"
    },
    {
      "inputs": [
        {
          "internalType": "address",
          "name": "_token",
          "type": "address"
        },
        {
          "internalType": "address",
          "name": "_to",
          "type": "address"
        },
        {
          "internalType": "uint256",
          "name": "_amount",
          "type": "uint256"
        }
      ],
      "name": "approveERC20Token",
      "outputs": [],
      "stateMutability": "nonpayable",
      "type": "function"
    },
    {
      "inputs": [
        {
          "internalType": "address[]",
          "name": "_tokens",
          "type": "address[]"
        },
        {
          "internalType": "uint256[]",
          "name": "_amounts",
          "type": "uint256[]"
        },
        {
          "internalType": "address",
          "name": "_to",
          "type": "address"
        }
      ],
      "name": "batchWithdrawERC20Token",
      "outputs": [],
      "stateMutability": "nonpayable",
      "type": "function"
    },
    {
      "inputs": [
        {
          "internalType": "address",
          "name": "_token",
          "type": "address"
        },
        {
          "internalType": "uint256",
          "name": "_amount",
          "type": "uint256"
        }
      ],
      "name": "depositERC20Token",
      "outputs": [],
      "stateMutability": "nonpayable",
      "type": "function"
    },
    {
      "inputs": [
        {
          "internalType": "address[]",
          "name": "_tokens",
          "type": "address[]"
        },
        {
          "internalType": "uint256[]",
          "name": "_amounts",
          "type": "uint256[]"
        }
      ],
      "name": "depositERC20Tokens",
      "outputs": [],
      "stateMutability": "nonpayable",
      "type": "function"
    },
    {
      "inputs": [
        {
          "internalType": "address",
          "name": "_token",
          "type": "address"
        },
        {
          "internalType": "uint256",
          "name": "_amount",
          "type": "uint256"
        },
        {
          "internalType": "address",
          "name": "_to",
          "type": "address"
        }
      ],
      "name": "withdrawERC20Token",
      "outputs": [],
      "stateMutability": "nonpayable",
      "type": "function"
    }
  ],
  "bytecode": {
    "object": "0x608060405234801561001057600080fd5b50610fc6806100206000396000f3fe608060405234801561001057600080fd5b50600436106100575760003560e01c80632039d9fd1461005c578063204d899d1461007157806333b354fb14610084578063b87c821d14610097578063ed915ea1146100aa575b600080fd5b61006f61006a366004610c37565b6100bd565b005b61006f61007f366004610c61565b6100cb565b61006f610092366004610ce9565b6100e3565b61006f6100a5366004610d6a565b6100ff565b61006f6100b8366004610dd6565b610111565b6100c78282610124565b5050565b6100d36101f8565b6100de838383610202565b505050565b6100eb6101f8565b6100f885858585856102a7565b5050505050565b61010b848484846105b8565b50505050565b6101196101f8565b6100de838383610785565b6040516323b872dd60e01b8152336004820152306024820152604481018290526001600160a01b038316906323b872dd906064016020604051808303816000875af1158015610177573d6000803e3d6000fd5b505050506040513d601f19601f8201168201806040525081019061019b9190610e12565b6101a7576101a7610e3b565b336001600160a01b0383167f4f8918a4b30424956dffcb2425337fb37b1e0d134cb8a7238f85c23c2cdf521d836101dc6109a9565b6040805192835260208301919091520160405180910390a35050565b6102006109bc565b565b60405163095ea7b360e01b81526001600160a01b0384811660048301526024820183905283169063095ea7b3906044016020604051808303816000875af1158015610251573d6000803e3d6000fd5b505050506040513d601f19601f820116820180604052508101906102759190610e12565b5061029a60405180604001604052806003815260200162444d5360e81b8152506109f0565b156100de576100de610a29565b8315806102b2575081155b156102d05760405163521299a960e01b815260040160405180910390fd5b8382146102f3576040516001621398b960e31b0319815260040160405180910390fd5b60005b848110156105b057600086868381811061031257610312610e51565b90506020020160208101906103279190610e67565b9050600085858481811061033d5761033d610e51565b6040516370a0823160e01b81523060048201526020909102929092013592506000916001600160a01b03851691506370a0823190602401602060405180830381865afa158015610391573d6000803e3d6000fd5b505050506040513d601f19601f820116820180604052508101906103b59190610e82565b90506000806103c385610a83565b90506103e960405180604001604052806003815260200162444d5360e81b8152506109f0565b15610428578083111561040f576104008184610eb1565b915061040a610a29565b61042c565b6040516378dbf0af60e11b815260040160405180910390fd5b8291505b600082841061040f5789898881811061044757610447610e51565b90506020020135828561045a9190610eb1565b1015610479576040516378dbf0af60e11b815260040160405180910390fd5b60405163a9059cbb60e01b81526001600160a01b0389811660048301526024820187905287169063a9059cbb906044016020604051808303816000875af19250505080156104e4575060408051601f3d908101601f191682019092526104e191810190610e12565b60015b61059557801561055c577f3885f60c7d3e321c85da3287e1f46ec1054ee112faea69f31de16d3cc6a2a65d86868a61051a6109a9565b60405161054f94939291906001600160a01b039485168152602081019390935292166040820152606081019190915260800190565b60405180910390a1610597565b6040516001600160a01b03871681527f264066262da93aa69602b0a0cb8e34b47cc1664e376885797a71a6e887e786b59060200161054f565b505b50505050505080806105a890610eca565b9150506102f6565b505050505050565b8215806105c3575080155b156105e15760405163521299a960e01b815260040160405180910390fd5b828114610604576040516001621398b960e31b0319815260040160405180910390fd5b60005b838110156100f857600085858381811061062357610623610e51565b90506020020160208101906106389190610e67565b9050600084848481811061064e5761064e610e51565b6040516323b872dd60e01b8152336004820152306024820152602090910292909201356044830181905292506000916001600160a01b03851691506323b872dd906064016020604051808303816000875af19250505080156106cd575060408051601f3d908101601f191682019092526106ca91810190610e12565b60015b61076d57801561072957336001600160a01b0384167f4f8918a4b30424956dffcb2425337fb37b1e0d134cb8a7238f85c23c2cdf521d8461070c6109a9565b6040805192835260208301919091520160405180910390a361076f565b6040516001600160a01b03841681527f8dfa661b7ed33af401354b109fd566ef5c15747b6e0e070765324290cd8be3749060200160405180910390a1505050610773565b505b5050505b8061077d81610eca565b915050610607565b6040516370a0823160e01b815230600482015260009081906001600160a01b038616906370a0823190602401602060405180830381865afa1580156107ce573d6000803e3d6000fd5b505050506040513d601f19601f820116820180604052508101906107f29190610e82565b905060006107ff86610a83565b905061082560405180604001604052806003815260200162444d5360e81b8152506109f0565b1561084b578082111561040f5761083c8183610eb1565b9250610846610a29565b61084f565b8192505b600083831061040f57856108638385610eb1565b1015610882576040516378dbf0af60e11b815260040160405180910390fd5b60405163a9059cbb60e01b81526001600160a01b0386811660048301526024820188905288169063a9059cbb906044016020604051808303816000875af19250505080156108ed575060408051601f3d908101601f191682019092526108ea91810190610e12565b60015b61099e578015610965577f3885f60c7d3e321c85da3287e1f46ec1054ee112faea69f31de16d3cc6a2a65d8787876109236109a9565b60405161095894939291906001600160a01b039485168152602081019390935292166040820152606081019190915260800190565b60405180910390a16109a0565b6040516001600160a01b03881681527f264066262da93aa69602b0a0cb8e34b47cc1664e376885797a71a6e887e786b590602001610958565b505b50505050505050565b60006109b3610b13565b60040154905090565b6109c4610b13565b600501546001600160a01b0316331461020057604051630e7fea9d60e01b815260040160405180910390fd5b6000806109fb610b13565b90508060090183604051610a0f9190610f07565b9081526040519081900360200190205460ff169392505050565b6000610a33610b13565b90504281600601819055507f4b956f7dd859946b4769262a4e79184ac10e1bb38db7ac1b1b2e108464248d4d42610a686109a9565b6040805192835260208301919091520160405180910390a150565b600080610a8e610b98565b90506000805b8254811015610b0b57826004016000846000018381548110610ab857610ab8610e51565b60009182526020808320909101546001600160a01b0390811684528382019490945260409283018220938916825292909252902054610af79083610f23565b915080610b0381610eca565b915050610a94565b509392505050565b600080610b7060405180604001604052600f8152806020016e111a585b5bdb9910dd5d119858d95d608a1b81525060405180604001604052601181528060200170111a585b5bdb99131bdd5c19519858d95d607a1b815250610be8565b7f7f9df2342d5c190c7450de83944c941641ce57327a12faebc868644d2853cdbf1892915050565b600080610b7060405180604001604052600f8152806020016e111a585b5bdb9910dd5d119858d95d608a1b81525060405180604001604052600881528060200167111354d19858d95d60c21b8152505b60008282604051602001610bfd929190610f62565b60405160208183030381529060405280519060200120905092915050565b80356001600160a01b0381168114610c3257600080fd5b919050565b60008060408385031215610c4a57600080fd5b610c5383610c1b565b946020939093013593505050565b600080600060608486031215610c7657600080fd5b610c7f84610c1b565b9250610c8d60208501610c1b565b9150604084013590509250925092565b60008083601f840112610caf57600080fd5b50813567ffffffffffffffff811115610cc757600080fd5b6020830191508360208260051b8501011115610ce257600080fd5b9250929050565b600080600080600060608688031215610d0157600080fd5b853567ffffffffffffffff80821115610d1957600080fd5b610d2589838a01610c9d565b90975095506020880135915080821115610d3e57600080fd5b50610d4b88828901610c9d565b9094509250610d5e905060408701610c1b565b90509295509295909350565b60008060008060408587031215610d8057600080fd5b843567ffffffffffffffff80821115610d9857600080fd5b610da488838901610c9d565b90965094506020870135915080821115610dbd57600080fd5b50610dca87828801610c9d565b95989497509550505050565b600080600060608486031215610deb57600080fd5b610df484610c1b565b925060208401359150610e0960408501610c1b565b90509250925092565b600060208284031215610e2457600080fd5b81518015158114610e3457600080fd5b9392505050565b634e487b7160e01b600052600160045260246000fd5b634e487b7160e01b600052603260045260246000fd5b600060208284031215610e7957600080fd5b610e3482610c1b565b600060208284031215610e9457600080fd5b5051919050565b634e487b7160e01b600052601160045260246000fd5b81810381811115610ec457610ec4610e9b565b92915050565b600060018201610edc57610edc610e9b565b5060010190565b60005b83811015610efe578181015183820152602001610ee6565b50506000910152565b60008251610f19818460208701610ee3565b9190910192915050565b80820180821115610ec457610ec4610e9b565b60008151808452610f4e816020860160208601610ee3565b601f01601f19169290920160200192915050565b604081526000610f756040830185610f36565b8281036020840152610f878185610f36565b9594505050505056fea26469706673582212203cc09e8cc02e8c89066058f4673293e9d6fe02414c1e71769c75496b3cb57b9c64736f6c63430008120033",
    "linkReferences": {}
  },
  "methodIdentifiers": {
    "approveERC20Token(address,address,uint256)": "204d899d",
    "batchWithdrawERC20Token(address[],uint256[],address)": "33b354fb",
    "depositERC20Token(address,uint256)": "2039d9fd",
    "depositERC20Tokens(address[],uint256[])": "b87c821d",
    "withdrawERC20Token(address,uint256,address)": "ed915ea1"
  },
  "id": 5
}