{
  "abi": [
    {
      "inputs": [],
      "name": "ActiveInheritor",
      "type": "error"
    },
    {
      "inputs": [],
      "name": "AmountMismatch",
      "type": "error"
    },
    {
      "inputs": [],
      "name": "Claimed",
      "type": "error"
    },
    {
      "inputs": [],
      "name": "EmptyArray",
      "type": "error"
    },
    {
      "inputs": [
        {
          "internalType": "uint256",
          "name": "overflow",
          "type": "uint256"
        }
      ],
      "name": "EtherAllocationOverflow",
      "type": "error"
    },
    {
      "inputs": [],
      "name": "HasExpired",
      "type": "error"
    },
    {
      "inputs": [],
      "name": "InactiveInheritor",
      "type": "error"
    },
    {
      "inputs": [],
      "name": "InsufficientEth",
      "type": "error"
    },
    {
      "inputs": [],
      "name": "LengthMismatch",
      "type": "error"
    },
    {
      "inputs": [],
      "name": "NoPermissions",
      "type": "error"
    },
    {
      "inputs": [],
      "name": "NotBackupAddress",
      "type": "error"
    },
    {
      "inputs": [],
      "name": "NotExpired",
      "type": "error"
    },
    {
      "inputs": [],
      "name": "NotInheritor",
      "type": "error"
    },
    {
      "inputs": [],
      "name": "NotVaultOwner",
      "type": "error"
    },
    {
      "inputs": [
        {
          "internalType": "address",
          "name": "token",
          "type": "address"
        },
        {
          "internalType": "uint256",
          "name": "overflow",
          "type": "uint256"
        }
      ],
      "name": "TokenAllocationOverflow",
      "type": "error"
    },
    {
      "anonymous": false,
      "inputs": [
        {
          "indexed": false,
          "internalType": "uint256",
          "name": "_amount",
          "type": "uint256"
        },
        {
          "indexed": false,
          "internalType": "uint256",
          "name": "_vaultID",
          "type": "uint256"
        }
      ],
      "name": "EthDeposited",
      "type": "event"
    },
    {
      "inputs": [
        {
          "internalType": "address[]",
          "name": "_newInheritors",
          "type": "address[]"
        },
        {
          "internalType": "uint256[]",
          "name": "_weiShare",
          "type": "uint256[]"
        }
      ],
      "name": "addInheritors",
      "outputs": [],
      "stateMutability": "nonpayable",
      "type": "function"
    },
    {
      "inputs": [],
      "name": "allEtherAllocations",
      "outputs": [
        {
          "components": [
            {
              "internalType": "address",
              "name": "inheritor",
              "type": "address"
            },
            {
              "internalType": "uint256",
              "name": "weiAlloc",
              "type": "uint256"
            }
          ],
          "internalType": "struct VaultFacet.AllInheritorEtherAllocs[]",
          "name": "eAllocs",
          "type": "tuple[]"
        }
      ],
      "stateMutability": "view",
      "type": "function"
    },
    {
      "inputs": [
        {
          "internalType": "address",
          "name": "token",
          "type": "address"
        },
        {
          "internalType": "address[]",
          "name": "_inheritors",
          "type": "address[]"
        },
        {
          "internalType": "uint256[]",
          "name": "_tokenIDs",
          "type": "uint256[]"
        },
        {
          "internalType": "uint256[]",
          "name": "_amounts",
          "type": "uint256[]"
        }
      ],
      "name": "allocateERC1155Tokens",
      "outputs": [],
      "stateMutability": "nonpayable",
      "type": "function"
    },
    {
      "inputs": [
        {
          "internalType": "address",
          "name": "token",
          "type": "address"
        },
        {
          "internalType": "address[]",
          "name": "_inheritors",
          "type": "address[]"
        },
        {
          "internalType": "uint256[]",
          "name": "_shares",
          "type": "uint256[]"
        }
      ],
      "name": "allocateERC20Tokens",
      "outputs": [],
      "stateMutability": "nonpayable",
      "type": "function"
    },
    {
      "inputs": [
        {
          "internalType": "address",
          "name": "token",
          "type": "address"
        },
        {
          "internalType": "address[]",
          "name": "_inheritors",
          "type": "address[]"
        },
        {
          "internalType": "uint256[]",
          "name": "_tokenIDs",
          "type": "uint256[]"
        }
      ],
      "name": "allocateERC721Tokens",
      "outputs": [],
      "stateMutability": "nonpayable",
      "type": "function"
    },
    {
      "inputs": [
        {
          "internalType": "address[]",
          "name": "_inheritors",
          "type": "address[]"
        },
        {
          "internalType": "uint256[]",
          "name": "_ethShares",
          "type": "uint256[]"
        }
      ],
      "name": "allocateEther",
      "outputs": [],
      "stateMutability": "nonpayable",
      "type": "function"
    },
    {
      "inputs": [],
      "name": "claimAllAllocations",
      "outputs": [],
      "stateMutability": "nonpayable",
      "type": "function"
    },
    {
      "inputs": [
        {
          "internalType": "address",
          "name": "_newBackupAddress",
          "type": "address"
        }
      ],
      "name": "claimOwnership",
      "outputs": [],
      "stateMutability": "nonpayable",
      "type": "function"
    },
    {
      "inputs": [
        {
          "internalType": "uint256",
          "name": "_amount",
          "type": "uint256"
        }
      ],
      "name": "depositEther",
      "outputs": [],
      "stateMutability": "payable",
      "type": "function"
    },
    {
      "inputs": [],
      "name": "etherBalance",
      "outputs": [
        {
          "internalType": "uint256",
          "name": "",
          "type": "uint256"
        }
      ],
      "stateMutability": "view",
      "type": "function"
    },
    {
      "inputs": [],
      "name": "getAllocatedEther",
      "outputs": [
        {
          "internalType": "uint256",
          "name": "",
          "type": "uint256"
        }
      ],
      "stateMutability": "view",
      "type": "function"
    },
    {
      "inputs": [],
      "name": "getUnallocatedEther",
      "outputs": [
        {
          "internalType": "uint256",
          "name": "unallocated_",
          "type": "uint256"
        }
      ],
      "stateMutability": "view",
      "type": "function"
    },
    {
      "inputs": [
        {
          "internalType": "address",
          "name": "_inheritor",
          "type": "address"
        }
      ],
      "name": "inheritorEtherAllocation",
      "outputs": [
        {
          "internalType": "uint256",
          "name": "_allocatedEther",
          "type": "uint256"
        }
      ],
      "stateMutability": "view",
      "type": "function"
    },
    {
      "inputs": [],
      "name": "inspectVault",
      "outputs": [
        {
          "components": [
            {
              "internalType": "address",
              "name": "owner",
              "type": "address"
            },
            {
              "internalType": "uint256",
              "name": "weiBalance",
              "type": "uint256"
            },
            {
              "internalType": "uint256",
              "name": "lastPing",
              "type": "uint256"
            },
            {
              "internalType": "uint256",
              "name": "id",
              "type": "uint256"
            },
            {
              "internalType": "address",
              "name": "backup",
              "type": "address"
            },
            {
              "internalType": "address[]",
              "name": "inheritors",
              "type": "address[]"
            }
          ],
          "internalType": "struct VaultFacet.VaultInfo",
          "name": "info",
          "type": "tuple"
        }
      ],
      "stateMutability": "view",
      "type": "function"
    },
    {
      "inputs": [],
      "name": "ping",
      "outputs": [],
      "stateMutability": "nonpayable",
      "type": "function"
    },
    {
      "inputs": [
        {
          "internalType": "address[]",
          "name": "_inheritors",
          "type": "address[]"
        }
      ],
      "name": "removeInheritors",
      "outputs": [],
      "stateMutability": "nonpayable",
      "type": "function"
    },
    {
      "inputs": [
        {
          "internalType": "address",
          "name": "_newBackupAddress",
          "type": "address"
        }
      ],
      "name": "transferBackup",
      "outputs": [],
      "stateMutability": "nonpayable",
      "type": "function"
    },
    {
      "inputs": [
        {
          "internalType": "address",
          "name": "_newVaultOwner",
          "type": "address"
        }
      ],
      "name": "transferOwnership",
      "outputs": [],
      "stateMutability": "nonpayable",
      "type": "function"
    },
    {
      "inputs": [],
      "name": "vaultOwner",
      "outputs": [
        {
          "internalType": "address",
          "name": "",
          "type": "address"
        }
      ],
      "stateMutability": "view",
      "type": "function"
    },
    {
      "inputs": [
        {
          "internalType": "uint256",
          "name": "_amount",
          "type": "uint256"
        },
        {
          "internalType": "address",
          "name": "_to",
          "type": "address"
        }
      ],
      "name": "withdrawEther",
      "outputs": [],
      "stateMutability": "nonpayable",
      "type": "function"
    }
  ],
  "bytecode": {
    "object": "0x608060405234801561001057600080fd5b50614772806100206000396000f3fe60806040526004361061011f5760003560e01c8063a3fdeb75116100a0578063ce56c45411610064578063ce56c454146102e2578063da92d3ae14610302578063ef8f26e014610322578063f2fde38b14610344578063fa27625e1461036457600080fd5b8063a3fdeb7514610265578063a677596e1461027a578063a9fc38e51461028f578063ad66e52a146102af578063ba2fa4a0146102c257600080fd5b80635c69964d116100e75780635c69964d146101c35780635d3066bc146101e55780639355e1a1146102055780639ff439e214610225578063a2bbbc701461024557600080fd5b80631f52692b14610124578063233e3aa11461015657806326839f171461017957806330c2ec261461018e5780635c36b186146101ae575b600080fd5b34801561013057600080fd5b50610139610384565b6040516001600160a01b0390911681526020015b60405180910390f35b34801561016257600080fd5b5061016b6103a2565b60405190815260200161014d565b61018c610187366004613f7c565b6103b1565b005b34801561019a57600080fd5b5061018c6101a9366004613ff6565b61041d565b3480156101ba57600080fd5b5061018c610439565b3480156101cf57600080fd5b506101d861044b565b60405161014d9190614079565b3480156101f157600080fd5b5061018c610200366004613ff6565b6105ae565b34801561021157600080fd5b5061018c6102203660046140d1565b6105c3565b34801561023157600080fd5b5061016b61024036600461417e565b6105e3565b34801561025157600080fd5b5061018c61026036600461417e565b610637565b34801561027157600080fd5b5061018c61064b565b34801561028657600080fd5b5061016b610653565b34801561029b57600080fd5b5061018c6102aa3660046141a2565b610675565b3480156102bb57600080fd5b504761016b565b3480156102ce57600080fd5b5061018c6102dd36600461420e565b61068f565b3480156102ee57600080fd5b5061018c6102fd366004614250565b6106a5565b34801561030e57600080fd5b5061018c61031d36600461417e565b6106b7565b34801561032e57600080fd5b506103376106c8565b60405161014d9190614280565b34801561035057600080fd5b5061018c61035f36600461417e565b6107c0565b34801561037057600080fd5b5061018c61037f3660046141a2565b6107d1565b60008061038f6107e5565b600101546001600160a01b031692915050565b60006103ac6108e1565b905090565b60006103bb6107e5565b90503482146103dd576040516355e97b0d60e01b815260040160405180910390fd5b80546040805184815260208101929092527f07ee1b03727e44235515cdf79d9d816d5494256e42c1c4a4716504b52296112b910160405180910390a15050565b610425610963565b610432858585858561096b565b5050505050565b610441610963565b610449611366565b565b606060006104576107e5565b60048101549091508067ffffffffffffffff81111561047857610478614313565b6040519080825280602002602001820160405280156104bd57816020015b60408051808201909152600080825260208201528152602001906001900390816104965790505b50925060005b818110156105a8578260040181815481106104e0576104e0614329565b9060005260206000200160009054906101000a90046001600160a01b031684828151811061051057610510614329565b6020026020010151600001906001600160a01b031690816001600160a01b03168152505082600601600084600401838154811061054f5761054f614329565b60009182526020808320909101546001600160a01b03168352820192909252604001902054845185908390811061058857610588614329565b6020908102919091018101510152806105a081614355565b9150506104c3565b50505090565b6105b6610963565b61043285858585856113c0565b6105cb610963565b6105da878787878787876118a0565b50505050505050565b6000806105ee6107e5565b90506105f983611fae565b610616576040516303b47de960e31b815260040160405180910390fd5b6001600160a01b039092166000908152600690920160205250604090205490565b61063f612034565b610648816120ba565b50565b61044961212b565b6000478015610671576106646108e1565b61066e908261436e565b91505b5090565b61067d610963565b61068984848484612250565b50505050565b610697610963565b6106a18282612407565b5050565b6106ad610963565b6106a182826125e6565b6106bf6126a4565b610648816126de565b6107136040518060c0016040528060006001600160a01b0316815260200160008152602001600081526020016000815260200160006001600160a01b03168152602001606081525090565b600061071d6107e5565b60018101546001600160a01b03908116845247602080860191909152600283015460408087019190915283546060870152600384015490921660808601526004830180548351818402810184019094528084529394509192908301828280156107af57602002820191906000526020600020905b81546001600160a01b03168152600190910190602001808311610791575b50505050508260a001819052505090565b6107c8610963565b610648816127dd565b6107d9612838565b61068984848484612889565b6000806108a760405180604001604052600f8152806020016e111a585b5bdb9910dd5d119858d95d608a1b81525060405180604001604052600a81528060200169115490cc8c119858d95d60b21b81525060405180604001604052600b8152806020016a115490cdcc8c519858d95d60aa1b81525060405180604001604052600c8152806020016b115490cc4c4d4d519858d95d60a21b81525060405180604001604052600a8152806020016915985d5b1d119858d95d60b21b815250612b0a565b90506000604051806020016108bb90613f42565b601f1982820381018352601f909101166040528051602091909101209190911892915050565b6000806108ec6107e5565b90506000805b600483015481101561095c5782600601600084600401838154811061091957610919614329565b60009182526020808320909101546001600160a01b031683528201929092526040019020546109489083614381565b91508061095481614355565b9150506108f2565b5092915050565b610449612b46565b821580610976575080155b156109945760405163521299a960e01b815260040160405180910390fd5b8281146109b7576040516001621398b960e31b0319815260040160405180910390fd5b60006109c16107e5565b905060005b84811015611339576109fd8686838181106109e3576109e3614329565b90506020020160208101906109f8919061417e565b612b7a565b610a1a576040516303b47de960e31b815260040160405180910390fd5b610a49868683818110610a2f57610a2f614329565b9050602002016020810190610a44919061417e565b612bf8565b610a665760405163154c589b60e21b815260040160405180910390fd5b858582818110610a7857610a78614329565b9050602002016020810190610a8d919061417e565b6001600160a01b038881166000908152600c850160205260408120929091169190868685818110610ac057610ac0614329565b60209081029290920135835250810191909152604001600020546001600160a01b03161461132757866001600160a01b0316636352211e858584818110610b0957610b09614329565b905060200201356040518263ffffffff1660e01b8152600401610b2e91815260200190565b602060405180830381865afa925050508015610b67575060408051601f3d908101601f19168201909252610b6491810190614394565b60015b610bf557610b736143b1565b806308c379a003610be95750610b87614408565b80610b925750610beb565b7f696400fbb2b541b300645050eed181b28147aecbe0952a1f8434ee5afa385374858584818110610bc557610bc5614329565b9050602002013582604051610bdb9291906144d8565b60405180910390a150611327565b505b3d6000803e3d6000fd5b306001600160a01b038216036112ab576001600160a01b0388166000908152600d84016020526040812090868685818110610c3257610c32614329565b602090810292909201358352508101919091526040016000205460ff1615610f3e576001600160a01b0388166000908152600c84016020526040812081878786818110610c8157610c81614329565b60209081029290920135835250810191909152604001600020546001600160a01b03169050878784818110610cb857610cb8614329565b9050602002016020810190610ccd919061417e565b6001600160a01b0316816001600160a01b031614158015610cf657506001600160a01b03811615155b8015610d3257506000888885818110610d1157610d11614329565b9050602002016020810190610d26919061417e565b6001600160a01b031614155b15610def576001600160a01b03808a166000818152600a8701602090815260408083209486168352938152838220805460ff191690556011880181528382209282529190915220610d9b90878786818110610d8f57610d8f614329565b90506020020135612c42565b6001600160a01b0380821660009081526011860160209081526040808320938d168352929052908120549003610def576001600160a01b0381166000908152600e850160205260409020610def908a612dc2565b6000888885818110610e0357610e03614329565b9050602002016020810190610e18919061417e565b6001600160a01b031603610f38576001600160a01b0389166000908152600d85016020526040812081888887818110610e5357610e53614329565b602090810292909201358352508181019290925260409081016000908120805460ff1916941515949094179093556001600160a01b038481168452601188018352818420908d1684529091529020610eb790878786818110610d8f57610d8f614329565b836011016000898986818110610ecf57610ecf614329565b9050602002016020810190610ee4919061417e565b6001600160a01b03908116825260208083019390935260409182016000908120918d16815292528120549003610f38576001600160a01b0381166000908152600e850160205260409020610f38908a612dc2565b50610f9a565b6001600160a01b0388166000908152600d840160205260408120600191878786818110610f6d57610f6d614329565b90506020020135815260200190815260200160002060006101000a81548160ff0219169083151502179055505b868683818110610fac57610fac614329565b9050602002016020810190610fc1919061417e565b6001600160a01b0389166000908152600c85016020526040812090878786818110610fee57610fee614329565b90506020020135815260200190815260200160002060006101000a8154816001600160a01b0302191690836001600160a01b0316021790555082601101600088888581811061103f5761103f614329565b9050602002016020810190611054919061417e565b6001600160a01b03908116825260208083019390935260409182016000908120918c168152925281205490036110f85782600e01600088888581811061109c5761109c614329565b90506020020160208101906110b1919061417e565b6001600160a01b03908116825260208083019390935260409091016000908120805460018101825590825292902090910180546001600160a01b031916918a169190911790555b82601101600088888581811061111057611110614329565b9050602002016020810190611125919061417e565b6001600160a01b03908116825260208083019390935260409182016000908120918c1681529252902085858481811061116057611160614329565b8354600181018555600094855260209485902091909402929092013591909201555084848381811061119457611194614329565b9050602002013560000361120f576001600160a01b0388166000908152600a8401602052604081206001918989868181106111d1576111d1614329565b90506020020160208101906111e6919061417e565b6001600160a01b031681526020810191909152604001600020805460ff19169115159190911790555b876001600160a01b03167fa26c34551fd02a3dfd31be07594c747b7eff1691ef1b56d8550c653b141d96c288888581811061124c5761124c614329565b9050602002016020810190611261919061417e565b87878681811061127357611273614329565b90506020020135611282612f94565b604080516001600160a01b03909416845260208401929092529082015260600160405180910390a25b6001600160a01b0381163014611325577f696400fbb2b541b300645050eed181b28147aecbe0952a1f8434ee5afa3853748585848181106112ee576112ee614329565b90506020020135604051610bdb918152604060208201819052600990820152682737ba2fa7bbb732b960b91b606082015260800190565b505b8061133181614355565b9150506109c6565b50611342611366565b6040518190819060008051602061471d83398151915290600090a250505050505050565b60006113706107e5565b90504281600201819055507f4b956f7dd859946b4769262a4e79184ac10e1bb38db7ac1b1b2e108464248d4d426113a5612f94565b6040805192835260208301919091520160405180910390a150565b8215806113cb575080155b156113e95760405163521299a960e01b815260040160405180910390fd5b82811461140c576040516001621398b960e31b0319815260040160405180910390fd5b60006114166107e5565b905060005b848110156118235761145286868381811061143857611438614329565b905060200201602081019061144d919061417e565b611fae565b61146f576040516303b47de960e31b815260040160405180910390fd5b611484868683818110610a2f57610a2f614329565b6114a15760405163154c589b60e21b815260040160405180910390fd5b8383828181106114b3576114b3614329565b905060200201358260080160008888858181106114d2576114d2614329565b90506020020160208101906114e7919061417e565b6001600160a01b03908116825260208083019390935260409182016000908120918c1681529252812091909155600783019087878481811061152b5761152b614329565b9050602002016020810190611540919061417e565b6001600160a01b03908116825260208083019390935260409182016000908120918b168152925290205460ff161580156115925750600084848381811061158957611589614329565b90506020020135115b15611671578160090160008787848181106115af576115af614329565b90506020020160208101906115c4919061417e565b6001600160a01b0390811682526020808301939093526040909101600090812080546001808201835591835293822090930180546001600160a01b031916928b1692909217909155600784019088888581811061162357611623614329565b9050602002016020810190611638919061417e565b6001600160a01b03908116825260208083019390935260409182016000908120918c16815292529020805460ff19169115159190911790555b83838281811061168357611683614329565b9050602002013560000361174f576116e78260090160008888858181106116ac576116ac614329565b90506020020160208101906116c1919061417e565b6001600160a01b03166001600160a01b0316815260200190815260200160002088612dc2565b600082600701600088888581811061170157611701614329565b9050602002016020810190611716919061417e565b6001600160a01b03908116825260208083019390935260409182016000908120918c16815292529020805460ff19169115159190911790555b6040516370a0823160e01b81523060048201526000906001600160a01b038916906370a0823190602401602060405180830381865afa158015611796573d6000803e3d6000fd5b505050506040513d601f19601f820116820180604052508101906117ba91906144f9565b9050806117c689612fa6565b11156118105787816117d78a612fa6565b6117e1919061436e565b6040516303bcbff560e51b81526001600160a01b03909216600483015260248201526044015b60405180910390fd5b508061181b81614355565b91505061141b565b5061182c611366565b6040518190819060008051602061471d83398151915290600090a2866001600160a01b03167fc4616b82a48f5da1704849f678831e63874532ee6774872a05091338aa94957d8787878761187e612f94565b60405161188f95949392919061455b565b60405180910390a250505050505050565b8415806118ab575082155b156118c95760405163521299a960e01b815260040160405180910390fd5b8483146118ec576040516001621398b960e31b0319815260040160405180910390fd5b84811461190f576040516001621398b960e31b0319815260040160405180910390fd5b60006119196107e5565b905060005b86811015611f9b5761193b88888381811061143857611438614329565b611958576040516303b47de960e31b815260040160405180910390fd5b61196d888883818110610a2f57610a2f614329565b61198a5760405163154c589b60e21b815260040160405180910390fd5b83838281811061199c5761199c614329565b9050602002013582600f0160008a8a858181106119bb576119bb614329565b90506020020160208101906119d0919061417e565b6001600160a01b03908116825260208083019390935260409182016000908120918e1681529252812090888885818110611a0c57611a0c614329565b90506020020135815260200190815260200160002081905550611b058260110160008a8a85818110611a4057611a40614329565b9050602002016020810190611a55919061417e565b6001600160a01b03166001600160a01b0316815260200190815260200160002060008b6001600160a01b03166001600160a01b03168152602001908152602001600020805480602002602001604051908101604052809291908181526020018280548015611ae257602002820191906000526020600020905b815481526020019060010190808311611ace575b5050505050878784818110611af957611af9614329565b90506020020135613039565b611b9457816011016000898984818110611b2157611b21614329565b9050602002016020810190611b36919061417e565b6001600160a01b03908116825260208083019390935260409182016000908120918d16815292529020868683818110611b7157611b71614329565b835460018101855560009485526020948590209190940292909201359190920155505b611c438260100160008a8a85818110611baf57611baf614329565b9050602002016020810190611bc4919061417e565b6001600160a01b03166001600160a01b03168152602001908152602001600020805480602002602001604051908101604052809291908181526020018280548015611c3857602002820191906000526020600020905b81546001600160a01b03168152600190910190602001808311611c1a575b50505050508a61308c565b611cbb57816010016000898984818110611c5f57611c5f614329565b9050602002016020810190611c74919061417e565b6001600160a01b03908116825260208083019390935260409091016000908120805460018101825590825292902090910180546001600160a01b031916918b169190911790555b838382818110611ccd57611ccd614329565b90506020020135600003611d4657611d468260110160008a8a85818110611cf657611cf6614329565b9050602002016020810190611d0b919061417e565b6001600160a01b03908116825260208083019390935260409182016000908120918e16815292529020878784818110610d8f57610d8f614329565b816011016000898984818110611d5e57611d5e614329565b9050602002016020810190611d73919061417e565b6001600160a01b03908116825260208083019390935260409182016000908120918d16815292528120549003611df957611df98260100160008a8a85818110611dbe57611dbe614329565b9050602002016020810190611dd3919061417e565b6001600160a01b03166001600160a01b031681526020019081526020016000208a612dc2565b6000611e1d8a888885818110611e1157611e11614329565b905060200201356130eb565b905060008a6001600160a01b031662fdd58e308a8a87818110611e4257611e42614329565b6040516001600160e01b031960e087901b1681526001600160a01b0390941660048501526020029190910135602483015250604401602060405180830381865afa158015611e94573d6000803e3d6000fd5b505050506040513d601f19601f82011682018060405250810190611eb891906144f9565b905080821115611ecd578a6117e1828461436e565b8a6001600160a01b03167fb1348e9e901bf8e9a805f8e40f70d487ec066f5109f08780ca2748047c2d7ab38b8b86818110611f0a57611f0a614329565b9050602002016020810190611f1f919061417e565b8a8a87818110611f3157611f31614329565b90506020020135898988818110611f4a57611f4a614329565b90506020020135611f59612f94565b604080516001600160a01b039095168552602085019390935291830152606082015260800160405180910390a250508080611f9390614355565b91505061191e565b50611fa4611366565b5050505050505050565b600080611fb96107e5565b90506001600160a01b038316611fd2576001915061202e565b60005b600482015481101561202c57816004018181548110611ff657611ff6614329565b6000918252602090912001546001600160a01b039081169085160361201a57600192505b8061202481614355565b915050611fd5565b505b50919050565b600061203e6107e5565b60018101549091506001600160a01b0316321480159061206b575060018101546001600160a01b03163314155b8015612084575060038101546001600160a01b03163314155b801561209d575060038101546001600160a01b03163214155b1561064857604051621cf80b60e71b815260040160405180910390fd5b60006120c46107e5565b6003810180546001600160a01b031981166001600160a01b038681169182179093559293501690817f749034c217bc000fbc3bdeb09a3dc6f5e6a5f6084302b06555e1124f88b39b21612115612f94565b60405190815260200160405180910390a3505050565b61213433611fae565b5061213e33612bf8565b50612147613185565b612150336131c3565b600061215a6107e5565b336000908152600682016020526040902054909150156122225733600081815260068301602052604080822054905190929083908381818185875af1925050503d80600081146121c6576040519150601f19603f3d011682016040523d82523d6000602084013e6121cb565b606091505b50509050806121dc576121dc6145b0565b337ff4c8e3a141f402733f36011a62cef94385bf3bc2905fca8df9bab1a429e5199e83612207612f94565b6040805192835260208301919091520160405180910390a250505b61222a61320c565b6122326133a3565b61223a6136da565b6122478160040133612dc2565b6106483361392c565b82158061225b575080155b156122795760405163521299a960e01b815260040160405180910390fd5b82811461229c576040516001621398b960e31b0319815260040160405180910390fd5b60006122a66107e5565b905060005b84811015612395576122c8868683818110610a2f57610a2f614329565b6122e55760405163154c589b60e21b815260040160405180910390fd5b8383828181106122f7576122f7614329565b9050602002013582600601600088888581811061231657612316614329565b905060200201602081019061232b919061417e565b6001600160a01b031681526020810191909152604001600020554761234e6108e1565b1115612383574761235d6108e1565b612367919061436e565b60405163587c18e360e11b815260040161180791815260200190565b8061238d81614355565b9150506122ab565b5061239e611366565b6040518190819060008051602061471d83398151915290600090a27fe2e568f020f7d86eb6d745f975cf3202824ddd526e3f6dce63e3759db1dd2bf1868686866123e6612f94565b6040516123f795949392919061455b565b60405180910390a1505050505050565b60008190036124295760405163521299a960e01b815260040160405180910390fd5b612431613a11565b600061243b6107e5565b905060005b8281101561257a5781600501600085858481811061246057612460614329565b9050602002016020810190612475919061417e565b6001600160a01b0316815260208101919091526040016000205460ff166124af576040516303b47de960e31b815260040160405180910390fd5b60008260050160008686858181106124c9576124c9614329565b90506020020160208101906124de919061417e565b6001600160a01b031681526020810191909152604001600020805460ff19169115159190911790556125396004830185858481811061251f5761251f614329565b9050602002016020810190612534919061417e565b612dc2565b61256884848381811061254e5761254e614329565b9050602002016020810190612563919061417e565b613a50565b8061257281614355565b915050612440565b50612583611366565b6040518190819060008051602061471d83398151915290600090a27f5fe98e7641eb6a82c692a0effc68b2c23d0e01735264524c82ff0f947ece1a2784846125c9612f94565b6040516125d8939291906145c6565b60405180910390a150505050565b60006125f06108e1565b90508047106126865782612604824761436e565b10156126235760405163500d4efb60e11b815260040160405180910390fd5b6000826001600160a01b03168460405160006040518083038185875af1925050503d8060008114612670576040519150601f19603f3d011682016040523d82523d6000602084013e612675565b606091505b5050905080610689576106896145b0565b60405163500d4efb60e11b815260040160405180910390fd5b505050565b60006126ae6107e5565b60038101549091506001600160a01b0316331461064857604051632c58d33b60e11b815260040160405180910390fd5b60006126e86107e5565b90506126f2613185565b600181015460038201546001600160a01b0391821691908116908416820361271c5761271c6145b0565b6001830180546001600160a01b0319908116339081179092556003850180546001600160a01b038881169190931617905583167fc13a1166d81cd3b0b352a367aebab95f3a6f6bc695fdab8e9a9d335239c3861b612778612f94565b60405190815260200160405180910390a3836001600160a01b0316816001600160a01b03167f749034c217bc000fbc3bdeb09a3dc6f5e6a5f6084302b06555e1124f88b39b216127c6612f94565b60405190815260200160405180910390a350505050565b60006127e76107e5565b6001810180546001600160a01b031981166001600160a01b038681169182179093559293501690817fc13a1166d81cd3b0b352a367aebab95f3a6f6bc695fdab8e9a9d335239c3861b612115612f94565b60006128426107e5565b60018101549091506001600160a01b0316321480159061209d575060018101546001600160a01b0316331461064857604051621cf80b60e71b815260040160405180910390fd5b821580612894575080155b156128b25760405163521299a960e01b815260040160405180910390fd5b8281146128d5576040516001621398b960e31b0319815260040160405180910390fd5b6128dd613a11565b6000806128e86107e5565b905060005b85811015612a495784848281811061290757612907614329565b90506020020135836129199190614381565b925081600501600088888481811061293357612933614329565b9050602002016020810190612948919061417e565b6001600160a01b0316815260208101919091526040016000205460ff16156129835760405163277cf97d60e11b815260040160405180910390fd5b8160040187878381811061299957612999614329565b90506020020160208101906129ae919061417e565b81546001808201845560009384526020842090910180546001600160a01b0319166001600160a01b0393909316929092179091559060058401908989858181106129fa576129fa614329565b9050602002016020810190612a0f919061417e565b6001600160a01b031681526020810191909152604001600020805460ff191691151591909117905580612a4181614355565b9150506128ed565b50612a5686868686612250565b612a5e611366565b6040518190819060008051602061471d83398151915290600090a27f1a532e29ac61e63a23c4e546447741de6d3f064c4063af802f6da8c5be9807618787612aa4612f94565b604051612ab3939291906145c6565b60405180910390a17fe2e568f020f7d86eb6d745f975cf3202824ddd526e3f6dce63e3759db1dd2bf187878787612ae8612f94565b604051612af995949392919061455b565b60405180910390a150505050505050565b60008585858585604051602001612b259594939291906145ea565b60405160208183030381529060405280519060200120905095945050505050565b612b4e6107e5565b600101546001600160a01b0316331461044957604051630e7fea9d60e01b815260040160405180910390fd5b600080612b856107e5565b90506001600160a01b038316612b9e576001915061202e565b60005b600482015481101561202c57816004018181548110612bc257612bc2614329565b6000918252602090912001546001600160a01b0390811690851603612be657600192505b80612bf081614355565b915050612ba1565b600080612c036107e5565b90506001600160a01b038316612c1c576001915061202e565b6001600160a01b038316600090815260058201602052604090205460ff16915050919050565b8154612c905760405162461bcd60e51b815260206004820152601a60248201527f4e6f6e2d656c656d656e746564206e756d6265722061727261790000000000006044820152606401611807565b6000612ceb8284805480602002602001604051908101604052809291908181526020018280548015612ce157602002820191906000526020600020905b815481526020019060010190808311612ccd575b5050505050613eb2565b8354909150600103612d1e5782805480612d0757612d07614657565b600190038181906000526020600020016000905590555b82546001101561269f57805b8354612d389060019061436e565b811015612d965783612d4b826001614381565b81548110612d5b57612d5b614329565b9060005260206000200154848281548110612d7857612d78614329565b60009182526020909120015580612d8e81614355565b915050612d2a565b5082805480612da757612da7614657565b60019003818190600052602060002001600090559055505050565b8154612e105760405162461bcd60e51b815260206004820152601b60248201527f4e6f6e2d656c656d656e746564206164647265737320617272617900000000006044820152606401611807565b6000612e758284805480602002602001604051908101604052809291908181526020018280548015612e6b57602002820191906000526020600020905b81546001600160a01b03168152600190910190602001808311612e4d575b5050505050613ef1565b8354909150600103612eb45782805480612e9157612e91614657565b600082815260209020810160001990810180546001600160a01b03191690550190555b82546001101561269f57805b8354612ece9060019061436e565b811015612f5c5783612ee1826001614381565b81548110612ef157612ef1614329565b9060005260206000200160009054906101000a90046001600160a01b0316848281548110612f2157612f21614329565b600091825260209091200180546001600160a01b0319166001600160a01b039290921691909117905580612f5481614355565b915050612ec0565b5082805480612f6d57612f6d614657565b600082815260209020810160001990810180546001600160a01b0319169055019055505050565b600080612f9f6107e5565b5492915050565b600080612fb16107e5565b90506000805b600483015481101561303157826008016000846004018381548110612fde57612fde614329565b60009182526020808320909101546001600160a01b039081168452838201949094526040928301822093891682529290925290205461301d9083614381565b91508061302981614355565b915050612fb7565b509392505050565b8151600090156130865760005b835181101561095c5783818151811061306157613061614329565b6020026020010151830361307457600191505b8061307e81614355565b915050613046565b92915050565b8151600090156130865760005b835181101561095c578381815181106130b4576130b4614329565b60200260200101516001600160a01b0316836001600160a01b0316036130d957600191505b806130e381614355565b915050613099565b6000806130f66107e5565b905060005b600482015481101561317d5781600f01600083600401838154811061312257613122614329565b60009182526020808320909101546001600160a01b039081168452838201949094526040928301822093891682529283528181208782529092529020546131699084614381565b92508061317581614355565b9150506130fb565b505092915050565b600061318f6107e5565b905062dd7c008160020154426131a5919061436e565b116106485760405163d0404f8560e01b815260040160405180910390fd5b60006131cd6107e5565b6001600160a01b038316600090815260128201602052604090205490915060ff16156106a1576040516317968e5360e31b815260040160405180910390fd5b60006132166107e5565b33600090815260098201602052604090205490915080156106a15760005b8181101561269f57336000908152600984016020526040812080548390811061325f5761325f614329565b6000918252602090912001546001600160a01b03169050806132815750613391565b33600090815260088501602090815260408083206001600160a01b0385168452909152902054801561338e5733600081815260088701602090815260408083206001600160a01b038716808552925280832092909255905163a9059cbb60e01b81526004810192909252602482018390529063a9059cbb906044016020604051808303816000875af115801561331b573d6000803e3d6000fd5b505050506040513d601f19601f8201168201806040525081019061333f919061466d565b506001600160a01b038216337f8ac7b854474d50f4f049591edaabca92b756a6eb329b81e1e78c6732074a820783613375612f94565b6040805192835260208301919091520160405180910390a35b50505b8061339b81614355565b915050613234565b60006133ad6107e5565b336000908152600e8201602052604090205490915080156106a15760005b8181101561269f57336000908152600e8401602052604081208054839081106133f6576133f6614329565b6000918252602090912001546001600160a01b031690508061341857506136c8565b33600090815260118501602090815260408083206001600160a01b038516845290915290205480156136c55760005b818110156136c35733600090815260118701602090815260408083206001600160a01b0387168452909152812080548390811061348657613486614329565b90600052602060002001549050806000036135b0576001600160a01b0384166000908152600a88016020908152604080832033845290915290205460ff16156135ab576001600160a01b0384166000818152600a890160209081526040808320338085529252808320805460ff19169055516323b872dd60e01b8152306004820152602481019190915260448101919091526323b872dd90606401600060405180830381600087803b15801561353b57600080fd5b505af115801561354f573d6000803e3d6000fd5b50505050836001600160a01b0316336001600160a01b03167f6baca9678f668dfa92ae1004d315330589cb4ee920503275c9a2ebe01eca8ac96000613592612f94565b6040805192835260208301919091520160405180910390a35b6136b0565b33600090815260118801602090815260408083206001600160a01b038816845290915281208054849081106135e7576135e7614329565b6000918252602090912001556040516323b872dd60e01b8152306004820152336024820152604481018290526001600160a01b038516906323b872dd90606401600060405180830381600087803b15801561364157600080fd5b505af1158015613655573d6000803e3d6000fd5b50505050836001600160a01b0316336001600160a01b03167f6baca9678f668dfa92ae1004d315330589cb4ee920503275c9a2ebe01eca8ac983613697612f94565b6040805192835260208301919091520160405180910390a35b50806136bb81614355565b915050613447565b505b50505b806136d281614355565b9150506133cb565b60006136e46107e5565b33600090815260108201602052604090205490915080156106a15760005b8181101561269f57336000908152601084016020526040812080548390811061372d5761372d614329565b6000918252602090912001546001600160a01b031690508061374f575061391a565b33600090815260118501602090815260408083206001600160a01b038516845290915290205480156139175760005b818110156139155733600090815260118701602090815260408083206001600160a01b038716845290915281208054839081106137bd576137bd614329565b6000918252602080832090910154338352600f8a01825260408084206001600160a01b03891685528352808420828552909252912054909150801561390057336000818152600f8a01602090815260408083206001600160a01b038a1680855290835281842087855290925280832083905551637921219560e11b81523060048201526024810193909352604483018590526064830184905260a0608484015260a48301919091529063f242432a9060c401600060405180830381600087803b15801561388957600080fd5b505af115801561389d573d6000803e3d6000fd5b50505050846001600160a01b0316336001600160a01b03167fa93de68936b40c7ff4c3402888298ee6c2588730d2a4110287ae0bcf6b269ddb6001846138e1612f94565b6040805193845260208401929092529082015260600160405180910390a35b5050808061390d90614355565b91505061377e565b505b50505b8061392481614355565b915050613702565b60006139366107e5565b6001600160a01b03831660009081526006820160209081526040808320839055600984019091529020549091501561398b576001600160a01b0382166000908152600982016020526040812061398b91613f4e565b6001600160a01b0382166000908152600e82016020526040902054156139ce576001600160a01b0382166000908152600e8201602052604081206139ce91613f4e565b6001600160a01b0382166000908152601082016020526040902054156106a1576001600160a01b038216600090815260108201602052604081206106a191613f4e565b6000613a1b6107e5565b905062dd7c00816002015442613a31919061436e565b111561064857604051633d36c2e560e01b815260040160405180910390fd5b6000613a5a6107e5565b6001600160a01b038316600090815260068201602090815260408083208390556009840190915290205490915015613bb25760005b6001600160a01b0383166000908152600983016020526040902054811015613b8e576001600160a01b03831660009081526008830160209081526040808320600986019092528220805483919085908110613aec57613aec614329565b60009182526020808320909101546001600160a01b0390811684528382019490945260409283018220949094559186168252600785018352808220600986019093528120805491929183919085908110613b4857613b48614329565b6000918252602080832091909101546001600160a01b031683528201929092526040019020805460ff191691151591909117905580613b8681614355565b915050613a8f565b506001600160a01b03821660009081526009820160205260408120613bb291613f4e565b6001600160a01b0382166000908152600e8201602052604090205415613d4f5760005b6001600160a01b0383166000908152600e83016020526040902054811015613d2b576001600160a01b0383166000908152600e830160205260408120805483908110613c2357613c23614329565b60009182526020808320909101546001600160a01b038781168452600b87018352604080852091909216808552925282205490925090819003613c90576001600160a01b038083166000908152600a860160209081526040808320938916835292905220805460ff191690555b6001600160a01b038086166000818152600b870160209081526040808320948716808452948252808320839055600d890182528083208684528252808320805460ff19169055848352600c89018252808320868452825280832080546001600160a01b0319169055928252601188018152828220938252929092528120613d1691613f4e565b50508080613d2390614355565b915050613bd5565b506001600160a01b0382166000908152600e820160205260408120613d4f91613f4e565b6001600160a01b0382166000908152601082016020526040902054156106a15760005b6001600160a01b0383166000908152601083016020526040902054811015613e8e576001600160a01b0383166000908152600f830160209081526040808320601086019092528220805483919085908110613dcf57613dcf614329565b60009182526020808320909101546001600160a01b0390811684528382019490945260409283018220938816825260118701815282822060108801909152918120805491929183919087908110613e2857613e28614329565b60009182526020808320909101546001600160a01b031683528201929092526040019020805485908110613e5e57613e5e614329565b90600052602060002001548152602001908152602001600020819055508080613e8690614355565b915050613d72565b506001600160a01b038216600090815260108201602052604081206106a191613f4e565b60005b81518110156130865782828281518110613ed157613ed1614329565b602002602001015103156130865780613ee981614355565b915050613eb5565b60005b815181101561308657826001600160a01b0316828281518110613f1957613f19614329565b60200260200101516001600160a01b031603156130865780613f3a81614355565b915050613ef4565b608d8061469083390190565b508054600082559060005260206000209081019061064891905b808211156106715760008155600101613f68565b600060208284031215613f8e57600080fd5b5035919050565b6001600160a01b038116811461064857600080fd5b60008083601f840112613fbc57600080fd5b50813567ffffffffffffffff811115613fd457600080fd5b6020830191508360208260051b8501011115613fef57600080fd5b9250929050565b60008060008060006060868803121561400e57600080fd5b853561401981613f95565b9450602086013567ffffffffffffffff8082111561403657600080fd5b61404289838a01613faa565b9096509450604088013591508082111561405b57600080fd5b5061406888828901613faa565b969995985093965092949392505050565b602080825282518282018190526000919060409081850190868401855b828110156140c457815180516001600160a01b03168552860151868501529284019290850190600101614096565b5091979650505050505050565b60008060008060008060006080888a0312156140ec57600080fd5b87356140f781613f95565b9650602088013567ffffffffffffffff8082111561411457600080fd5b6141208b838c01613faa565b909850965060408a013591508082111561413957600080fd5b6141458b838c01613faa565b909650945060608a013591508082111561415e57600080fd5b5061416b8a828b01613faa565b989b979a50959850939692959293505050565b60006020828403121561419057600080fd5b813561419b81613f95565b9392505050565b600080600080604085870312156141b857600080fd5b843567ffffffffffffffff808211156141d057600080fd5b6141dc88838901613faa565b909650945060208701359150808211156141f557600080fd5b5061420287828801613faa565b95989497509550505050565b6000806020838503121561422157600080fd5b823567ffffffffffffffff81111561423857600080fd5b61424485828601613faa565b90969095509350505050565b6000806040838503121561426357600080fd5b82359150602083013561427581613f95565b809150509250929050565b6000602080835260e0830160018060a01b03808651168386015282860151604086015260408601516060860152606086015160808601528060808701511660a086015260a086015160c080870152828151808552610100880191508583019450600092505b80831015614307578451841682529385019360019290920191908501906142e5565b50979650505050505050565b634e487b7160e01b600052604160045260246000fd5b634e487b7160e01b600052603260045260246000fd5b634e487b7160e01b600052601160045260246000fd5b6000600182016143675761436761433f565b5060010190565b818103818111156130865761308661433f565b808201808211156130865761308661433f565b6000602082840312156143a657600080fd5b815161419b81613f95565b600060033d11156143ca5760046000803e5060005160e01c5b90565b601f8201601f1916810167ffffffffffffffff8111828210171561440157634e487b7160e01b600052604160045260246000fd5b6040525050565b600060443d10156144165790565b6040516003193d81016004833e81513d67ffffffffffffffff816024840111818411171561444657505050505090565b828501915081518181111561445e5750505050505090565b843d87010160208285010111156144785750505050505090565b614487602082860101876143cd565b509095945050505050565b6000815180845260005b818110156144b85760208185018101518683018201520161449c565b506000602082860101526020601f19601f83011685010191505092915050565b8281526040602082015260006144f16040830184614492565b949350505050565b60006020828403121561450b57600080fd5b5051919050565b8183526000602080850194508260005b8581101561455057813561453581613f95565b6001600160a01b031687529582019590820190600101614522565b509495945050505050565b60608152600061456f606083018789614512565b82810360208401528481526001600160fb1b0385111561458e57600080fd5b8460051b80876020840137604093909301939093525001602001949350505050565b634e487b7160e01b600052600160045260246000fd5b6040815260006145da604083018587614512565b9050826020830152949350505050565b60a0815260006145fd60a0830188614492565b828103602084015261460f8188614492565b905082810360408401526146238187614492565b905082810360608401526146378186614492565b9050828103608084015261464b8185614492565b98975050505050505050565b634e487b7160e01b600052603160045260246000fd5b60006020828403121561467f57600080fd5b8151801515811461419b57600080fdfe60566037600b82828239805160001a607314602a57634e487b7160e01b600052600060045260246000fd5b30600052607381538281f3fe73000000000000000000000000000000000000000030146080604052600080fdfea2646970667358221220d3490995da7c482656cf5299d05897e7ad36d1e947ab8134ff8177e69fb907fa64736f6c63430008120033ea758a5dc298aa5c6654519a7bef61995e50b3ba4767069e0238a28b7f407b27a2646970667358221220e233b11e248103d604713b1f5c8fec65e247f3848a4563cbd48474f1312bc1c764736f6c63430008120033",
    "linkReferences": {}
  },
  "methodIdentifiers": {
    "addInheritors(address[],uint256[])": "fa27625e",
    "allEtherAllocations()": "5c69964d",
    "allocateERC1155Tokens(address,address[],uint256[],uint256[])": "9355e1a1",
    "allocateERC20Tokens(address,address[],uint256[])": "5d3066bc",
    "allocateERC721Tokens(address,address[],uint256[])": "30c2ec26",
    "allocateEther(address[],uint256[])": "a9fc38e5",
    "claimAllAllocations()": "a3fdeb75",
    "claimOwnership(address)": "da92d3ae",
    "depositEther(uint256)": "26839f17",
    "etherBalance()": "ad66e52a",
    "getAllocatedEther()": "233e3aa1",
    "getUnallocatedEther()": "a677596e",
    "inheritorEtherAllocation(address)": "9ff439e2",
    "inspectVault()": "ef8f26e0",
    "ping()": "5c36b186",
    "removeInheritors(address[])": "ba2fa4a0",
    "transferBackup(address)": "a2bbbc70",
    "transferOwnership(address)": "f2fde38b",
    "vaultOwner()": "1f52692b",
    "withdrawEther(uint256,address)": "ce56c454"
  },
  "id": 6
}